:020000040000FA
:06000000DBEF14F012001A
:0600080004EF08F01200F5
:060018000CEF08F01200DD
:06100000DBEF14F012000A
:02100600FFFFEA
:0610080091EF11F012004F
:021016000001D7
:06101800DCEF11F01200F4
:06102A000100D4290000C2
:08103000B50000000F000000F4
:08103800D9CFE6FFE1CFD9FF9B
:10104000E652A09A6A6A686A706A040EE66EE66AF8
:10105000E66A710EE66E0F0EE66EB1EC14F00B6EE2
:10106000050EE15E0B50160E6F6E9F0E6B6E7B0EC3
:10107000696EDF6ADF500B6E0C6A140E0B5C000E9B
:101080000C5810E2DF50040DF3CFE9FFF4CFEAFF74
:10109000000EE926040EEA22EE6AEE6AEE6AEE6AB5
:1010A000DF2AE8D76D8C6E6A6D986D9C68A607D0B4
:1010B00068960001816B866B876B886BF7D70001A0
:1010C000010E9E6F9F6FA06BA16B8E6BDF6A050E8A
:1010D000DF5C26E2EA6ADF34FE0BEA36E96E730E65
:1010E000E926000EEA22EE6AED6AEA6ADF34FE0BB8
:1010F000EA36E96E690EE926000EEA22EE6AED6A2A
:10110000DF50EA6A920FE96E000EEA22EF6ADF50C2
:10111000EA6A970FE96E000EEA22EF6ADF2AD7D754
:101120000001080E736F040E746F160E706E0401CA
:10113000500E026F040E036F080E016F840E006FD5
:101140000001616B606BE552E552E7CFD9FF1200F9
:10115000D9CFE6FFE1CFD9FFE6520001600507E1F4
:101160006DBA05D0686A69806988020E606F685040
:10117000040B06E06950040B03E06894B9EC0EF030
:101180006DA202D0A19A97D06850010B09E0695076
:10119000010B06E051DFA08A0001040E606F689029
:1011A0006850100B06E06950100B03E0A4EC0EF041
:1011B000689868AC19D069AC0FD0010EE66EE66A8B
:1011C000000EE66EE66A730EE66EE66AB2EC13F0A7
:1011D0000B6E060EE15E0B50689C00019C5101E015
:1011E0009C079C5101E10BDA6850200B05E0695027
:1011F000200B02E08BEC0EF06850020B13E06950FC
:10120000020B10E0010EE66EE66A000EE66EE66A7C
:10121000E6687F0EE66EB2EC13F00B6E060EE15E32
:101220000B506A6A040E0001E76E6019E8AE02D046
:10123000E73402D0E750605D02E2A19A3CD069A693
:1012400039D0DF6A040EDF5C35E268A632D06CCF9D
:101250008FF000018F51780BE842E842E842906F2E
:1012600068968FB508D09051EA6A970FE96E000E24
:10127000EA22EF7007D09051EA6A920FE96E000EF1
:10128000EA22EF70905103E1D0EC0EF010D0000E86
:10129000E66EE66A8F0EE66E000EE66E720EE66E83
:1012A000E66AB2EC13F00B6E060EE15E0B50DF2A1D
:1012B000C9D700D0A19AE552E552E7CFD9FF120075
:1012C000D9CFE6FFE1CFD9FF020EE126FD0EDBA468
:1012D00007D0E66AFE0EDBCFE6FF22DAE552E552E2
:1012E000FD0EDBA208D0010EE66EFE0EDBCFE6FFA0
:1012F00017DAE552E552FE0EDB500C6A700F0B6EEA
:101300000F0E0C220BC0DEFF0CC0DDFFDECFE9FFAD
:10131000DDCFEAFFFD0EDBCFEFFF020EE15C02E264
:10132000E16AE552E16EE552E7CFD9FF1200D9CF6D
:10133000E6FFE1CFD9FF020EE126FD0EDB500FE004
:10134000FE0EEA6ADB34FE0BEA36E96E730EE9261E
:10135000000EEA22EECFDEFFEDCFDDFF0ED0FE0E57
:10136000EA6ADB34FE0BEA36E96E690EE926000E06
:10137000EA22EECFDEFFEDCFDDFFD9CFE9FFDACFF6
:10138000EAFFEE50ED1003E1F36AF46A49D0DECFD4
:10139000E9FFDDCFEAFF020EE926000EEA22FB0E8E
:1013A000DBCFEEFFFC0EDBCFEDFFDECFE9FFDDCFC5
:1013B000EAFFEE52FA0EDBCFEFFF400E0B6EDECFF0
:1013C000E9FFDDCFEAFF0B50EF16880E0B6EDECF84
:1013D000E9FFDDCFEAFF0B50EF12FD0EDB500CE012
:1013E000FE0EEA6ADB34FE0BEA36E96E730EE9267E
:1013F000000EEA22EF740BD0FE0EEA6ADB34FE0B1D
:10140000EA36E96E690EE926000EEA22EF74DECFB5
:101410000BF0DDCF0CF00BC0F3FF0CC0F4FF00D0DD
:10142000020EE15C02E2E16AE552E16EE552E7CFCD
:10143000D9FF1200D9CFE6FFE1CFD9FF020EE12696
:10144000FE0EDB5020E167C0E9FF68C0EAFFEE5204
:10145000080EEF6E67C0E9FF68C0EAFF020EE926DA
:10146000000EEA22500EEE6E040EED6E67C0E9FF2C
:1014700068C0EAFF8C0EEF6E73C0E9FF74C0EAFF2C
:10148000840EEF6E3DD0FD0EDB50E8240D6EFE0E97
:10149000DB50040DF3500D24040DF3CF0BF0F4CF0B
:1014A0000CF0000E0B26040E0C220BC0DEFF0CC04D
:1014B000DDFF840E0B6EDECFE9FFDDCFEAFF0B50C0
:1014C000EF12FD0EDB50E8240D6EFE0EDB50040D16
:1014D000F3500D24010F040DF3CF0BF0F4CF0CF0FB
:1014E000000E0B26040E0C220BC0DEFF0CC0DDFF2D
:1014F000840E0B6EDECFE9FFDDCFEAFF0B50EF125B
:10150000020EE15C02E2E16AE552E16EE552E7CFEC
:10151000D9FF1200D9CFE6FFE1CFD9FF6DA84ED099
:10152000FE0EEA6ADB34FE0BEA36E96E730EE9263C
:10153000000EEA22EE50EFCFEAFFE96E400EEE1603
:10154000EE6AEE6AEE6AFE0EEA6ADB34FE0BEA36FB
:10155000E96E730EE926000EEA22EE50EFCFEAFFA5
:10156000E96EEE7CFE0EEA6ADB34FE0BEA36E96ECB
:10157000730EE926000EEA22EF74400E0B6EFE0E8B
:10158000EA6ADB34FE0BEA36E96E730EE926000EDA
:10159000EA22EE50EFCFEAFFE96E0B50EF16FE0E97
:1015A000EA6ADB34FE0BEA36E96E730EE926000EBA
:1015B000EA22EE50EFCFEAFFE96EEF7CE552E7CF8B
:1015C000D9FF12006D6A696A0001606B00D01200D9
:1015D0000001605113E16D6A696A160E6F6E9F0E0D
:1015E0006B6E7B0E696ED08EA28AA08AF28E6DB66B
:1015F00002D06D86FCD70001010E606F1200000161
:101600009E514DE1010E9E6F9F5149E1010E9F6F6A
:10161000020E7E5D0DE173C0E9FF74C0EAFFEE5279
:10162000EF6A73C0E9FF74C0EAFFC80EEF6E37D0EF
:101630007E0535E1916B65C0E9FF66C0EAFFEE52B9
:10164000080EEF6E65C0E9FF66C0EAFF020EE926EC
:10165000000EEA22500EEE6E040EED6E65C0E9FF3C
:1016600066C0EAFF840EEF6E010E916F67C0E9FF5E
:1016700068C0EAFFEE52080EEF6E67C0E9FF68C06F
:10168000EAFF020EE926000EEA22500EEE6E040E6C
:10169000ED6E67C0E9FF68C0EAFF800EEF6E1200D2
:1016A0000001A06BA16B020E7E5D1AE167C0E9FF2D
:1016B00068C0EAFFEE52080EEF6E67C0E9FF68C02F
:1016C000EAFF020EE926000EEA22580EEE6E040E24
:1016D000ED6E67C0E9FF68C0EAFFC80EEF6E1FD06D
:1016E00082510401565D000183510401575904E2FF
:1016F00056C482F057C483F0D1D873C0E9FF74C0D8
:10170000EAFF020EE926000EEA22580EEE6E040EE3
:10171000ED6E73C0E9FF74C0EAFFC80EEF6E1200F1
:10172000D9CFE6FFE1CFD9FF020EE126000EDE6E33
:10173000040EDD6EFD0EDB50E8240D6EFE0EDB5058
:10174000040DF3500D24040DF3CF0BF0F4CF0CF087
:10175000D9CFE9FFDACFEAFF0B50EE260C50ED228D
:10176000DECFE9FFDDCFEAFFEF9EFD0EDB500FE19C
:10177000FE0EEA6ADB34FE0BEA36E96E690EE926F4
:10178000000EEA22DECFEEFFDDCFEDFF0ED0FE0E23
:10179000EA6ADB34FE0BEA36E96E730EE926000EC8
:1017A000EA22DECFEEFFDDCFEDFFDECFE9FFDDCFBA
:1017B000EAFFEF9CDECFE9FFDDCFEAFF040EE9266A
:1017C000000EEA22EF8C020EE15C02E2E16AE552D1
:1017D000E16EE552E7CFD9FF12006D98000181BF9D
:1017E0002BD086AF09D0020E7E6FA15101E158DFE8
:1017F00000019F6B9E6B1FD067C0E9FF68C0EAFFC6
:10180000EE52080EEF6E67C0E9FF68C0EAFF020EF5
:10181000E926000EEA22500EEE6E040EED6E67C051
:10182000E9FF68C0EAFF8C0EEF6E73C0E9FF74C079
:10183000EAFF840EEF6E31D0040150AF0DD00001ED
:10184000010E7E6FA05101E12BDF00019F6B9E6BAB
:101850009D5101E1D4DE21D00001020E7E6F67C0F0
:10186000E9FF68C0EAFFEE52080EEF6E67C0E9FFBD
:1018700068C0EAFF020EE926000EEA22500EEE6E64
:10188000040EED6E67C0E9FF68C0EAFF840EEF6EDC
:101890009F6B9E6B9D5101E1B2DE1200D9CFE6FF36
:1018A000E1CFD9FFE652080EDF6E0001825D000E27
:1018B00083590BE282C0DFFF7D5103E1010E7D6F92
:1018C00004D07D0502E1020E7D6FDF500B6E0C6AC5
:1018D0000B50825D826F0C508359836F73C0E9FF98
:1018E00074C0EAFFEE52DFCFEFFF580E8B6F040E8D
:1018F0008C6F81B119D0DF5016E07FC0F6FF80C039
:10190000F7FF7F2B000E80230800F550E66E8BC09A
:10191000E9FF8CC0EAFF8B2B000E8C23E552E750C9
:10192000EF6EDF06E8D717D0DF5015E07FC0E9FF84
:1019300080C0EAFF7F2B000E8023EF50E66E8BC045
:10194000E9FF8CC0EAFF8B2B000E8C23E552E75099
:10195000EF6EDF06E9D7E552E552E7CFD9FF120077
:10196000D9CFE6FFE1CFD9FF020EE12665C0E9FF3E
:1019700066C0EAFFEE52EFCFDFFFDFCF0BF00B5078
:101980000001875D000E885902E287C0DFFFDF504B
:101990000B6E0C6A0B50875D876F0C508859886FEF
:1019A000010EDB6ADF50F36E010EDBCFF4FFF35064
:1019B000F45C16E2010EDB50EA6A580FE96E040E81
:1019C000EA22EF50E66E84C0E9FF85C0EAFF842B6F
:1019D000000E8523E552E750EF6E010EDB2AE2D7B9
:1019E000000ED8808755000E885528E267C0E9FFB1
:1019F00068C0EAFFEE52080EEF6E67C0E9FF68C0EC
:101A0000EAFF020EE926000EEA22580EEE6E040EE0
:101A1000ED6E65C0E9FF66C0EAFFEF50400B07E1DD
:101A200067C0E9FF68C0EAFFC80EEF6E06D067C066
:101A3000E9FF68C0EAFF880EEF6E28D067C0E9FFB3
:101A400068C0EAFFEE52080EEF6E67C0E9FF68C09B
:101A5000EAFF020EE926000EEA22500EEE6E040E98
:101A6000ED6E67C0E9FF68C0EAFF840EEF6E895132
:101A70008A1107E005D08AC0FAFF00018951F96E8A
:101A8000FADF0001869F9D5101E1B9DD020EE15CA4
:101A900002E2E16AE552E16EE552E7CFD9FF1200BA
:101AA000D9CFE6FFE1CFD9FFE6520001818F040EC6
:101AB000E66EE66AE66A710EE66E0F0EE66EB1EC51
:101AC00014F00B6E050EE15E0B50500EE66EE66AEA
:101AD000E66A000EE66E040EE66EB1EC14F00B6ED4
:101AE000050EE15E0B506D8CDF6A050EDF5C10E2C7
:101AF000DF50EA6A920FE96E000EEA22EF6ADF50C9
:101B0000EA6A970FE96E000EEA22EF6ADF2AEDD744
:101B1000030EE66EE66AE66A620EE66E000EE66E9A
:101B2000B1EC14F00B6E050EE15E0B506D9C0001E4
:101B3000080E736F040E746F000E656F040E666FEF
:101B400065C067F066C068F052C461F0615103E19E
:101B5000100E606F13D0010EE66EE66A610EE66E3F
:101B6000000EE66E010EE66EE66AB2EC13F00B6E46
:101B7000060EE15E0B500001200E606FE552E5524B
:101B8000E7CFD9FF1200800E0401505D5BE1000138
:101B9000C00E816F04015351030A34E0010A0EE0C4
:101BA000030A03E00001816B4DD00001020E7F6F3C
:101BB000280E806F120E826F836B44D05251F66EE6
:101BC000F76AD890F636F736BB0EF626280EF722BF
:101BD0000900F5CF7FF00A00F5CF80F0020E00017A
:101BE000F76A7F25F66E8051F7220800F5CF82F064
:101BF000030EF76A7F25F66E8051F7220800F5CFB5
:101C000083F020D0030E525D1AE25251F66EF76A4D
:101C1000D890F636F736BD0EF626280EF7220900C4
:101C2000F5CF7FF00A00F5CF80F07FC0F6FF80C0CF
:101C3000F7FF0800F5500001826F836B02D00001AE
:101C4000816B00D01200D9CFE6FFE1CFD9FF020EA1
:101C5000E1260401586B596B50511F0B020A12E028
:101C6000030A0DE0010A01E042D00001818F040166
:101C7000588100018D0502E10401588338D000012C
:101C8000818F35D00001818F040154BF10D0545191
:101C90000F0BE96EEA6AD890E936EA36690EE92652
:101CA000000EEA22EECFDEFFEDCFDDFF0FD0545164
:101CB0000F0BE96EEA6AD890E936EA36730EE92628
:101CC000000EEA22EECFDEFFEDCFDDFFDECFE9FF33
:101CD000DDCFEAFFEF50800B09E0DECFE9FFDDCF7B
:101CE000EAFFEF50040B02E0010E586F00D0000134
:101CF00081AF07D0580E7F6F040E806F8181020E76
:101D0000826F020EE15C02E2E16AE552E16EE552A9
:101D1000E7CFD9FF120070A015D065C0E9FF66C0FB
:101D2000EAFFEF5080080DE173C0E9FF74C0EAFFDD
:101D3000EF50840806E165C0E9FF66C0EAFF8C0E3B
:101D4000EF6E7090689A1200698468986D82000145
:101D5000010E8E6F000EE66EE66AE66EE66A750E9E
:101D6000E66EE66AB2EC13F00B6E060EE15E0B5007
:101D7000120000018E6B000EE66EE66AE66EE66A01
:101D8000740EE66EE66AB2EC13F00B6E060EE15EC0
:101D90000B506D92699468A402D06894FCD712002D
:101DA000D9CFE6FFE1CFD9FFE65200012D0E9C6F9F
:101DB000FD0E8F1553E17E0E8F15E8407F0B040D4D
:101DC000F3CF65F0F4CF66F0000E6527040E6623AE
:101DD00065C067F066C068F0677565C0E9FF66C0FA
:101DE000EAFFEF503C0BE842E8420D0835E1DF6ABC
:101DF000080EDF5C23E265C0E9FF66C0EAFF020E61
:101E0000E926000EEA22EE50EFCFEAFFE96EEF502E
:101E1000E66EDF50EA6A500FE96E040EEA22E552E0
:101E2000E750EF6E65C0E9FF66C0EAFF020EE926E3
:101E3000000EEA22EE2AEF22DF2ADAD765C0E9FF98
:101E400066C0EAFF020EE926000EEA22500EEE6E90
:101E5000040EED6E0DD801D03AD805D0FD0E8F15C9
:101E6000040801E159D8E552E552E7CFD9FF120045
:101E700000017D6B9D6BA06BA16B916B7E6B73C042
:101E8000E9FF74C0EAFFEF9E737573C0E9FF74C089
:101E9000EAFFEF9E737567C0E9FF68C0EAFFEF9E37
:101EA000816B826B836B866B876B886B8FD8000E20
:101EB000E66EE66AE66EE66A030EE66EE66AB2EC87
:101EC00013F00B6E060EE15E0B50EDEF0BF0020E01
:101ED00000017E5D02E144DD1ED07E6B91511AE16E
:101EE00067C0E9FF68C0EAFFEE52080EEF6E67C0F8
:101EF000E9FF68C0EAFF020EE926000EEA22500E52
:101F0000EE6E040EED6E67C0E9FF68C0EAFF8C0E4E
:101F1000EF6E01D0916B1200D9CFE6FFE1CFD9FF70
:101F2000E65273C0E9FF74C0EAFFEF50400B01E0D6
:101F3000010EDF6E00017375080E605D09E152C489
:101F40006EFF6E5003E0100E606F02D0040E606FE3
:101F50007E0528E173C0E9FF74C0EAFF020EE9269E
:101F6000000EEA22580EEE6E040EED6E97DC020EA5
:101F700000017D5D07E173C0E9FF74C0EAFF840ED4
:101F8000EF6E0FD0DF5007E173C0E9FF74C0EAFFC6
:101F9000C80EEF6E06D073C0E9FF74C0EAFF880E6A
:101FA000EF6E0FD086AF0CD089518A1107E005D0B3
:101FB0008AC0FAFF00018951F96EFADF0001869F9D
:101FC0007E6BE552E552E7CFD9FF12000401505174
:101FD000600BE842E842E842E842E842000901E0DA
:101FE00058D051510C0A54E00B0A43E00C0A35E07A
:101FF000010A26E00B0A22E0020A20E0030A1CE0A4
:10200000080A10E0010A0CE00F0A08E0030A01E0E8
:102010003FD00001818F080E606F3BD0B4DD39D016
:102020003FDD37D00001610E7F6F000E806F818130
:10203000010E826F818F2DD006DE2BD02BD829D0B8
:10204000545100017F6F806B620E7F27000E80234A
:102050008181010E826F818F1CD00001818F04016C
:102060005451EA6A620FE96E000EEA2252C4EFFF91
:1020700010D0000EE66EE66AE66EE66A020EE66EC6
:10208000E66AB2EC13F00B6E060EE15E0B5001D067
:1020900000D01200D9CFE6FFE1CFD9FF050EE1262F
:1020A0000401520510E150511F0B00090CE1000121
:1020B000818F030E0401515D04E10001010E8D6F5B
:1020C00002D000018D6B0401525101E020D150512A
:1020D0001F0B020801E01BD154510F0B000901E155
:1020E00016D154510F0B040801E211D1200E00014A
:1020F000605D01E00CD1818F040154BF1AD05451AE
:102100000F0BE96EEA6AD890E936EA36690EE926DD
:10211000000EEA22EECFDEFFEDCFDDFF54510F0BB4
:10212000EA6A970FE96E000EEA22020EEFCFDBFF9C
:1021300019D054510F0BE96EEA6AD890E936EA36A5
:10214000730EE926000EEA22EECFDEFFEDCFDDFFB3
:1021500054510F0BEA6A920FE96E000EEA22020E4A
:10216000EFCFDBFFD950020FE96EDACFEAFFEF5075
:10217000010B03E1000EDF9401D0DF8454BF10D0C7
:1021800054510F0BE96EEA6AD890E936EA36690EC7
:10219000E926000EEA22DECFEEFFDDCFEDFF0FD005
:1021A00054510F0BE96EEA6AD890E936EA36730E9D
:1021B000E926000EEA22DECFEEFFDDCFEDFF030EB3
:1021C000515D23E1DECFE9FFDDCFEAFFEF50800B69
:1021D00013E054BF09D054510F0BEA6A970FE96E10
:1021E000000EEA22EF8208D054510F0BEA6A920FD8
:1021F000E96E000EEA22EF82840E0B6EDECFE9FF5D
:10220000DDCFEAFF0B50EF1282D0DF74DECFE9FFA3
:10221000DDCFEAFFEF50800B1BE0DECFE9FFDDCF23
:10222000EAFFEF9EDECFE9FFDDCFEAFFEF8C020E83
:10223000E66EE66ADECFE6FFDDCFE6FF050EE66E70
:10224000E66AB2EC13F00B6E060EE15E0B5005D0A1
:10225000DECFE9FFDDCFEAFFEF8CDF74D950020F4C
:10226000E96EDACFEAFFEF50020B07E1DECFE9FFBC
:10227000DDCFEAFFEF50800B2DE0040154BF09D001
:1022800054510F0BEA6A970FE96E000EEA22EF92A3
:1022900008D054510F0BEA6A920FE96E000EEA2241
:1022A000EF923B0E0B6EDECFE9FFDDCFEAFF0B5066
:1022B000EF16020EE66EE66ADECFE6FFDDCFE6FF42
:1022C000050EE66EE66AB2EC13F00B6E060EE15EEA
:1022D0000B5008D03B0E0B6EDECFE9FFDDCFEAFFDF
:1022E0000B50EF16040154510F0B0C6A700F0B6E5C
:1022F0000F0E0C22030E0BC0DBFF040E0CC0DBFF25
:10230000030EDBCFE9FF040EDBCFEAFFEF90050EF3
:10231000E15C02E2E16AE552E16EE552E7CFD9FF06
:022320001200A9
:0E232200DACFE4FFE2CFDAFFE9CFE4FFEACF43
:10233000E4FFF6CFE4FFF7CFE4FFF5CFE4FFF3CF00
:10234000E4FFF4CFE4FFFACFE4FF00EE00F00B0E61
:10235000E80403E3EECFE4FFFBD700EE0BF0030E3F
:10236000E80403E3EECFE4FFFBD7E652A8EC08F065
:10237000E55200EE0DF0030EE80403E3E5CFEDFFB8
:10238000FBD700EE0AF00B0EE80403E3E5CFEDFF08
:10239000FBD7E5CFFAFFE5CFF4FFE5CFF3FFE5CFBD
:1023A000F5FFE5CFF7FFE5CFF6FFE5CFEAFFE5CF95
:1023B000E9FFE5CFDAFF1100D8CFE4FFE0CFE4FF7B
:1023C000E46EDACFE4FFE2CFDAFFE652E552E5CF82
:1023D000DAFFE550E5CFE0FFE5CFD8FF100007D8E2
:1023E000E8EC0AF09390939213D8FED712000F0EE8
:1023F000C11202D81CEF08F0F00E8C16E00E9516F4
:102400009388938A0001B56BB66BB76BB86B1200FB
:10241000D9CFE6FFE1CFD9FF040EE1260001B92BA9
:10242000000EBA23FE0ED880B955FF0EBA5501E34F
:1024300097D0B96BBA6BBB2B000EBC23BC3504E242
:10244000BB51FF08030EBC5502E2BB6BBC6B0E0E0A
:10245000BB150B6E0C6A040ED8900B360C36E804D4
:10246000FBE10BC0DEFF0CC0DDFFFF0E0001BB1562
:102470000B6E030EBC150C6E030ED8900C320B3293
:10248000E804FBE1020E0BC0DBFF030E0CC0DBFF18
:1024900005018099809B809D809F808180838095AD
:1024A0008087B00E816F070E826F020EDBCF83F53F
:1024B000040EE66E800EE66E050EE66E010EE66E0A
:1024C000E66E97EC09F00B6E050EE15E0B50F3CF54
:1024D000B5F0F4CFB6F005018099809B809D809F78
:1024E0008081808380958087B00E816F270E826FF8
:1024F000DFCF83F50001B551B61102E1000E08D01F
:10250000B5C0E9FFB6C0EAFFEF50800B01E0010E55
:10251000000901E0EFD78A72040EE66E800EE66EC7
:10252000050EE66E010EE66EE66E97EC09F00B6E98
:10253000050EE15E0B50F3CFB5F0F4CFB6F000011D
:10254000B551B61102E1000E08D0B5C0E9FFB6C022
:10255000EAFFEF50800B01E0010E000901E0EFD728
:10256000200E0001E76E6019E8AE02D0E73402D019
:10257000E750605D03E36D50020B01E059D00001AC
:10258000B751B81102E1000E08D0B7C0E9FFB8C0DA
:10259000EAFFEF50800B01E0010E000949E18C7861
:1025A000400EE66E000EE66E050EE66EE66A010E61
:1025B000E66E97EC09F00B6E050EE15E0B50F3CF63
:1025C000B7F0F4CFB8F00501806B816B826B836B41
:1025D0008099809B809D809F80818093809580875B
:1025E000900E816F826B7F0E836F0001B551B61123
:1025F00002E1000E08D0B5C0E9FFB6C0EAFFEF5017
:10260000800B01E0010E000913E1040EE66E800E5E
:10261000E66E050EE66E010EE66EE66E97EC09F0CC
:102620000B6E050EE15E0B50F3CFB5F0F4CFB6F0B4
:10263000040EE15C02E2E16AE552E16EE552E7CFA9
:10264000D9FF12000001C251C31104E1100EC26F84
:10265000270EC36FC207000EC35B6DA20AD0C25122
:10266000C31106E18C788CA802D08A8201D08A92AC
:102670002ED00001605103E18C988A9228D0600529
:1026800003E18C888A8223D0020E605D03E18C888E
:102690008A921DD0040E605D03E18C988A8217D067
:1026A000100E605D07E10001C251C31102E18C7898
:1026B0008A920DD0200E605D0AE10001C251C31163
:1026C00006E18C788CA802D08A9201D08A8212000E
:1026D000120012000001A25101E0A2071200120034
:1026E000120012001E0EE66E010EE66E60EC09F09E
:1026F000E552E552400EE66E000EE66E050EE66E01
:10270000E66A010EE66E97EC09F00B6E050EE15ECF
:102710000B50F3CFB7F0F4CFB8F0120000018D05E5
:1027200020E100018E051DE1A09AD3DF6D9200012A
:102730008E6B0001100EB36F0E0EB46FB307000E58
:10274000B45BB351B411FAE16D84080EB36F070E98
:10275000B46FB307000EB45BB351B411FAE16D94DA
:10276000A08A1200D9CFE6FFE1CFD9FFFD0EDBCF63
:1027700006F0FE0EDBCF07F0050E061801E107504C
:1027800039E0E868061802E17F0E071831E0030E11
:10279000061801E107502AE0020E061801E1075071
:1027A00023E0010E061801E107501CE0740E061824
:1027B00001E1075015E0750E061801E107500EE023
:1027C000730E061801E1075007E0720E061801E1CA
:1027D000075001E010D00FD07DDF0DD079DF0BD096
:1027E00078DF09D07FDF07D07CDF05D079DF03D029
:1027F00076DF01D000D0010E00D0E552E7CFD9FF3F
:022800001200C4
:0E2802001201000200000008D8045900020074
:102810000102000109026500020100C03209040042
:102820000000010100000924010001090001010963
:102830000401000201030000072401000141000619
:1028400024020101000624020202000924030103FC
:10285000010201000924030204010101000905012C
:102860000240000000000525010101090581024028
:10287000000000000525010103040309042C0341A5
:1028800000750074006F006D0061006E002000454F
:1028900000660066006F0072007400730020005331
:1028A00000540048004C004D0012034D004600301B
:1028B0000038002D00480055004900142879287D73
:0328C00028A9281C
:0C28C4002A0EF66E100EF76E000EF86E75
:1028D00000010900F550C96F0900F550CA6F03E106
:1028E000C96701D03DD00900F550C46F0900F5500B
:1028F000C56F0900F550C66F09000900F550E96E73
:102900000900F550EA6E090009000900F550C76F8B
:102910000900F550C86F09000900F6CFCBF0F7CFDA
:10292000CCF0F8CFCDF0C4C0F6FFC5C0F7FFC6C0ED
:10293000F8FF0001C75302E1C85307E00900F55052
:10294000EE6EC707F8E2C807F9D7CBC0F6FFCCC0D8
:10295000F7FFCDC0F8FF0001C907000ECA5BBFD763
:02296000120063
:0E296200FE0EE3CFE9FFFF0EE3CFEAFFE9CF61
:10297000F3FFEACFF4FFFB0EE35003E1FC0EE3505C
:1029800009E0FB0EE30602E2FC0EE306FD0EE35057
:06299000EE6EF1D712000B
:0A299600000EF36E00EE00F0080ED4
:1029A00001D81200EA6002D0EE6AFCD7F350E96069
:0629B0001200EE6AFCD7E4
:0A29B60013EE00F023EE00F0F86AC3
:1029C0000A9C62EC14F0E9EC14F0EFEC11F0FBD788
:0229D0001200F3
:0229D2001200F1
:0C29D40000000000000000000000003CBB
:0329E000010000F3
:020000040030CA
:0100000024DB
:010001000EF0
:010002003FBE
:010003001EDE
:010005008179
:010006008178
:010008000FE8
:01000900C036
:01000A000FE6
:01000B00E014
:01000C000FE4
:01000D0040B2
:00000001FF
