:020000040000FA
:060000008CEF04F0120079
:020006001200E6
:060008000FEF00F01200F2
:08001800C7EF00F01200DACF7F
:10002000E4FFE2CFDAFFE9CFE4FFEACFE4FFE652F4
:10003000D9CFE6FFE1CFD9FF050EE126020EDB6A3C
:10004000030EDB6A040EDB6AF2A26AD00001896B40
:100050008A6B8B6B8C6B956881A2FED78350026E86
:1000600081B2FED7956A22508C6E040E0001895D24
:10007000000E8A59000E8B59000E8C5915E281A290
:10008000FED70001892B000E8A238B238C23220E9E
:100090008925E96E000E8A21EA6EEF508C6E81B2DE
:1000A000FED781B001D0E1D79568080E0001895DC7
:1000B000000E8A59000E8B59000E8C5923E281A242
:1000C000FED789C04AF08AC04BF08BC04CF08CC080
:1000D0004DF0030E4A5E000E4B5A4C5A4D5A020E1A
:1000E0004A24E96E000E4B20EA6E83CFEFFF000139
:1000F000892B000E8A238B238C2381B2FED781B0FB
:1001000001D0D3D7080E0001891905E18A5103E116
:100110008B5101E18C5103E10001010EBA6FF292A3
:100120009EA61CD00001B95113E0C5BC09D0B8513E
:10013000EA6AA10FE96E000EEA22010EEF6E07D007
:10014000B851EA6AA10FE96E000EEA22EF6AB96BB4
:10015000C6AC03D0C69C030EB56F9E96F0B2F0926B
:10016000F2A404D00001010EBB6FF294050EE15C15
:1001700002E2E16AE552E16EE552E7CFD9FFE552CE
:10018000E5CFEAFFE5CFE9FFE5CFDAFF1100D8CFF1
:10019000E4FFE0CFE4FFE46EDACFE4FFE2CFDAFF82
:1001A000E652E552E5CFDAFFE550E5CFE0FFE5CFD7
:0401B000D8FF100064
:0C01B40001005C090000AA00000014001B
:0201C00000003D
:0E01C200D9CFE6FFE1CFD9FF020EE126DE6ABB
:1001D000DD6A1F0EC51403E1C750040B11E0DF2ACE
:1001E000010E01E3DB2ADECF42F0DDCF43F04334E2
:1001F00004E242500A08000E435401E201D0E9D75C
:10020000020EE15C02E2E16AE552E16EE552E7CFFF
:10021000D9FF1200D9CFE6FFE1CFD9FF090EE126C1
:10022000DF6A010EDB6A020EDB6A030EDB6A040E74
:10023000DB6A2C0EF36E050EF3CFDBFF010EF36EBF
:10024000060EF3CFDBFF070EDB6A080EDB6A54DA1B
:100250008D908D928D940001916B926B936B946B4A
:10026000300E0001915D750E9259000E9359000EEB
:10027000945907E20001912B000E922393239423BB
:10028000EFD78A980001BA5101E1C4D1025008E1C8
:100290008A78050E0001BC27000E0001BD238D7079
:1002A0000001B56B04000250DF6E000EDB94DB969C
:1002B000DB98DB9ADB9CDB9E0001896B8A6B8B6B86
:1002C0008C6B020E0001895D000E8A59000E8B595D
:1002D000000E8C5901E3BDD0DF50040DF3CF42F086
:1002E000436A446A456A010E1F0B89C046F08AC002
:1002F00047F08BC048F08CC049F007E0D8904636F4
:10030000473648364936E806F9E146504226475016
:1003100043224850442249504522010E42C0DBFF8F
:10032000010EDB407F0B0001B86F4BDFC580C5B00D
:10033000FED747DF0001010EB96F010EDB50E00F61
:10034000E66EF0EC03F0E552000900E13ADF89C007
:1003500042F08AC043F08BC044F08CC045F0D89086
:100360004236433644364536422A000E4322000EBA
:100370004422000E4522020E4224E96E000E432064
:10038000EA6EEF50E66EF0EC03F0E5521ADF89C03A
:1003900042F08AC043F08BC044F08CC045F0D89046
:1003A0004236433644364536020E4226000E43227C
:1003B000000E4422000E4522020E4224E96E000E79
:1003C0004320EA6EEF50E66EF0EC03F0E552F9DE02
:1003D000C584C5B4FED789C042F08AC043F08BC043
:1003E00044F08CC045F0D89042364336443645360A
:1003F000422A000E4322000E4422000E4522020E25
:100400004224E96E000E4320EA6EEF6A89C042F092
:100410008AC043F08BC044F08CC045F0D89042367F
:10042000433644364536020E4226000E4322000E65
:100430004422000E4522020E4224E96E000E4320A3
:10044000EA6EEF6A0001892B000E8A238B238C232E
:1004500038D70228DF6E000EDB94DB96DB98DB9A40
:10046000DB9CDB9E0001896B8A6B8B6B8C6B020EB5
:100470000001895D000E8A59000E8B59000E8C59BF
:1004800001E3C6D089C036F08AC037F08BC038F09F
:100490008CC039F0020E3B6E3C6A3D6A3E6A29EC24
:1004A00004F032C0E9FF33C0EAFF220EE926000E55
:1004B000EA22EF6A89C042F08AC043F08BC044F060
:1004C0008CC045F0D8904236433644364536422AF1
:1004D000000E4322000E4422000E4522220E42242A
:1004E000E96E000E4320EA6EEF6A0001B76BDF5041
:1004F000040DF3CF42F0436A446A456A010E1F0BB4
:1005000089C046F08AC047F08BC048F08CC049F0E3
:1005100007E0D8904636473648364936E806F9E1CE
:1005200046504226475043224850442249504522D3
:10053000010E42C0DBFF010EDB407F0B0001B86FF4
:100540000001B851EA6AA10FE96E000EEA22EF50ED
:1005500058E037DEC580C5B0FED733DE010EDB5074
:10056000E10FE66EF0EC03F0E552000947E129DE09
:100570009AEC04F0E66E89C036F08AC037F08BC082
:1005800038F08CC039F0020E3B6E3C6A3D6A3E6A20
:1005900029EC04F032C0E9FF33C0EAFF220EE9265D
:1005A000000EEA22E552E750EF6EC59AC588C5B83D
:1005B000FED79AEC04F0E66E89C042F08AC043F0A0
:1005C0008BC044F08CC045F0D89042364336443658
:1005D0004536422A000E4322000E4422000E4522D8
:1005E000220E4224E96E000E4320EA6EE552E750E7
:1005F000EF6EC58AC588C5B8FED7E3DDC584C5B42E
:10060000FED70001892B000E8A238B238C232FD742
:100610000001BA6B0001BB5116E00001B02B000EC7
:10062000B12300011E0ED880B055000EB1550BE26B
:100630000001B25102E0000E01D0010E0001B26FC4
:100640000001B06BB16B1ED6090EE15C02E2E16AFB
:10065000E552E16EE552E7CFD9FF1200D9CFE6FFB0
:10066000E1CFD9FF040EE126DE6ADD6AE80EF36E03
:10067000020EF3CFDBFF030EF36EF3CFDBFF0F0EA3
:10068000C614080804E00F0EC6140B0801E1C58665
:10069000C7B020D0DF2A010E01E3DB2ADECF42F013
:1006A000DDCF43F0020EDBCF44F0030EDBCF45F08D
:1006B00045504318E8AE02D0433404D04250445C65
:1006C0004350455806E2C584C5B4FED7F368F468C4
:1006D00009D0DED7C950426E436A42C0F3FF43C01F
:1006E000F4FF00D0040EE15C02E2E16AE552E16E43
:1006F000E552E7CFD9FF12000F0E926E070E936EF0
:10070000946A956A966AB46EF28EF28CF28CF28ECE
:10071000F19CF198F288F088949694988B868B8857
:100720008B968B988B868B8894869488E66A080EC5
:10073000E66E61EC04F0E552E552630EC86E9D86EC
:020740001200A5
:0E074200B40EF66E010EF76E000EF86E00019A
:100750000900F550C36F0900F550C46F03E1C3678A
:1007600001D03DD00900F550BE6F0900F550BF6FB4
:100770000900F550C06F09000900F550E96E090045
:10078000F550EA6E090009000900F550C16F090033
:10079000F550C26F09000900F6CFC5F0F7CFC6F0DB
:1007A000F8CFC7F0BEC0F6FFBFC0F7FFC0C0F8FF6C
:1007B0000001C15302E1C25307E00900F550EE6E9B
:1007C000C107F8E2C207F9D7C5C0F6FFC6C0F7FFF8
:1007D000C7C0F8FF0001C307000EC45BBFD71200FB
:1007E000D9CFE6FFDACFE6FFE1CFD9FFE2CFDAFFDC
:1007F000FD0EDB50C96EC6AE02D0FF0E24D00F0E28
:10080000C61408080FE00F0EC6140B080BE0C688CC
:100810009EA6FED7C750040B03E1C750010B10E0A2
:10082000000E11D00F0EC614080804E00F0EC614F7
:100830000B0809E1C7B0FED7A7EC04F0C5AC02D0A5
:10084000FE0E01D0000EE552E5CFDAFFE7CFD9FF6B
:02085000120094
:0E08520036503B02F3CF32F0F4CF33F03C02CD
:10086000F3503326000EF420346E36503D02F35020
:100870003426000EF420356E36503E02F3503526F5
:1008800037503B02F3503326F4503422000E352209
:1008900037503C02F3503426F450352237503D0295
:1008A000F350352638503B02F3503426F4503522AD
:1008B00038503C02F350352639503B02F350352670
:0208C000120024
:0E08C200D9CFE6FFDACFE6FFE1CFD9FFE2CFD4
:1008D000DAFF3F0EC716C66AC56AFD0EDB50C612A8
:1008E000FC0EDB50C71294869488C68AE552E5CF89
:0808F000DAFFE7CFD9FF120087
:0808F800000EF36E00EE00F0AB
:10090000060E01D81200EA6002D0EE6AFCD7F3505E
:08091000E9601200EE6AFCD759
:0809180015EE00F025EE00F0E1
:10092000F86A419CA1EC03F003EC00F00AEC01F042
:04093000FBD71200DF
:0C0934000F0EC614080804E00F0EC614D5
:0E0940000B0801E1C586C7A0FED7C950120002
:02094E001F0E7A
:0C095000C514FDE1C750040BFAE11200D1
:04095C000000000097
:100960000000000001000000000000000001000085
:00000001FF
