:020000040000FA
:0600000073EF14F0120082
:0600080004EF08F01200F5
:060018000CEF08F01200DD
:0610000073EF14F0120072
:02100600FFFFEA
:0610080044EF11F012009C
:021016000001D7
:0610180056EF11F012007A
:06102A0001000C2900008A
:08103000A20000000A0000000C
:08103800D9CFE6FFE1CFD9FF9B
:10104000E652A09A6A6A686A706A010EE66EE66AFB
:10105000E66A710EE66E0F0EE66E32EC14F00B6E61
:10106000050EE15E0B50160E6F6E9F0E6B6E7B0EC3
:10107000696EDF6ADF500B6E0C6A080E0B5C000EA7
:101080000C5810E2DF50040DF3CFE9FFF4CFEAFF74
:10109000000EE926040EEA22EE6AEE6AEE6AEE6AB5
:1010A000DF2AE8D76D8C6E6A6D986D9C68A607D0B4
:1010B00068960001736B786B796B7A6BF7D70001D8
:1010C000010E8A6F8B6F8C6B8D6B806BDF6A020EEB
:1010D000DF5C26E2EA6ADF34FE0BEA36E96E6B0E6D
:1010E000E926000EEA22EE6AED6AEA6ADF34FE0BB8
:1010F000EA36E96E670EE926000EEA22EE6AED6A2C
:10110000DF50EA6A840FE96E000EEA22EF6ADF50D0
:10111000EA6A860FE96E000EEA22EF6ADF2AD7D765
:101120000001080E6B6F040E6C6F160E706E0401DA
:10113000200E026F040E036F080E016F840E006F05
:101140000001616B606BE552E552E7CFD9FF1200F9
:10115000D9CFE6FFE1CFD9FFE652000160510FE1A0
:101160006D6A696A160E6F6E9F0E6B6E7B0E696EEE
:101170006DB602D06D86FCD70001010E606F600570
:1011800008E16DBA06D0686A696A69806988020EEA
:10119000606F6850040B06E06950040B03E068942C
:1011A00083EC0EF06DB258D06850010B08E0695026
:1011B000010B05E041DF0001040E606F689068508C
:1011C000100B06E06950100B03E06EEC0EF068980F
:1011D00068AC19D069AC0FD0010EE66EE66A000E5D
:1011E000E66EE66A730EE66EE66A7EEC12F00B6E51
:1011F000060EE15E0B50689C0001885101E08807F3
:10120000885101E1DFD96850200B05E06950200BBF
:1012100002E055EC0EF06850020B13E06950020B2F
:1012200010E0010EE66EE66A000EE66EE66AE6681B
:101230007F0EE66E7EEC12F00B6E060EE15E0B503A
:101240006A6A040E0001E76E6019E8AE02D0E73466
:1012500002D0E750605D02E2A19A39D069A636D08B
:10126000DF6A040EDF5C32E268A630D06CCF81F01A
:1012700000018151780BE842E842E842826F6896AB
:1012800081B506D08251EA6A860FE96E000E05D05C
:101290008251EA6A840FE96E000EEA22EF708251F1
:1012A00003E19AEC0EF010D0000EE66EE66A810EB5
:1012B000E66E000EE66E720EE66EE66A7EEC12F0E8
:1012C0000B6E060EE15E0B50DF2ACBD7A19AE552DA
:1012D000E552E7CFD9FF1200D9CFE6FFE1CFD9FF22
:1012E000020EE126FD0EDBA407D0E66AFE0EDBCF80
:1012F000E6FFF7D9E552E552FD0EDBA208D0010E5C
:10130000E66EFE0EDBCFE6FFECD9E552E552FE0EAF
:10131000DB500C6A700F0B6E0F0E0C220BC0DEFF41
:101320000CC0DDFFDECFE9FFDDCFEAFFFD0EDBCF36
:10133000EFFF020EE15C02E2E16AE552E16EE55286
:10134000E7CFD9FF1200D9CFE6FFE1CFD9FF020ED8
:10135000E126FD0EDB500AE0FE0EEA6ADB34FE0BEE
:10136000EA36E96E6B0EE926000E09D0FE0EEA6A37
:10137000DB34FE0BEA36E96E670EE926000EEA2240
:10138000EECFDEFFEDCFDDFFD9CFE9FFDACFEAFF09
:10139000EE50ED1003E1F36AF46A44D0DECFE9FFCA
:1013A000DDCFEAFF020EE926000EEA22FB0EDBCFBC
:1013B000EEFFFC0EDBCFEDFFDECFE9FFDDCFEAFF76
:1013C000EE52FA0EDBCFEFFF400EDECFE9FFDDCFAE
:1013D000EAFFE850EF16880EDECFE9FFDDCFEAFF27
:1013E000E850EF12FD0EDB500AE0FE0EEA6ADB3435
:1013F000FE0BEA36E96E6B0EE926000E09D0FE0EF2
:10140000EA6ADB34FE0BEA36E96E670EE926000E67
:10141000EA22EF74DECF0BF0DDCF0CF00BC0F3FF50
:101420000CC0F4FF020EE15C02E2E16AE552E16EFB
:10143000E552E7CFD9FF1200D9CFE6FFE1CFD9FFC0
:10144000020EE126FE0EDB5020E165C0E9FF66C01A
:10145000EAFFEE52080EEF6E65C0E9FF66C0EAFFD4
:10146000020EE926000EEA22200EEE6E040EED6E4C
:1014700065C0E9FF66C0EAFF8C0EEF6E6BC0E9FF46
:101480006CC0EAFF840EEF6E3BD0FD0EDB50E8240B
:101490000D6EFE0EDB50040DF3500D24040DF3CF42
:1014A0000BF0F4CF0CF0000E0B26040E0C220BC038
:1014B000DEFF0CC0DDFF840EDECFE9FFDDCFEAFFEB
:1014C000E850EF12FD0EDB50E8240D6EFE0EDB50EF
:1014D000040DF3500D24010F040DF3CF0BF0F4CFE6
:1014E0000CF0000E0B26040E0C220BC0DEFF0CC00D
:1014F000DDFF840EDECFE9FFDDCFEAFFE850EF121B
:10150000020EE15C02E2E16AE552E16EE552E7CFEC
:10151000D9FF1200D9CFE6FFE1CFD9FF6DA84ED099
:10152000FE0EEA6ADB34FE0BEA36E96E6B0EE92644
:10153000000EEA22EE50EFCFEAFFE96E400EEE1603
:10154000EE6AEE6AEE6AFE0EEA6ADB34FE0BEA36FB
:10155000E96E6B0EE926000EEA22EE50EFCFEAFFAD
:10156000E96EEE7CFE0EEA6ADB34FE0BEA36E96ECB
:101570006B0EE926000EEA22EF74400E0B6EFE0E93
:10158000EA6ADB34FE0BEA36E96E6B0EE926000EE2
:10159000EA22EE50EFCFEAFFE96E0B50EF16FE0E97
:1015A000EA6ADB34FE0BEA36E96E6B0EE926000EC2
:1015B000EA22EE50EFCFEAFFE96EEF7CE552E7CF8B
:1015C000D9FF120000018A514DE1010E8A6F8B5143
:1015D00049E1010E8B6F020E705D0DE16BC0E9FFFA
:1015E0006CC0EAFFEE52EF6A6BC0E9FF6CC0EAFF25
:1015F000C80EEF6E1200700535E1836B63C0E9FF22
:1016000064C0EAFFEE52080EEF6E63C0E9FF64C0EB
:10161000EAFF020EE926000EEA22200EEE6E040E0C
:10162000ED6E63C0E9FF64C0EAFF840EEF6E010E49
:10163000836F65C0E9FF66C0EAFFEE52080EEF6EE9
:1016400065C0E9FF66C0EAFF020EE926000EEA2245
:10165000200EEE6E040EED6E65C0E9FF66C0EAFF77
:10166000800EEF6E120000018C6B8D6B020E705DB0
:1016700018E165C0E9FF66C0EAFFEE52080EEF6EA2
:1016800065C0E9FF66C0EAFF020EE926000EEA2205
:10169000280EEE6E040EED6E65C0E9FF66C0EAFF2F
:1016A0001DD074510401265D0001755104012759B4
:1016B00004E226C474F027C475F0CAD86BC0E9FFF1
:1016C0006CC0EAFF020EE926000EEA22280EEE6E3A
:1016D000040EED6E6BC0E9FF6CC0EAFFC80EEF6E42
:1016E0001200D9CFE6FFE1CFD9FF020EE126000EAE
:1016F000DE6E040EDD6EFD0EDB50E8240D6EFE0E78
:10170000DB50040DF3500D24040DF4CF0CF0D9CFB1
:10171000E9FFDACFEAFFF350EE260C50ED22DECFE0
:10172000E9FFDDCFEAFFEF9EFD0EDB500AE1FE0E82
:10173000EA6ADB34FE0BEA36E96E670EE926000E34
:1017400009D0FE0EEA6ADB34FE0BEA36E96E6B0E58
:10175000E926000EEA22DECFEEFFDDCFEDFFDECF81
:10176000E9FFDDCFEAFFEF9CDECFE9FFDDCFEAFF47
:10177000040EE926000EEA22EF8C020EE15C02E282
:10178000E16AE552E16EE552E7CFD9FF12006D98AC
:10179000000173BF2BD078AF09D0020E706F8D514E
:1017A00001E161DF00018B6B8A6B120065C0E9FF0C
:1017B00066C0EAFFEE52080EEF6E65C0E9FF66C034
:1017C000EAFF020EE926000EEA22200EEE6E040E5B
:1017D000ED6E65C0E9FF66C0EAFF8C0EEF6E6BC070
:1017E000E9FF6CC0EAFF840EEF6E1200040120AF27
:1017F0000DD00001010E706F8C5101E134DF00014A
:101800008B6B8A6B895123E1E2EF0AF00001020E33
:10181000706F65C0E9FF66C0EAFFEE52080EEF6E1A
:1018200065C0E9FF66C0EAFF020EE926000EEA2263
:10183000200EEE6E040EED6E65C0E9FF66C0EAFF95
:10184000840EEF6E8B6B8A6B895101E1BBDE120057
:10185000D9CFE6FFE1CFD9FFE652080EDF6E0001D7
:10186000745D000E75590AE274C0DFFF6F5102E12A
:10187000010E03D06F0502E1020E6F6FDF500C6A9C
:10188000E850745D746F0C507559756F6BC0E9FF4B
:101890006CC0EAFFEE52DFCFEFFF280E7D6F040E23
:1018A0007E6F73B118D0DF502DE071C0F6FF72C0AB
:1018B000F7FF712B000E72230800F550E66E7DC015
:1018C000E9FF7EC0EAFF7D2B000E7E23E552E75044
:1018D000EF6EDF06E8D7DF5015E071C0E9FF72C098
:1018E000EAFF712B000E7223EF50E66E7DC0E9FF18
:1018F0007EC0EAFF7D2B000E7E23E552E750EF6E9F
:10190000DF06E9D7E552E552E7CFD9FF1200D9CF7C
:10191000E6FFE1CFD9FF020EE12663C0E9FF64C014
:10192000EAFFEE52EFCFDFFFDFCF0BF00B500001ED
:10193000795D000E7A5902E279C0DFFFDF500B6E4D
:101940000C6AE850795D796F0C507A597A6F010E04
:10195000DB6ADF50F36E010EDBCFF4FFF350F45C73
:1019600016E2010EDB50EA6A280FE96E040EEA2245
:10197000EF50E66E76C0E9FF77C0EAFF762B000EE7
:101980007723E552E750EF6E010EDB2AE2D7000E17
:10199000D8807955000E7A5527E265C0E9FF66C008
:1019A000EAFFEE52080EEF6E65C0E9FF66C0EAFF7F
:1019B000020EE926000EEA22280EEE6E040EED6EEF
:1019C00063C0E9FF64C0EAFFEF50400B06E165C069
:1019D000E9FF66C0EAFFC80E05D065C0E9FF66C032
:1019E000EAFF880EEF6E28D065C0E9FF66C0EAFF07
:1019F000EE52080EEF6E65C0E9FF66C0EAFF020E08
:101A0000E926000EEA22200EEE6E040EED6E65C091
:101A1000E9FF66C0EAFF840EEF6E7B517C1107E0A0
:101A200005D07CC0FAFF00017B51F96EFADF00019E
:101A3000789F895101E1C6DD020EE15C02E2E16AB4
:101A4000E552E16EE552E7CFD9FF1200D9CFE6FFAC
:101A5000E1CFD9FFE6520001738F010EE66EE66A10
:101A6000E66A710EE66E0F0EE66E32EC14F00B6E47
:101A7000050EE15E0B50200EE66EE66AE66A000E89
:101A8000E66E040EE66E32EC14F00B6E050EE15EAF
:101A90000B506D8CDF6A020EDF5C10E2DF50EA6AE9
:101AA000840FE96E000EEA22EF6ADF50EA6A860FC1
:101AB000E96E000EEA22EF6ADF2AEDD7010EE66E2C
:101AC000E66AE66A620EE66E000EE66E32EC14F02E
:101AD0000B6E050EE15E0B506D9C0001080E6B6FE6
:101AE000040E6C6F000E636F040E646F63C065F0CC
:101AF000666F22C461F0615102E1100E12D0010E36
:101B0000E66EE66A610EE66E000EE66E010EE66EA9
:101B1000E66A7EEC12F00B6E060EE15E0B500001E1
:101B2000200E606FE552E552E7CFD9FF1200800E1C
:101B30000401205D58E10001C00E736F04012351C0
:101B4000030A2FE0010A09E0030A4BE10001520EEB
:101B5000716F260E726F120E3ED02251F66EF76A2A
:101B6000D890F636F736F50EF626260EF72209003F
:101B7000F5CF71F00A00F5CF72F0020E0001F76A9E
:101B80007125F66E7251F7220800F5CF74F0030E3E
:101B9000F76A7125F66E7251F7220800F5CF75F0DD
:101BA0001200030E225D1AE22251F66EF76AD890F7
:101BB000F636F736F70EF626260EF7220900F5CF91
:101BC00071F00A00F5CF72F071C0F6FF72C0F7FF36
:101BD0000800F5500001746F756B12000001736B03
:101BE00012000001736B1200D9CFE6FFE1CFD9FFDD
:101BF000020EE1260401286B296B20511F0B020AFB
:101C000011E0030A0CE0010A3CE10001738F0401BA
:101C1000288100017F0535E10401288332D00001CD
:101C2000738F2FD00001738F040124BF0BD0245178
:101C30000F0BE96EEA6AD890E936EA36670EE926B4
:101C4000000E0AD024510F0BE96EEA6AD890E936EB
:101C5000EA366B0EE926000EEA22EECFDEFFEDCF6C
:101C6000DDFFDECFE9FFDDCFEAFFEF50800B09E0BB
:101C7000DECFE9FFDDCFEAFFEF50040B02E0010EFB
:101C8000286F000173AF07D0280E716F040E726FBA
:101C90007381020E746F020EE15C02E2E16AE552AA
:101CA000E16EE552E7CFD9FF120070A015D063C0F6
:101CB000E9FF64C0EAFFEF5080080DE16BC0E9FF67
:101CC0006CC0EAFFEF50840806E163C0E9FF64C01E
:101CD000EAFF8C0EEF6E7090689A12006984689823
:101CE0006D820001010E806F000EE66EE66AE66E00
:101CF000E66A750EE66EE66A7EEC12F00B6E060E74
:101D0000E15E0B5012000001806B000EE66EE66A89
:101D1000E66EE66A740EE66EE66A7EEC12F00B6E14
:101D2000060EE15E0B506D92699468A402D068942F
:101D3000FCD71200D9CFE6FFE1CFD9FFE652000170
:101D40002D0E886FFD0E811553E17E0E8115E84042
:101D50007F0B040DF3CF63F0F4CF64F0000E632724
:101D6000040E642363C065F064C066F0657563C0EB
:101D7000E9FF64C0EAFFEF503C0BE842E8420D087F
:101D800035E1DF6A080EDF5C23E263C0E9FF64C06F
:101D9000EAFF020EE926000EEA22EE50EFCFEAFF3C
:101DA000E96EEF50E66EDF50EA6A200FE96E040E2E
:101DB000EA22E552E750EF6E63C0E9FF64C0EAFF34
:101DC000020EE926000EEA22EE2AEF22DF2ADAD7F7
:101DD00063C0E9FF64C0EAFF020EE926000EEA22B2
:101DE000200EEE6E040EED6E0DD807D03AD805D059
:101DF000FD0E8115040801E159D8E552E552E7CFFF
:101E0000D9FF120000016F6B896B8C6B8D6B836B3C
:101E1000706B6BC0E9FF6CC0EAFFEF9E6B756BC027
:101E2000E9FF6CC0EAFFEF9E6B7565C0E9FF66C015
:101E3000EAFFEF9E736B746B756B786B796B7A6BE3
:101E40008CD8000EE66EE66AE66EE66A030EE66E73
:101E5000E66A7EEC12F00B6E060EE15E0B50C7EFE9
:101E60000BF0020E0001705D02E187EF0CF0706B69
:101E700083511AE165C0E9FF66C0EAFFEE52080E21
:101E8000EF6E65C0E9FF66C0EAFF020EE926000EAC
:101E9000EA22200EEE6E040EED6E65C0E9FF66C00C
:101EA000EAFF8C0EEF6E1200836B1200D9CFE6FFB3
:101EB000E1CFD9FFE6526BC0E9FF6CC0EAFFEF50FB
:101EC000400B01E0010EDF6E00016B75080E605DD6
:101ED00008E122C46EFF6E5002E0100E01D0040E25
:101EE000606F700526E16BC0E9FF6CC0EAFF020E6F
:101EF000E926000EEA22280EEE6E040EED6EA8DC36
:101F0000020E00016F5D06E16BC0E9FF6CC0EAFFE5
:101F1000840E0DD0DF5006E16BC0E9FF6CC0EAFF14
:101F2000C80E05D06BC0E9FF6CC0EAFF880EEF6EEB
:101F30000FD078AF0CD07B517C1107E005D07CC06E
:101F4000FAFF00017B51F96EFADF0001789F706B98
:101F5000E552E552E7CFD9FF120004012051600B92
:101F6000E842E842E842E842E842000901E01200A3
:101F700021510C0A50E00B0A3FE00C0A31E0010A43
:101F800022E00B0A1EE0020A1CE0030A18E0080A1D
:101F900010E0010A0CE00F0A08E0030A01E0120059
:101FA0000001738F080E606F120097EF0DF026EF9F
:101FB0000DF00001610E716F000E726F0CD0F4EF26
:101FC0000DF00CEF10F024510001716F726B620E76
:101FD0007127000E72237381010E746F738F1200CC
:101FE0000001738F04012451EA6A620FE96E000E4A
:101FF000EA2222C4EFFF1200000EE66EE66AE66EE9
:10200000E66A020EE66EE66A7EEC12F00B6E060ED3
:10201000E15E0B5012001200D9CFE6FFE1CFD9FFED
:10202000050EE1260401220510E120511F0B0009D5
:102030000CE10001738F030E0401215D04E1000136
:10204000010E7F6F02D000017F6B0401225101E07D
:1020500011D120511F0B020801E00CD124510F0BAC
:10206000000901E107D124510F0B010801E202D15F
:10207000200E0001605D01E0FDD0738F040124BFDC
:1020800016D024510F0BE96EEA6AD890E936EA3689
:10209000670EE926000EEA22EECFDEFFEDCFDDFF70
:1020A00024510F0BEA6A860FE96E000E15D02451F9
:1020B0000F0BE96EEA6AD890E936EA366B0EE9262C
:1020C000000EEA22EECFDEFFEDCFDDFF24510F0B35
:1020D000EA6A840FE96E000EEA22020EEFCFDBFF00
:1020E000D950020FE96EDACFEAFFEF50010B03E19E
:1020F000000EDF9401D0DF8424BF0BD024510F0BDE
:10210000E96EEA6AD890E936EA36670EE926000EEB
:102110000AD024510F0BE96EEA6AD890E936EA3604
:102120006B0EE926000EEA22DECFEEFFDDCFEDFFDB
:10213000030E215D20E1DECFE9FFDDCFEAFFEF50A6
:10214000800B11E024BF07D024510F0BEA6A860FE1
:10215000E96E000E06D024510F0BEA6A840FE96E77
:10216000000EEA22EF82840EDECFE9FFDDCFEAFF28
:10217000E850EF127FD0DF74DECFE9FFDDCFEAFF5A
:10218000EF50800B1BE0DECFE9FFDDCFEAFFEF9ED3
:10219000DECFE9FFDDCFEAFFEF8C020EE66EE66AE6
:1021A000DECFE6FFDDCFE6FF050EE66EE66A7EECEB
:1021B00012F00B6E060EE15E0B5005D0DECFE9FF8C
:1021C000DDCFEAFFEF8CDF74D950020FE96EDACF72
:1021D000EAFFEF50020B07E1DECFE9FFDDCFEAFFB8
:1021E000EF50800B2BE0040124BF07D024510F0BCC
:1021F000EA6A860FE96E000E06D024510F0BEA6AD8
:10220000840FE96E000EEA22EF923B0E0B6EDECFDA
:10221000E9FFDDCFEAFFE850EF16020EE66EE66A50
:10222000DECFE6FFDDCFE6FF050EE66EE66A7EEC6A
:1022300012F00B6E060EE15E0B5007D03B0EDECFA8
:10224000E9FFDDCFEAFFE850EF16040124510F0B40
:102250000C6A700F0B6E0F0E0C22030E0BC0DBFF0F
:10226000040E0CC0DBFF030EDBCFE9FF040EDBCF57
:10227000EAFFEF90050EE15C02E2E16AE552E16EF1
:08228000E552E7CFD9FF12007F
:08228800DACFE4FFE6529EA04C
:1022900007D0B00ECF6ECE6A9E900001010EA96FDE
:1022A0009EB29E92E552E5CFDAFF1100D8CFE4FF4F
:1022B000E0CFE4FFE46EDACFE4FFE652E552E5CF8B
:1022C000DAFFE550E5CFE0FFE5CFD8FF1000D9CF2A
:1022D000E6FFE1CFD9FFE652DF6A4AD893929394A2
:1022E000948E949C9494969096929694936A949ECD
:1022F000939293909384F28EF28CA8EC08F051D8CC
:102300009EAAFBD713EC14F00001A86FF00EA815DD
:10231000F00803E1A8C0DFFFF0D7DF500008EDE2CE
:10232000A451A51102E1000E08D0A4C0E9FFA5C088
:10233000EAFFEF50800B01E0010E0009DEE1DFCF84
:10234000B0F4A8C0B1F4400EE66EB00EE66E040E16
:10235000E66E010EE66EE66EA3EC09F00B6E050E5E
:10236000E15E0B50F3CFA4F0F4CFA5F0DF6AC5D740
:102370000F0EC11202D81CEF08F00001A26BA36B74
:10238000A46BA56B92689368956A946A4E0EE66E8C
:10239000E66A2C0EE66ECEEC13F0E552E552E552FD
:1023A0001200D9CFE6FFE1CFD9FFE652200E00019F
:1023B000E76E6019E8AE02D0E73402D0E750605D06
:1023C00053E36D50020B50E10001A251A31102E151
:1023D000000E08D0A2C0E9FFA3C0EAFFEF50800BB7
:1023E00001E0010E000940E1ACA21BD032C4E6FFBF
:1023F0004CEC14F0E55233C4E6FF4CEC14F0E5521B
:1024000034C4E6FF4CEC14F0E55235C4E6FF4CEC66
:1024100014F0E55236C4E6FF4CEC14F0E55231C43A
:102420008CFF0001A251A31102E1000E08D0A2C04E
:10243000E9FFA3C0EAFFEF50800B01E0010E0009A5
:1024400013E1400EE66E300EE66E040EE66EE66AAE
:10245000010EE66EA3EC09F00B6E050EE15E0B506B
:10246000F3CFA2F0F4CFA3F0E552E552E7CFD9FFC6
:1024700012001200120012001200C8EF12F0120037
:102480001E0EE66E010EE66E6CEC09F0E552E552AA
:10249000400EE66E700EE66E040EE66EE66A010E03
:1024A000E66EA3EC09F00B6E050EE15E0B50F3CF68
:1024B000A2F0F4CFA3F0120000017F051EE100019D
:1024C00080051BE1D7DF6D920001806B0001100ECB
:1024D000966F0E0E976F9607000E975B96519711A9
:1024E000FAE16D84080E966F070E976F9607000E3F
:1024F000975B96519711FAE16D941200D9CFE6FFE0
:10250000E1CFD9FFFD0EDBCF06F0FE0EDBCF07F0EB
:10251000050E061801E1075036E0E868061802E1EA
:102520007F0E07182FE0030E061801E1075028E080
:10253000020E061801E1075021E0010E061801E124
:1025400007501AE0740E061801E1075013E0750EEB
:10255000061801E107500CE0730E061801E1075060
:1025600005E0720E06180FE107500DD084DF0BD086
:1025700080DF09D07FDF07D083DF05D080DF03D085
:102580007CDF01D079DF010EE552E7CFD9FF1200E1
:10259000040120511F0B010801E01200245101E049
:1025A0001200060E215D1BE12351230A18E0010AE7
:1025B0000CE0030A14E10001610511E10001760E4F
:1025C000716F260E726F090E06D00001D90E716F61
:1025D000260E726F1C0E746F756BC00E736F040144
:1025E0002051600BE842E842E842E842E842010834
:1025F00001E0120021510B0A26E0080A19E0090A3D
:1026000011E0080A05E00B0A23E0080A21E01200A5
:102610000001AC0E716F000E726F010E746F756B5E
:10262000C10E0FD00001800E736F23C4ACF01200F6
:102630000001AD0E716F000E726F010E746F756B3D
:10264000810E736F12000001800E736F22C4ADF013
:02265000120076
:0E2652001201000200000008D8043F00020040
:102660000102000109022900010100C03209040031
:10267000000203000000092111010001221C0007D3
:10268000058103400001070501034000010403091F
:10269000042E034100750074006F006D0061006E30
:1026A0000020004500660066006F00720074007331
:1026B0000020005300540048004C004D0000001A58
:1026C000034100750074006F006D0061006E002012
:1026D0000053005400300038000600FF0901A1013A
:1026E00019012940150125407508954081001901FF
:0D26F00029409100C064268D269126BF264A
:0226FE002A0EA2
:10270000F66E100EF76E000EF86E00010900F5501F
:102710009D6F0900F5509E6F03E19D6701D03DD08C
:102720000900F550986F0900F550996F0900F550B0
:102730009A6F09000900F550E96E0900F550EA6E3C
:10274000090009000900F5509B6F0900F5509C6FC6
:1027500009000900F6CF9FF0F7CFA0F0F8CFA1F065
:1027600098C0F6FF99C0F7FF9AC0F8FF00019B538D
:1027700002E19C5307E00900F550EE6E9B07F8E27A
:102780009C07F9D79FC0F6FFA0C0F7FFA1C0F8FFD4
:0C27900000019D07000E9E5BBFD71200E9
:04279C00D9CFE6FFAC
:1027A000DACFE6FFE1CFD9FFE2CFDAFFAC6AAB6A5E
:1027B000FD0EDBB0AC88DBA202D0AC8CAB8CDBB402
:1027C000AC8EDBA602D0AB8801D0AB8ADBB8AC8480
:1027D0009E98DBBAAB86DBAC02D09D8A01D09D9A75
:1027E0009E9ADBAE02D09D8801D09D98FB0EDB50F7
:1027F000AF6EFB0EFC0EDBCF0CF00CC00BF00C6AC6
:102800000B50B06EAC8AAB8E949C948EAC50100B77
:1028100004E0AC50800B01E1948CE552E5CFDAFF87
:06282000E7CFD9FF120012
:0A282600D9CFE6FFDACFE6FFE1CFDD
:10283000D9FFE2CFDAFFE652F20E0001AE17ABACE1
:1028400003D0AE91ABB0AE81ABB4AE85ABB2AE87C8
:10285000AE50DF6EDF50E552E552E5CFDAFFE7CF4D
:04286000D9FF12008A
:0C286400FE0EE3CFE9FFFF0EE3CFEAFF1A
:10287000E9CFF3FFEACFF4FFFB0EE35003E1FC0ED8
:10288000E35009E0FB0EE30602E2FC0EE306FD0E58
:08289000E350EE6EF1D71200D7
:08289800D9CFE6FFDACFE6FF1D
:1028A000E1CFD9FFE2CFDAFFACAC04D0AC900001AD
:1028B000AEB3AC80FD0EDB50AD6EE552E5CFDAFF76
:0628C000E7CFD9FF120072
:0A28C600000EF36E00EE00F0080EA5
:1028D00001D81200EA6002D0EE6AFCD7F350E9603A
:0628E0001200EE6AFCD7B5
:0A28E60013EE00F023EE00F0F86A94
:1028F0000A9C7FEC13F085EC14F067EC11F0FBD729
:022900001200C3
:08290200FCFCFC0004040400CD
:02290A001200B9
:04290C0000000000C7
:06291000000000000000C1
:020000040030CA
:0100000024DB
:010001000EF0
:010002003FBE
:010003001EDE
:010005008179
:010006008178
:010008000FE8
:01000900C036
:01000A000FE6
:01000B00E014
:01000C000FE4
:01000D0040B2
:00000001FF
