:020000040000FA
:06000000B7EF08F012004A
:0A00060001009A11000085010000BE
:0400100015000000D7
:0C001400DACFE4FFE2CFDAFFE9CFE4FF2F
:10002000EACFE4FFE652D9CFE6FFE1CFD9FF040ED5
:10003000E126020EDB6A030EDB6AF2A26BD004003B
:100040000101566B576B586B596B956A01019851BA
:1000500060E123508C6E100E0101565D000E575961
:10006000000E5859000E595917E281A2FED701011E
:10007000562B000E572358235923230E01015625D2
:10008000E96E000E01015721EA6EEF508C6E81B2CD
:10009000FED781B001D0DFD79568200E0101565DF3
:1000A000000E5759000E5859000E595925E281A2E9
:1000B000FED756C169F057C16AF058C16BF059C1FB
:1000C0006CF0100E695E000E6A5A000E6B5A000E3C
:1000D0006C5A130E6924E96E000E6A20EA6E83CF13
:1000E000EFFF0101562B000E57235823592381B2ED
:1000F000FED781B001D0D1D7200E0101561905E1FC
:10010000575103E1585101E1595103E10101010E39
:10011000986FF292F0B2F092F2A404D00101010EB5
:10012000996FF294040EE15C02E2E16AE552E16E3D
:10013000E552E7CFD9FFE552E5CFEAFFE5CFE9FF8A
:10014000E5CFDAFF1100D8CFE4FFE0CFE4FFE46EA3
:10015000DACFE4FFE2CFDAFFE652E552E5CFDAFF8D
:10016000E550E5CFE0FFE5CFD8FF10003E0EC16EB1
:10017000CD96010E926E070E936E090E946E956ADF
:10018000966A0F0EE66E070EE66EAD0EE66E30EC6A
:1001900008F0E552E552E552070EB46EF28EF28C8D
:1001A000F28CF28EF19CF198F288F088D60EE66E11
:1001B0008BEC08F0E5520101496B010E4A6F030E0A
:1001C0004B6F050E4C6F060E4D6F070E4E6F040EF3
:1001D0004F6F020E506F516B1200D9CFE6FFE1CF87
:1001E000D9FF0B0EE126DE6ADD6A080EDB6ABEDF90
:1001F00001015E6B5F6B606B616B300E5E5D750E57
:100200005F59000E6059000E615906E25E2B000E28
:100210005F2360236123F1D70101985101E1C7D029
:10022000070EDB6A080EF36E070EDBCFF4FFF35008
:10023000F45C1FE2070EEA6ADB34FE0BEA36E96E75
:10024000130EE926000EEA22EECF63F0EFCF64F042
:10025000070EEA6ADB34FE0BEA36E96E030EE92686
:10026000000EEA2263C0EEFF64C0EDFF070EDB2A3A
:10027000D9D7060EDB6A080EF36E060EDBCFF4FF4D
:10028000F350F45C01E38ED0060EEA6ADB34FE0B19
:10029000EA36E96E030EE926000EEA22EECF65F09B
:1002A000EFCF66F0FF0E6516030E661665C0E6FF1B
:1002B00066C0E6FFAEDBE552E552F3CF63F0F4CF64
:1002C00064F0FF0ED8806356030E6456060EEA6A89
:1002D000DB34FE0BEA36E96E330EE926000EEA2225
:1002E00063C0EEFF64C0EDFF060EEA6ADB34FE0B6E
:1002F000EA36E96E100EE926010EEA22EECFE6FF9D
:10030000EFCFE6FF17EC06F0E552E552090EF3CF0A
:10031000DBFF0A0EF4CFDBFFFF0EE76E090EDBCF2B
:1003200063F00A0EDBCF64F0E7506316646A060ED2
:10033000EA6ADB34FE0BEA36E96E230EE926000E8C
:10034000EA2263C0EFFF090EDBCF63F00A0EDBCFBA
:1003500064F064C063F0646A6350656E060EEA6A16
:10036000DB34FE0BEA36E96E230EE926000EEA22A4
:10037000EE526550030BF36EFC0EEF14F310EF6EAC
:10038000060EEA6ADB34FE0BEA36E96E230EE92636
:10039000000EEA22EE52CF0EEF142009EF6E060E89
:1003A000DB2A69D70101010E936F986B91DA010185
:1003B000995127E0070EDB6A080EF36E070EDBCFBC
:1003C000F4FFF350F45C08E2070EDBCFE6FFA8D998
:1003D000E552070EDB2AF0D70101996B09D901011B
:1003E000882B000E89231E0ED8808855000E895553
:1003F00008E28A5102E0000E01D0010E8A6F886B7C
:10040000896B0AD70B0EE15C02E2E16AE552E16E0C
:10041000E552E7CFD9FF1200D9CFE6FFE1CFD9FFF0
:10042000040EE1268A888B828B9C8B9E010EDB6AF0
:10043000080EF36E010EDBCFF4FFF350F45C01E322
:10044000B4D0DF6A080EDF5C05E28B9A8B848B9454
:10045000DF2AF8D7DF6A080EDF5C21E2010EDBCF6E
:1004600063F0DF50E824EA6A030FE96E000EEA2227
:10047000EF5063C0E7FFE75204E0E8427F0BE70676
:10048000FCE1E76E030EE7CFDBFFDB50010BE8B0CA
:100490008B8AE8A08B9A8B848B94DF2ADCD7DF6A67
:1004A000080EDF5C05E28B8A8B848B94DF2AF8D7F9
:1004B0008B8C8B9CDF6A080EDF5C05E28B9A8B8449
:1004C0008B94DF2AF8D7DF6A080EDF5C21E2010E89
:1004D000DBCF63F0DF50E824EA6A030FE96E000E19
:1004E000EA22EF5063C0E7FFE75204E0E8427F0BE7
:1004F000E706FCE1E76E030EE7CFDBFFDB50010B05
:10050000E8B08B8AE8A08B9A8B848B94DF2ADCD7A7
:10051000DF6A080EDF5C05E28B9A8B848B94DF2AFE
:10052000F8D78B8C8B9C8B928B82020EDB6A080E29
:10053000F36E020EDBCFF4FFF350F45C1CE282504A
:10054000010B636E020EDB50E824EA6A230FE96EAA
:10055000000EEA226350EF26020EDB50E824EA6A1E
:10056000230FE96E000EEA22EF9EEF468B848B94F8
:10057000020EDB2ADCD78250010B636E010EDB50CA
:10058000E824EA6A230FE96E000EEA226350EF26A0
:10059000010EDB50E824EA6A230FE96E000EEA221E
:1005A000EF9EEF46010EDB2A43D7DF6A080EDF5CC1
:1005B00013E201018551DF5206E0DFCFF3FFE8329D
:1005C0007F0BF306FCE1010BE8B08B8AE8A08B9A65
:1005D0008B848B94DF2AEAD78B8E8B9E040EE15C92
:1005E00002E2E16AE552E16EE552E7CFD9FF12007F
:1005F000D9CFE6FFE1CFD9FFE6528A888B9C8B9E4C
:10060000DF6A080EDF5C13E201018551DF5206E06C
:10061000DFCFF3FFE8327F0BF306FCE1010BE8B01C
:100620008B8AE8A08B9A8B848B94DF2AEAD7DF6AC7
:10063000080EDF5C4AE2070ED880DF54E96EEA6AF2
:10064000D890E936EA36030EE926000EEA22EE5289
:10065000EF500C0BE842E842030802E0000E01D024
:10066000010EE8B08B8AE8A08B9A070ED880DF5481
:10067000E96EEA6AD890E936EA36030EE926000EFA
:10068000EA22EE52EF50400B1CE0070ED880DF54F8
:10069000E96EEA6AD890E936EA36030EE926000EDA
:1006A000EA22EE52EF500C0BE842E842000902E168
:1006B000000E01D0010E01018A15E8B08B8AE8A076
:1006C0008B9A8B848B94DF2AB3D7DF6A080EDF5CAA
:1006D0001EE2070ED880DF54E96EEA6AD890E93648
:1006E000EA36030EE926000EEA22EE52EF500C0B1A
:1006F000E842E842000902E1000E01D0010EE8B034
:100700008B8AE8A08B9A8B848B94DF2ADFD78B8E21
:100710008B9E8B8C8B9CE552E552E7CFD9FF120064
:10072000D9CFE6FFE1CFD9FF080EE126DE6ADD6A08
:10073000FE0EDBCFE6FF8BDBE552FE0EEA6ADB3412
:10074000FE0BEA36E96E030EE926000EEA22EE52AF
:10075000EF500C0BE842E842000911E1FE0EEA6A94
:10076000DB34FE0BEA36E96E220EE926010EEA22A0
:10077000060EEECFDBFF070EEDCFDBFF3CD0FE0E0B
:10078000EA6ADB34FE0BEA36E96E330EE926000E28
:10079000EA22EECF65F0EFCF66F0FE0EEA6ADB34B8
:1007A000FE0BEA36E96E430EE926000EEA2265509A
:1007B000EE24636E6650EE20646E010E0F0B05E0B2
:1007C000D89064326332E806FBE1060E63C0DBFFBB
:1007D000070E64C0DBFFFE0EEA6ADB34FE0BEA366E
:1007E000E96E430EE926000EEA22060EDBCFEEFF8D
:1007F000070EDBCFEDFFFE0EDB28E66ED950040FAF
:10080000E96EDACFEAFFE552E750EE6EED6A040ECC
:10081000DBCF65F0050EDBCF66F06538656AF00B5F
:10082000666E060EDBCF67F0070EDBCF68F0D89060
:1008300067366836D8906736683665506724636EC9
:1008400066506820646E020E63C0DBFF030E64C056
:10085000DBFF8B948A98DE6ADD6ADECF63F0DDCF42
:1008600064F0100E635C000E645827E2020EDBCFCA
:1008700065F0030EDBCF66F0DECF67F0DDCF68F00A
:100880000F0ED8806756000E6856675065C063F03B
:1008900066C064F005E0D89064326332E804FBE19E
:1008A000010E6314E8B08A86E8A08A968B848B9444
:1008B000DF2A010E01E3DB2AD0D78A88080EE15C2B
:1008C00002E2E16AE552E16EE552E7CFD9FF12009C
:1008D000D9CFE6FFE1CFD9FF050EE1260101866BF6
:1008E0008B928B82DF6A080EDF5C27E2EA6ADF34D4
:1008F000FE0BEA36E96E230EE926000EEA22EE52DE
:10090000EF9482A00BD0010EDF5206E0DFCFF3FFA1
:10091000E846FE0BF306FCE1010186138B84EA6ACC
:10092000DF34FE0BEA36E96E230EE926000EEA22DA
:10093000EE52EF968B94DF2AD6D701018751865D60
:100940005CE086518719E76E020EE7CFDBFFDB50D4
:100950008615E76E030EE7CFDBFF020EDB5087152F
:10096000E76E040EE7CFDBFFDF6A080EDF5C45E2CF
:10097000030EDB50010B636E070ED880DF54E96E67
:10098000EA6AD890E936EA36230EE926000EEA2212
:10099000EE526350010BF36EF346F346FB0EEF1479
:1009A000F310EF6E040EDB50010B636E070ED88060
:1009B000DF54E96EEA6AD890E936EA36230EE92672
:1009C000000EEA22EE526350010BF36EF346F3463B
:1009D000F346F70EEF14F310EF6E030EDBCFF3FFC9
:1009E000F390F342F3CFDBFF040EDBCFF3FFF39082
:1009F000F342F3CFDBFFDF2AB8D786C187F1050EBC
:100A0000E15C02E2E16AE552E16EE552E7CFD9FF2F
:100A10001200D9CFE6FFE1CFD9FF0A0EE126FD0E85
:100A2000DBCF63F0FE0EDBCF64F0D890645004E6B9
:100A30009D0E635C000E645861E2FD0EDBCF63F037
:100A4000FE0EDBCF64F0656A666A64AE02D065684C
:100A50006668060E63C0DBFF070E64C0DBFF080E8E
:100A600065C0DBFF090E66C0DBFF020EDB6A030E0A
:100A7000DB6A040EDB6A050EDB6A060EDBCF57F07D
:100A8000070EDBCF58F0080EDBCF59F0090EDBCF95
:100A90005AF05D0E5C6E0E0E5D6E5E6A5F6AF8EC7B
:100AA00007F0060E53C0DBFF070E54C0DBFF080E35
:100AB00055C0DBFF090E56C0DBFF060EDBCF57F03B
:100AC000070EDBCF58F0080EDBCF59F0090EDBCF55
:100AD0005AF0E80E5C6E030E5D6E5E6A5F6A67EC4C
:100AE00008F0060E57C0DBFF070E58C0DBFF080EEC
:100AF00059C0DBFF090E5AC0DBFF69D0FD0EDBCF0A
:100B000063F0FE0EDBCF64F09D0E635E000E645A50
:100B1000656A666A64AE02D065686668060E63C080
:100B2000DBFF070E64C0DBFF080E65C0DBFF090EAC
:100B300066C0DBFF410EF36E020EF3CFDBFFF36EF8
:100B4000030EF3CFDBFF040EDB6A050EDB6A060E35
:100B5000DBCF57F0070EDBCF58F0080EDBCF59F094
:100B6000090EDBCF5AF0030E5C6E020E5D6E5E6AFC
:100B70005F6AF8EC07F0060E53C0DBFF070E54C0A7
:100B8000DBFF080E55C0DBFF090E56C0DBFF060E6B
:100B9000DBCF57F0070EDBCF58F0080EDBCF59F054
:100BA000090EDBCF5AF0E80E5C6E030E5D6E5E6AD6
:100BB0005F6A67EC08F0060E57C0DBFF070E58C0EF
:100BC000DBFF080E59C0DBFF090E5AC0DBFF020E27
:100BD000DBCF63F0030EDBCF64F0040EDBCF65F0F8
:100BE000050EDBCF66F0D950060FE96EDACFEAFFCB
:100BF000EE506326EE506422EE506522EE506622DF
:100C000063C0DEFF64C0DDFFDECF63F0DDCF64F0E4
:100C100063C0F3FF64C0F4FF0A0EE15C03E200D09E
:100C2000E16AE552E16EE552E7CFD9FF1200D9CF74
:100C3000E6FFE1CFD9FF0A0EE126DE6ADD6AFD0E8E
:100C4000DBCF63F0FE0EDBCF64F0D890645004E697
:100C5000410E635C020E645861E2FD0EDBCF63F06F
:100C6000FE0EDBCF64F0656A666A64AE02D065682A
:100C70006668060E63C0DBFF070E64C0DBFF080E6C
:100C800065C0DBFF090E66C0DBFF020EDB6A030EE8
:100C9000DB6A040EDB6A050EDB6A060EDBCF57F05B
:100CA000070EDBCF58F0080EDBCF59F0090EDBCF73
:100CB0005AF00F0E5C6E010E5D6E5E6A5F6AF8ECB4
:100CC00007F0060E53C0DBFF070E54C0DBFF080E13
:100CD00055C0DBFF090E56C0DBFF060EDBCF57F019
:100CE000070EDBCF58F0080EDBCF59F0090EDBCF33
:100CF0005AF0E80E5C6E030E5D6E5E6A5F6A67EC2A
:100D000008F0060E57C0DBFF070E58C0DBFF080EC9
:100D100059C0DBFF090E5AC0DBFF67D0FD0EDBCFE9
:100D200063F0FE0EDBCF64F0410E635E020E645A88
:100D3000656A666A64AE02D065686668060E63C05E
:100D4000DBFF070E64C0DBFF080E65C0DBFF090E8A
:100D500066C0DBFF9D0EF36E020EF3CFDBFF030ECA
:100D6000DB6A040EDB6A050EDB6A060EDBCF57F08A
:100D7000070EDBCF58F0080EDBCF59F0090EDBCFA2
:100D80005AF0960E5C6E070E5D6E5E6A5F6AF8EC56
:100D900007F0060E53C0DBFF070E54C0DBFF080E42
:100DA00055C0DBFF090E56C0DBFF060EDBCF57F048
:100DB000070EDBCF58F0080EDBCF59F0090EDBCF62
:100DC0005AF0E80E5C6E030E5D6E5E6A5F6A67EC59
:100DD00008F0060E57C0DBFF070E58C0DBFF080EF9
:100DE00059C0DBFF090E5AC0DBFF020EDBCF63F0F8
:100DF000030EDBCF64F0040EDBCF65F0050EDBCF16
:100E000066F0D950060FE96EDACFEAFFEE5063269E
:100E1000EE506422EE506522EE50662263C0DEFF83
:100E200064C0DDFFDECF63F0DDCF64F063C0F3FFAD
:100E300064C0F4FF0A0EE15C03E200D0E16AE5520F
:100E4000E16EE552E7CFD9FF1200CAEF08F0D9CF23
:100E5000E6FFE1CFD9FF020EE126C5EC08F000095C
:100E600001E0FBD7C450DE6EDD6ADECF65F0DDCF7A
:100E700066F065C066F0656AC35000016524636E64
:100E8000000E6620646E63C0DEFF64C0DDFFC290AA
:100E90009290FE0EEA6ADB34FE0BEA36E96E220E11
:100EA000E926010EEA22DECFEEFFDDCFEDFFDECF39
:100EB00063F0DDCF64F0FF0ED8806356030E6456F6
:100EC00063C0DEFF64C0DDFFDECF65F0DDCF66F01E
:100ED000FE0EEA6ADB34FE0BEA36E96E100EE926F6
:100EE000010EEA226550EE24636E6650EE20646EB9
:100EF000010E0F0B05E0D89064326332E806FBE187
:100F000063C0DEFF64C0DDFFFE0EEA6ADB34FE0B69
:100F1000EA36E96E100EE926010EEA22DECFEEFF78
:100F2000DDCFEDFFFE0EDB50EA6A490FE96E010EE0
:100F3000EA22EF508D6E9280C280CAEC08F0020E59
:100F4000E15C02E2E16AE552E16EE552E7CFD9FFEA
:020F500012008D
:0E0F5200060EF66E000EF76E000EF86E010130
:100F60000900F5509F6F0900F550A06F03E19F67DE
:100F700001D03DD00900F5509A6F0900F5509B6FE4
:100F80000900F5509C6F09000900F550E96E090051
:100F9000F550EA6E090009000900F5509D6F09003F
:100FA000F5509E6F09000900F6CFA1F1F7CFA2F12D
:100FB000F8CFA3F19AC1F6FF9BC1F7FF9CC1F8FFE0
:100FC00001019D5302E19E5307E00900F550EE6ECA
:100FD0009D07F8E29E07F9D7A1C1F6FFA2C1F7FF6E
:100FE000A3C1F8FF01019F07000EA05BBFD712004D
:100FF00057505C02F3CF53F0F4CF54F05D02F3503E
:101000005426000EF420556E57505E02F3505526BC
:10101000000EF420566E57505F02F350562658507B
:101020005C02F3505426F4505522000E56225850BC
:101030005D02F3505526F450562258505E02F3508C
:10104000562659505C02F3505526F45056225950FA
:101050005D02F35056265A505C02F3505626120099
:10106000D9CFE6FFDACFE6FFE1CFD9FFE2CFDAFF53
:10107000C26AC06AFC0EDB407F0B3C0BC26EFC0EEA
:10108000DB38F00B300B636EFB0EDB500F0B631085
:10109000C16EFD0EDB50040DF350380B646EFD0E77
:1010A000DB380F0B070B636EFD0EDB50800B6310FC
:1010B0006410C06EFC0EDBAE03D09E9C9D8CF28C47
:0E10C000C280E552E5CFDAFFE7CFD9FF12007C
:0210CE00566A60
:1010D000556A546A536A200EE76ED89057365836D0
:1010E00059365A3653365436553656365C50535C5C
:1010F0005D5054585E5055585F50565809E35C5047
:10110000535E5D50545A5E50555A5F50565A572A96
:06111000E72EE4D71200F7
:0A111600D9CFE6FFDACFE6FFE1CF04
:10112000D9FFE2CFDAFFFD0EDB507F0BD56ED76A19
:10113000D66AF294FD0EDBAE02D0F28A01D0F29AAA
:0E114000D58EE552E5CFDAFFE7CFD9FF1200DA
:02114E00000E91
:10115000F36E00EE00F0060E01D81200EA6002D035
:0E116000EE6AFCD7F350E9601200EE6AFCD78D
:02116E0015EE7C
:1011700000F025EE00F0F86A629CA9EC07F0CCECD8
:0A11800008F0EDEC00F0FBD71200C0
:06118A00C250020B01E05F
:04119000010E12003A
:04119400C282120001
:02119800120043
:06119A000000000000014E
:0F11A000000004080C080000000000000000011F
:00000001FF
