:020000040000FA
:06000000D5EF0CF0120028
:0A0006000100D6190000AF01000050
:040010000F000000DD
:0C001400DACFE4FFE2CFDAFFE9CFE4FF2F
:10002000EACFE4FFF6CFE4FFF7CFE4FFF5CFE4FF3C
:10003000F3CFE4FFF4CFE4FFFACFE4FF00EE23F0C8
:10004000140EE80403E3EECFE4FFFBD700EE37F035
:10005000120EE80403E3EECFE4FFFBD7E652F2A270
:1000600005D091DB0101010EBD6FF292F2A404D024
:100070000101010EBC6FF294E55200EE48F0120E41
:10008000E80403E3E5CFEDFFFBD700EE36F0140EF6
:10009000E80403E3E5CFEDFFFBD7E5CFFAFFE5CFBB
:1000A000F4FFE5CFF3FFE5CFF5FFE5CFF7FFE5CFB1
:1000B000F6FFE5CFEAFFE5CFE9FFE5CFDAFF110074
:1000C000D8CFE4FFE0CFE4FFE46EDACFE4FFE2CF85
:1000D000DAFFE652E552E5CFDAFFE550E5CFE0FF83
:1000E000E5CFD8FF10000F0E926E030E936E190E1F
:1000F000946E956A966A0F0EE66E070EE66ED50E42
:10010000E66E77EC0CF0E552E552E552F28EF28C99
:10011000F28CF28EF19CF2881200D9CFE6FFE1CF8B
:10012000D9FF080EE126DE6ADD6A070EDB6ADBDF37
:100130000101586B596B5A6B5B6B300E585D750E35
:100140005959000E5A59000E5B5906E2582B000E01
:1001500059235A235B23F1D70101B26BBB6B010119
:10016000BD0501E07ED0BD6B060EDB6A080EF36EA6
:10017000060EDBCFF4FFF350F45C72E2060EEA6A7F
:10018000DB34FE0BEA36E96E030EE926000EEA22A6
:10019000EE52EF50030BE66E060EEA6ADB34FE0BFE
:1001A000EA36E96E330EE926010EEA22E552E750FF
:1001B000EE6EED6A060EEA6ADB34FE0BEA36E96E95
:1001C000330EE926010EEA22EECF39F0EFCF3AF0F6
:1001D00039C03AF0396A060EEA6ADB34FE0BEA36B9
:1001E000E96E030EE926000EEA22EF5000013924E1
:1001F000376E000E3A20386E060EEA6ADB34FE0BCC
:10020000EA36E96E330EE926010EEA2237C0EEFF28
:1002100038C0EDFF060EEA6ADB34FE0BEA36E96E03
:10022000330EE926010EEA22EECFE6FFEFCFE6FF1E
:100230002CDBE552E552F3CF37F0F4CF38F0060E61
:10024000EA6ADB34FE0BEA36E96E330EE926010E6C
:10025000EA2237C0EEFF38C0EDFF060EDB2A86D754
:1002600052D9070EDBCFE6FF17EC08F0E552070E78
:10027000DBCFE6FF13D8E552070EDB2ADB50080878
:1002800002E1070EDB6A6BD7080EE15C02E2E16A6D
:10029000E552E16EE552E7CFD9FF1200D9CFE6FF74
:1002A000E1CFD9FF080EE126DE6ADD6A8150010B3D
:1002B000010A010801E11DD1FE0EEA6ADB34FE0BE2
:1002C000EA36E96E030EE926000EEA22EE52EF50FE
:1002D0000C0BE842E842000911E1FE0EEA6ADB3449
:1002E000FE0BEA36E96E020EE926010EEA22060E40
:1002F000EECFDBFF070EEDCFDBFF84D0FE0EDB5031
:10030000040DF3CFE9FFF4CFEAFF930EE926010EC7
:10031000EA220101B7511F0BEECF3BF0EECF3CF0CC
:10032000EECF3DF0EECF3EF007E0D8903E323D32CA
:100330003C323B32E806F9E1FE0EDB50040DF3CF10
:10034000E9FFF4CFEAFF930EE926010EEA223B50C3
:10035000EE5C376E3C50EE58386E3D50EE58396EBC
:100360003E50EE583A6EFE0EEA6ADB34FE0BEA3679
:10037000E96E330EE926010EEA22EECF3FF0EFCF11
:1003800040F0416A426A3F5037264050382241507F
:10039000392242503A22FE0EDB50040DF3CFE9FF22
:1003A000F4CFEAFF930EE926010EEA2237C0EEFFF2
:1003B00038C0EEFF39C0EEFF3AC0EEFFFE0EDB5054
:1003C000040DF3CFE9FFF4CFEAFF930EE926010E07
:1003D000EA220101B7511F0BEECF37F0EECF38F014
:1003E000EECF39F0EECF3AF007E0D8903A3239321A
:1003F00038323732E806F9E1060E37C0DBFF070E68
:1004000038C0DBFFFE0EDB28E66ED950040FE96E24
:10041000DACFEAFFE552E750EE6EED6A040EDBCF6D
:1004200039F0050EDBCF3AF03938396AF00B3A6E05
:10043000060EDBCF3BF0070EDBCF3CF0D8903B360F
:100440003C36D8903B363C3639503B24376E3A50D8
:100450003C20386E020E37C0DBFF030E38C0DBFFD6
:100460008B948150010B010A010801E142D08A9866
:10047000DE6ADD6ADECF37F0DDCF38F0100E375C94
:10048000000E385827E2020EDBCF39F0030EDBCF27
:100490003AF0DECF3BF0DDCF3CF00F0ED8803B567C
:1004A000000E3C563B5039C037F03AC038F005E0FA
:1004B000D89038323732E804FBE1010E3714E8B047
:1004C0008A86E8A08A968B848B94DF2A010E01E34A
:1004D000DB2AD0D78A888150010B010A010801E18B
:1004E00008D0FE0EDBCFE6FF60EC08F0E55201011C
:1004F000BC6B080EE15C02E2E16AE552E16EE55296
:10050000E7CFD9FF1200D9CFE6FFE1CFD9FF040E24
:10051000E126006A016A026ADF6A080EDF5C5FE2B8
:10052000009E0046019E0146029E0246EA6ADF34B2
:10053000FE0BEA36E96E030EE926000EEA22EE52C1
:10054000EF500C0BE842E842010801E1002AEA6A98
:10055000DF34FE0BEA36E96E030EE926000EEA22CE
:10056000EE52EF500C0BE842E842020801E1002A8B
:10057000EA6ADF34FE0BEA36E96E030EE926000E66
:10058000EA22EE52EF500C0BE842E842030802E187
:10059000002A012AEA6ADF34FE0BEA36E96E030E0E
:1005A000E926000EEA22EE52EF50400B07E001A0D0
:1005B00003D00104016E02D00128016EEA6ADF3423
:1005C000FE0BEA36E96E130EE926000EEA22EE5221
:1005D000EF50800B01E0010E0226DF2A9ED7001C9F
:1005E000006E011C016E0250026E8B9C010EF36EB8
:1005F000020EF3CFDBFF030EDB6ADF6A080EDF5C5F
:1006000029E20250396E3A6A020EDB503914376E15
:10061000030EDB503A14386E020EDB50371803E13C
:10062000030EDB50381802E0000E01D0010EE8B0D6
:100630008B8AE8A08B9AD950020FE96EDACFEAFFD5
:10064000010ED890EE36ED36E806FBE18B848B94F4
:10065000DF2AD4D7010EF36E020EF3CFDBFF030EB9
:10066000DB6ADF6A080EDF5C29E20050396E3A6A05
:10067000020EDB503914376E030EDB503A14386E1D
:10068000020EDB50371803E1030EDB50381802E08E
:10069000000E01D0010EE8B08B8AE8A08B9AD950E9
:1006A000020FE96EDACFEAFF010ED890EE36ED3692
:1006B000E806FBE18B848B94DF2AD4D7010EF36E1E
:1006C000020EF3CFDBFF030EDB6ADF6A080EDF5C8E
:1006D00029E20150396E3A6A020EDB503914376E46
:1006E000030EDB503A14386E020EDB50371803E16C
:1006F000030EDB50381802E0000E01D0010EE8B006
:100700008B8AE8A08B9AD950020FE96EDACFEAFF04
:10071000010ED890EE36ED36E806FBE18B848B9423
:10072000DF2AD4D78B8C8B928B82DF6A080EDF5C3A
:100730001DE28250010B376E070ED880DF54E96E40
:10074000EA6AD890E936EA36130EE926000EEA2264
:10075000EE523750030BF36EF346F346F30EEF14ED
:10076000F310EF6E8B848B94DF2AE0D78B9201011C
:10077000BB2B040EE15C02E2E16AE552E16EE55258
:10078000E7CFD9FF12000101506B516B526B536BD5
:100790000101BA6B9568220E0101505D000E51599E
:1007A000000E5259000E535943E281A004D09568BF
:1007B000010E146F69D0110E505D000E5159000EDC
:1007C0005259000E53590AE2956A130E5025E96EEC
:1007D000000E5121EA6EEF508C6E17D0956850C113
:1007E00037F051C138F052C139F053C13AF0110E0F
:1007F000375E000E385A395A3A5A150E3724E96EC8
:10080000010E3820EA6E83CFEFFF8150020B0BE020
:100810000101BA5108E1010EBA6F0101502B000E1F
:1008200051235223532381B202D00101BA6BB3D7B3
:100830009568146BF10E256F255124E0506B516BB8
:10084000526B536B110E505D000E5159000E5259F0
:10085000000E535917E2150E5025E96E010E512175
:10086000EA6EEF50E66E030E5025E96E000E512140
:10087000EA6EE552E750EF6E502B000E51235223E3
:100880005323E0D70101BD6B1200D9CFE6FFE1CFC2
:10089000D9FF1A0EE126060EDB6A800EF36E070EF4
:1008A000F3CFDBFF4C0EF36E080EF3CFDBFF440EED
:1008B000F36E090EF3CFDBFF0A0EDB6A400EF36E18
:1008C0000B0EF3CFDBFF660EF36E0C0EF3CFDBFFE8
:1008D000440EF36E0D0EF3CFDBFF0A0EF36E0E0E19
:1008E000F3CFDBFFD70EF36E0F0EF3CFDBFF030E5C
:1008F000F36E100EF3CFDBFF3F0EF36E110EF3CF4E
:10090000DBFFC10EF36E120EF3CFDBFFCA0EF36EE8
:10091000130EF3CFDBFF110EF36E140EF3CFDBFFDC
:10092000400EF36E150EF3CFDBFF660EF36E160E60
:10093000F3CFDBFF660EF36E170EF3CFDBFFE60E91
:10094000F36E180EF3CFDBFF3F0EF36E190EF3CFED
:10095000DBFFFD0EDBCF37F0FE0EDBCF38F0000EF5
:10096000D8803756040E3856FD0E37C0DBFFFE0E1A
:1009700038C0DBFFFD0EDBCF2BF0FE0EDBCF2CF003
:100980009AEC09F02AC037F02BC038F02CC039F0AF
:100990002DC03AF0060EDBCF3BF0070EDBCF3CF06C
:1009A000080EDBCF3DF0090EDBCF3EF03BC02FF051
:1009B0003CC030F03DC031F03EC032F037C02AF0CC
:1009C00038C02BF039C02CF03AC02DF044EC0BF0BD
:1009D000010A01E006D1FD0EDBCF2BF0FE0EDBCFCE
:1009E0002CF09AEC09F02AC037F02BC038F02CC05C
:1009F00039F02DC03AF00A0EDBCF3BF00B0EDBCF07
:100A00003CF00C0EDBCF3DF00D0EDBCF3EF03BC0DB
:100A10002FF03CC030F03DC031F03EC032F037C066
:100A20002AF038C02BF039C02CF03AC02DF044EC3D
:100A30000BF0010A6BE1DB0E376EF90E386E230EF8
:100A4000396E440E3A6EFD0EDBCF2BF0FE0EDBCF7F
:100A50002CF09AEC09F02AC03FF02BC040F02CC0DB
:100A600041F02DC042F00A0EDBCF43F00B0EDBCF7E
:100A700044F00C0EDBCF45F00D0EDBCF46F043C04B
:100A80002FF044C030F045C031F046C032F03FC0D6
:100A90002AF040C02BF041C02CF042C02DF0ADEC4C
:100AA00009F0160EDBCF2FF0170EDBCF30F0180E4B
:100AB000DBCF31F0190EDBCF32F044EC0AF02AC064
:100AC0003BF02BC03CF02CC03DF02DC03EF03BC0B5
:100AD0002FF03CC030F03DC031F03EC032F037C0A6
:100AE0002AF038C02BF039C02CF03AC02DF0AEEC13
:100AF00009F0020E2AC0DBFF030E2BC0DBFF040E41
:100B00002CC0DBFF050E2DC0DBFF6AD08F0E376EC9
:100B1000A20E386ED20E396E430E3A6EFD0EDBCF4A
:100B20002BF0FE0EDBCF2CF09AEC09F02AC03FF040
:100B30002BC040F02CC041F02DC042F0060EDBCFA0
:100B400043F0070EDBCF44F0080EDBCF45F0090E73
:100B5000DBCF46F043C02FF044C030F045C031F049
:100B600046C032F03FC02AF040C02BF041C02CF00C
:100B700042C02DF0ADEC09F0120EDBCF2FF0130EBA
:100B8000DBCF30F0140EDBCF31F0150EDBCF32F0BF
:100B900044EC0AF02AC03BF02BC03CF02CC03DF0E6
:100BA0002DC03EF03BC02FF03CC030F03DC031F0D6
:100BB0003EC032F037C02AF038C02BF039C02CF0DC
:100BC0003AC02DF0AEEC09F0020E2AC0DBFF030E96
:100BD0002BC0DBFF040E2CC0DBFF050E2DC0DBFF9E
:100BE00022D0FD0EDBCF2BF0FE0EDBCF2CF09AECEB
:100BF00009F00E0EDBCF2FF00F0EDBCF30F0100E12
:100C0000DBCF31F0110EDBCF32F044EC0AF0020EF4
:100C10002AC0DBFF030E2BC0DBFF040E2CC0DBFF62
:100C2000050E2DC0DBFF020EDBCF2AF0030EDBCF5B
:100C30002BF0040EDBCF2CF0050EDBCF2DF0DEEC1D
:100C40000AF02BC0DEFF2CC0DDFFDECF37F0DDCF9A
:100C500038F037C0F3FF38C0F4FF1A0EE15C03E24E
:100C600000D0E16AE552E16EE552E7CFD9FF12000C
:100C7000D9CFE6FFE1CFD9FF1A0EE126060EDB6AD7
:100C8000800EF36E070EF3CFDBFFD20EF36E080E6D
:100C9000F3CFDBFF430EF36E090EF3CFDBFF0A0E3B
:100CA000DB6A0B0EDB6A240EF36E0C0EF3CFDBFF58
:100CB000440EF36E0D0EF3CFDBFF750EF36E0E0ECA
:100CC000F3CFDBFF930EF36E0F0EF3CFDBFFF80EC7
:100CD000F36E100EF3CFDBFF3F0EF36E110EF3CF6A
:100CE000DBFFD50EF36E120EF3CFDBFF780EF36E43
:100CF000130EF3CFDBFFE90EF36E140EF3CFDBFF21
:100D00003E0EF36E150EF3CFDBFFF20EF36E160EF2
:100D1000F3CFDBFFD20EF36E170EF3CFDBFF8D0E9A
:100D2000F36E180EF3CFDBFF3E0EF36E190EF3CF0A
:100D3000DBFFFD0EDBCF2BF0FE0EDBCF2CF09AECB1
:100D400009F02AC037F02BC038F02CC039F02DC084
:100D50003AF0060EDBCF3BF0070EDBCF3CF0080E7F
:100D6000DBCF3DF0090EDBCF3EF03BC02FF03CC0A7
:100D700030F03DC031F03EC032F037C02AF038C00C
:100D80002BF039C02CF03AC02DF044EC0BF0010AE6
:100D900001E006D1FD0EDBCF2BF0FE0EDBCF2CF0F9
:100DA0009AEC09F02AC037F02BC038F02CC039F08B
:100DB0002DC03AF00A0EDBCF3BF00B0EDBCF3CF040
:100DC0000C0EDBCF3DF00D0EDBCF3EF03BC02FF025
:100DD0003CC030F03DC031F03EC032F037C02AF0A8
:100DE00038C02BF039C02CF03AC02DF044EC0BF099
:100DF000010A6BE1680E376E710E386E670E396E40
:100E0000440E3A6EFD0EDBCF2BF0FE0EDBCF2CF046
:100E10009AEC09F02AC03FF02BC040F02CC041F002
:100E20002DC042F00A0EDBCF43F00B0EDBCF44F0B7
:100E30000C0EDBCF45F00D0EDBCF46F043C02FF09C
:100E400044C030F045C031F046C032F03FC02AF017
:100E500040C02BF041C02CF042C02DF0ADEC09F0A9
:100E6000160EDBCF2FF0170EDBCF30F0180EDBCFD6
:100E700031F0190EDBCF32F044EC0AF02AC03BF01F
:100E80002BC03CF02CC03DF02DC03EF03BC02FF0FD
:100E90003CC030F03DC031F03EC032F037C02AF0E7
:100EA00038C02BF039C02CF03AC02DF0AEEC09F070
:100EB000020E2AC0DBFF030E2BC0DBFF040E2CC08A
:100EC000DBFF050E2DC0DBFF6AD0890E376EE10E09
:100ED000386E4C0E396E440E3A6EFD0EDBCF2BF0A1
:100EE000FE0EDBCF2CF09AEC09F02AC03FF02BC0AD
:100EF00040F02CC041F02DC042F0060EDBCF43F095
:100F0000070EDBCF44F0080EDBCF45F0090EDBCF38
:100F100046F043C02FF044C030F045C031F046C029
:100F200032F03FC02AF040C02BF041C02CF042C04C
:100F30002DF0ADEC09F0120EDBCF2FF0130EDBCF4E
:100F400030F0140EDBCF31F0150EDBCF32F044EC75
:100F50000AF02AC03BF02BC03CF02CC03DF02DC065
:100F60003EF03BC02FF03CC030F03DC031F03EC001
:100F700032F037C02AF038C02BF039C02CF03AC01C
:100F80002DF0AEEC09F0020E2AC0DBFF030E2BC0E1
:100F9000DBFF040E2CC0DBFF050E2DC0DBFF22D0D3
:100FA000FD0EDBCF2BF0FE0EDBCF2CF09AEC09F020
:100FB0000E0EDBCF2FF00F0EDBCF30F0100EDBCF9D
:100FC00031F0110EDBCF32F044EC0AF0020E2AC0F1
:100FD000DBFF030E2BC0DBFF040E2CC0DBFF050E76
:100FE0002DC0DBFF020EDBCF2AF0030EDBCF2BF090
:100FF000040EDBCF2CF0050EDBCF2DF0DEEC0AF07B
:101000002BC0DEFF2CC0DDFFDECF37F0DDCF38F0A8
:1010100037C0F3FF38C0F4FF1A0EE15C03E200D0E2
:10102000E16AE552E16EE552E7CFD9FF1200D9CF70
:10103000E6FFE1CFD9FFFE0EDB50070A2BE0010AE5
:1010400025E0030A1FE0010A19E0070A13E0010A7C
:101050000DE0030A07E0010A01E020D08D908D9297
:101060008D941CD08D908D828D9418D08D808D8222
:101070008D9414D08D808D928D9410D08D908D8212
:101080008D840CD08D808D928D8408D08D908D9222
:101090008D8404D08D808D828D8400D0E552E7CF81
:1010A000D9FF1200D9CFE6FFE1CFD9FFE66AAEEC57
:1010B0000CF0E552E8EC0CF0E552E7CFD9FF120056
:1010C000D9CFE6FFE1CFD9FF030EE126DF6A040E98
:1010D000DF5C01E3B1D0FE0EDBCFE6FFE3DFE552DC
:1010E000E3EC0CF0000901E0FBD7C350E66ED950E9
:1010F000010FE96EDACFEAFFE552E750EE6EED6AD6
:10110000010EDBCF39F0020EDBCF3AF0C4503B6E5C
:101110003C6A2B6A010E2C6E3BC030F03CC031F0B3
:10112000B1EC0AF039502924376E3A502A20386E33
:10113000010E37C0DBFF020E38C0DBFFFE0EEA6A8D
:10114000DB34FE0BEA36E96E020EE926010EEA22D6
:10115000EECF3FF0EFCF40F03FC02BF040C02CF07F
:1011600098EC09F02AC03BF02BC03CF02CC03DF0BD
:101170002DC03EF0CD0E2F6ECC0E306E4C0E316E6B
:101180003F0E326E3BC02AF03CC02BF03DC02CF02D
:101190003EC02DF044EC0AF02AC037F02BC038F0E6
:1011A0002CC039F02DC03AF0010EDBCF2BF0020E2F
:1011B000DBCF2CF098EC09F02AC045F02BC046F0AC
:1011C0002CC047F02DC048F0CD0E2F6ECC0E306EE7
:1011D0004C0E316E3E0E326E45C02AF046C02BF0EA
:1011E00047C02CF048C02DF044EC0AF02AC041F072
:1011F0002BC042F02CC043F02DC044F041C02FF072
:1012000042C030F043C031F044C032F037C02AF061
:1012100038C02BF039C02CF03AC02DF0AEEC09F0FC
:101220000DEC0BF029C086F12AC087F12BC088F1A4
:101230002CC089F1DF2A4BD7FE0EEA6ADB34FE0BA5
:10124000EA36E96E020EE926010EEA2286C1EEFFB9
:1012500087C1EDFF86C1E6FF87C1E6FF09DDE552E4
:10126000E552F3CF86F1F4CF87F10101FF0ED8806C
:101270008657030E8757886B896B87AF02D08869C2
:10128000896986C137F087C138F088C139F089C1D2
:101290003AF0386A396A3A6A37C08EF138C08FF14D
:1012A00087C137F088C138F089C139F000013A6A46
:1012B00037C090F138C091F1FE0EEA6ADB34FE0BC4
:1012C000EA36E96E130EE926000EEA228EC1EFFF20
:1012D00001019051376EFE0EEA6ADB34FE0BEA36EE
:1012E000E96E130EE926000EEA22EE523750030B88
:1012F000F36EFC0EEF14F310EF6EFE0EEA6ADB34B1
:10130000FE0BEA36E96E130EE926000EEA22EE52D3
:101310008050020B02E0EF8E01D0EF9E030EE15CE5
:1013200002E2E16AE552E16EE552E7CFD9FF120031
:10133000249E08D0249E2CAE05D02B6C2C1EE86A6F
:101340002C22248E2CC026F02BC025F0366A356A5C
:101350008E0E276E286ABEEF0BF0327E246AFAECFE
:101360000BF012EC0CF024B6A2EF0BF024A20AD082
:1013700024AA03D024BEA2EF0BF024A4AEEF0BF0FE
:10138000ABEF0BF024AA05D024ACAEEF0BF0ABEF23
:101390000BF024A00AD024A808D024BE04D024A492
:1013A00002D0B7EF0BF0BBEF0BF0356A286A325072
:1013B0002D5C346E10E32AC036F02BC025F02CC013
:1013C00026F02DC033F02FC02AF030C02BF031C0F2
:1013D0002CF0243A09D02FC036F030C025F031C0AF
:1013E00026F032C033F0346C249E24BC248E33C0EB
:1013F00027F024B0EAEF0BF01A0E3460EAEF0BF09E
:10140000276A2D6A24A408D02A6C2B1E2C1E2D1EA0
:10141000E86A2B222C222D2224AC08D0366C251E03
:10142000261E271EE86A252226222722296A3452F0
:1014300007E02D342C322B322A322932342EF9D7C0
:101440002A5036262B5025222C5026222D5027227A
:1014500029C035F0249E27AE0BD0356C361E251ED4
:10146000261E271EE86A3622252226222722248EBF
:1014700027A006D0D8802632253236323532332A9C
:1014800033C027F0BEEF0BF0246AFAEC0BF012EC3D
:101490000CF024B6A2EF0BF024A205D024B8A2EFE2
:1014A0000BF0A9EF0BF024AA05D024B0A2EF0BF0AB
:1014B000A9EF0BF024B002D024A802D0B5EF0BF0B6
:1014C000286A32502D24276EE86A28227E0E275E75
:1014D000E86A285A356A366A256A266A31502C022B
:1014E000F4CF26F0F3CF25F030502C02F3503626FF
:1014F000F4502522000E262231502B02F3503626BE
:10150000F4502522000E26222F502C02F3503526AF
:10151000F4503622000E2522262230502B02F350A2
:101520003526F4503622000E2522262231502A027A
:10153000F3503526F4503622000E252226222F5055
:101540002B02F4503526000E36222522262230505A
:101550002A02F4503526000E362225222622BEEF1E
:101560000BF02CC036F02BC035F02B503002F4CFEE
:101570002AF0F3CF29F02C503102F4CF2CF0F3CF26
:101580002BF03002F3502A26F4502B22E86A2C224A
:1015900035503102F3502A26F4502B22E86A2C22CF
:1015A00031AED7EF0AF035502B5E36502C5A36AE9E
:1015B000000C30502B5E31502C5A000C246AFAEC8F
:1015C0000BF024B6E8EF0AF024A20ED024B405D024
:1015D0007F0E2C6EFF0E2B6E1FD0800E2C6E2B6A92
:1015E0001BD02C6A2B6A18D024B0FBD78F0E2D602D
:1015F000EDD77E0E2D64F5D78E0E2D5C05E0D890CC
:101600002C322B322D2AF8D724A406D02B6C2C1E7A
:10161000E86A2C222CAEE5D71200246AFAEC0BF013
:1016200024B617EF0BF024A20FD024B407D07F0EFE
:101630002C6EFF0E2B6E2A6E296E25D0800E2C6E1E
:1016400001D02C6A000EF6D724B0FBD7296A9F0E72
:101650002D60EBD77E0E2D64F4D79E0E2D5C07E037
:10166000D8902C322B322A3229322D2AF6D724A4B4
:101670000AD0296C2A1E2B1E2C1EE86A2A222B2235
:101680002C222CAEDED712004DEC0BF024B6000C51
:1016900024B0000C24B4000C010C246AFAEC0BF00A
:1016A00012EC0CF024B6120024AE08D024A004D012
:1016B00024A802D0248012002490120032502D5C05
:1016C0000BE131502C5C08E130502B5C05E12F50D0
:1016D0002A5C02E124801200D8A002D0248E10D00F
:1016E0002D5032C02DF0326E2C5031C02CF0316EA6
:1016F0002B5030C02BF0306E2A502FC02AF02F6EA6
:1017000032502D5C10E0FF0F09E0249024B403D088
:1017100024AE2484120024AE24941200322AD890DD
:10172000313230322F322F502A5E30502B5A315006
:101730002C5A2CBEEAD7D8902A362B362C362D2E92
:10174000F8D7C8D77F0E2D6EFF0E2C6E2B6E2A6E2B
:1017500012007F0E24BEFF0E2D6E02D07F0E2D6E66
:10176000800E2C6E2B6A2A6AF3D724AE04D0800E2A
:101770002D6E2C6AF7D72D6A2C6AF4D726502510C7
:1017800036103510F8E028BEF0D726BE0CD0275012
:101790002810EBE0D8903536363625362636270623
:1017A000D8A02806F2D72850D4E12728D2E035AEB9
:1017B00011D07F0E351402E136A00CD0362AE86A2B
:1017C0002522262207E3D880263225323632272AE0
:1017D0002728BFE02750C9E036C02AF025C02BF0EB
:1017E00026342C6E27302D6E2C322D9E24BE2D8E4D
:1017F000A8EF0BF02C362D3602E32484247E06E17C
:1018000024802D6A2C6A2B6A2A6A12002D2803E094
:10181000D8802C321200D8902C3202E1248212009F
:10182000248612003136323602E3248C247E06E10F
:101830002488326A316A306A2F6A1200322803E043
:10184000D88031321200D8903132EAE1248A120075
:10185000060EF66E000EF76E000EF86E010109001E
:10186000F550C36F0900F550C46F03E1C36701D0A1
:101870003DD00900F550BE6F0900F550BF6F09005B
:10188000F550C06F09000900F550E96E0900F550E8
:10189000EA6E090009000900F550C16F0900F55012
:1018A000C26F09000900F6CFC5F1F7CFC6F1F8CF36
:1018B000C7F1BEC1F6FFBFC1F7FFC0C1F8FF01010C
:1018C000C15302E1C25307E00900F550EE6EC107B3
:1018D000F8E2C207F9D7C5C1F6FFC6C1F7FFC7C115
:0E18E000F8FF0101C307000EC45BBFD7120062
:0218EE00D9CF50
:1018F000E6FFDACFE6FFE1CFD9FFE2CFDAFFC26A37
:10190000C06AFC0EDB407F0B3C0BC26EFC0EDB386A
:10191000F00B300B376EFB0EDB500F0B3710C16E28
:10192000FD0EDB50040DF350380B386EFD0EDB3826
:101930000F0B070B376EFD0EDB50800B3710381086
:10194000C06EFC0EDBAE03D09E9C9D8CF28CC280E0
:0C195000E552E5CFDAFFE7CFD9FF120027
:04195C00D9CFE6FFFA
:10196000DACFE6FFE1CFD9FFE2CFDAFFC30EC21430
:10197000376EFD0EDB407F0B3C0B3710C26EE5521D
:0A198000E5CFDAFFE7CFD9FF120030
:06198A00000EF36E00EEFA
:1019900000F0060E01D81200EA6002D0EE6AFCD711
:0A19A000F350E9601200EE6AFCD774
:0619AA0015EE00F025EE31
:1019B00000F0F86A249C28EC0CF0EAEC0CF08DECBA
:0619C00000F0FBD712004D
:0A19C600C250020B01E0010E1200F6
:0419D000C2821200BD
:0219D4001200FF
:0A19D600000001000004080C0300EB
:0519E000000000000002
:020000040030CA
:010003001EDE
:00000001FF
