:020000040000FA
:0600000067EF03F012009F
:0A00060001001C070000E1000000EB
:0400100011000000DB
:0C001400DACFE4FFE2CFDAFFE6529EA64E
:1000200004D09E960001010EF16FE552E5CFDAFF94
:100030001100D8CFE4FFE0CFE4FFE46EDACFE4FFB5
:10004000E2CFDAFFE652E552E5CFDAFFE550E5CF41
:10005000E0FFE5CFD8FF1000926A030E936E946A1A
:10006000966AF26A1200F8DF9380938293969398CF
:10007000939A939C939E948694888A868A869568A0
:100080000001E96BE66A080EE66E3CEC03F0E5520F
:10009000E552180EC86E0001010EE46FF28C81501B
:1000A000010B010A010801E1A1D90001E45101E0BD
:1000B00097D10001CD6BCE6BCF6BD06B090E0001D9
:1000C000CD5D000ECE59000ECF59000ED05901E380
:1000D000D7D083EC03F0C580C5B0FED783EC03F026
:1000E000CDC010F0CEC011F0CFC012F0D0C013F0D0
:1000F000D8901036113612361336E00E1026000E48
:100100001122000E1222000E13221050E66ECBECCC
:1001100002F0E552000900E183EC03F0CDC004F0E9
:10012000CEC005F0CFC006F0D0C007F0020E096EB9
:100130000A6A0B6A0C6A04EC03F000C0E9FF01C014
:10014000EAFF990EE926000EEA22EF50E66ECBECAC
:1001500002F0E55283EC03F0CDC010F0CEC011F0F8
:10016000CFC012F0D0C013F0D8901036113612362E
:100170001336102A000E1122000E1222000E132236
:10018000990E1024E96E000E1120EA6EEF50E66E13
:10019000CBEC02F0E55283EC03F0100E106E116A06
:1001A000126A136A0001CD5110260001CE511122AE
:1001B0000001CF5112220001D0511322990E1024B8
:1001C000E96E000E1120EA6EEF50E66ECBEC02F005
:1001D000E55283EC03F0C584C5B4FED7CDC004F06E
:1001E000CEC005F0CFC006F0D0C007F0020E096EF9
:1001F0000A6A0B6A0C6A04EC03F000C0E9FF01C054
:10020000EAFF990EE926000EEA22EF6ACDC010F04F
:10021000CEC011F0CFC012F0D0C013F0D89010367D
:10022000113612361336102A000E1122000E122239
:10023000000E1322990E1024E96E000E1120EA6EB2
:10024000EF6A100E106E116A126A136A0001CD5126
:1002500010260001CE5111220001CF5112220001BF
:10026000D0511322990E1024E96E000E1120EA6E6F
:10027000EF6A0001CD2B000ECE23CF23D0231ED753
:100280000001CD6BCE6BCF6BD06B090E0001CD5D45
:10029000000ECE59000ECF59000ED05901E39ED06A
:1002A00083EC03F0C580C5B0FED783EC03F00001FA
:1002B000F16BCDC010F0CEC011F0CFC012F0D0C0A5
:1002C00013F0D8901036113612361336E10E102680
:1002D000000E1122000E1222000E13221050E66EA4
:1002E000CBEC02F0E55200096DE183EC03F075EC14
:1002F00003F0146EC59AC588C5B8FED783EC03F029
:1003000075EC03F0156EC59AC588C5B8FED783ECA9
:1003100003F075EC03F0166EC58AC588C5B8FED724
:1003200083EC03F0100E106E116A126A136A00015A
:10033000CD5110260001CE5111220001CF511222C1
:100340000001D0511322B10E1024E96E000E1120CD
:10035000EA6E16C0EFFFCDC004F0CEC005F0CFC0EE
:1003600006F0D0C007F0020E096E0A6A0B6A0C6A2A
:1003700004EC03F000C0E9FF01C0EAFFB10EE9267A
:10038000000EEA2214C0EFFFCDC010F0CEC011F075
:10039000CFC012F0D0C013F0D890103611361236FC
:1003A0001336102A000E1122000E1222000E132204
:1003B000B10E1024E96E000E1120EA6E15C0EFFF99
:1003C000040000D083EC03F0C584C5B4FED700015F
:1003D000CD2B000ECE23CF23D02357D70001E82BFF
:1003E0000001010EE46F5BD6120012000001CD6B1C
:1003F000CE6BCF6BD06B0001F06B9568300E0001B7
:10040000CD5D000ECE59000ECF59000ED05944E2FA
:1004100081A005D095680001010EE96F6CD0180E1F
:10042000CD5D000ECE59000ECF59000ED0590AE214
:10043000956AB10ECD25E96E000ECE21EA6EEF5021
:100440008C6E17D09568CDC010F0CEC011F0CFC023
:1004500012F0D0C013F0180E105E000E115A125A8E
:10046000135A810E1024E96E000E1120EA6E83CF1C
:10047000EFFF8150020B0BE00001F05108E1010E8B
:10048000F06F0001CD2B000ECE23CF23D02381B2FD
:1004900002D00001F06BB2D795688150010B010AC0
:1004A000010801E1FAD70001E96BE46B0001CD6BB3
:1004B000CE6BCF6BD06B180ECD5D000ECE59000EFB
:1004C000CF59000ED05917E2810ECD25E96E000EEE
:1004D000CE21EA6EEF50E66E990ECD25E96E000E44
:1004E000CE21EA6EE552E750EF6ECD2B000ECE2303
:0804F000CF23D023E0D7120056
:0804F800060EF66E000EF76E11
:10050000000EF86E00010900F550F76F0900F55074
:10051000F86F03E1F76701D03DD00900F550F26FA5
:100520000900F550F36F0900F550F46F0900090058
:10053000F550E96E0900F550EA6E0900090009005E
:10054000F550F56F0900F550F66F09000900F6CF78
:10055000F9F0F7CFFAF0F8CFFBF0F2C0F6FFF3C0F6
:10056000F7FFF4C0F8FF0001F55302E1F65307E08E
:100570000900F550EE6EF507F8E2F607F9D7F9C075
:10058000F6FFFAC0F7FFFBC0F8FF0001F707000E07
:06059000F85BBFD712006A
:0A059600D9CFE6FFE1CFD9FFFE0E3A
:1005A000DB50C96EC6AE03D0FF0E2AD029D00F0E85
:1005B000C614080812E00F0EC6140B080EE0C68819
:1005C0009EA6FED7C750040B06E1C750010B03E1FE
:1005D000FE0E16D015D0000E13D00F0EC61408084C
:1005E00004E00F0EC6140B080BE1C7B0FED783EC76
:1005F00003F0C5AC03D0FE0E03D002D0000E00D035
:08060000E552E7CFD9FF12001B
:0806080004500902F3CF00F0D9
:10061000F4CF01F00A02F3500126000EF420026E1E
:1006200004500B02F3500226000EF420036E045017
:100630000C02F350032605500902F3500126F45032
:100640000222000E032205500A02F3500226F45043
:10065000032205500B02F350032606500902F35003
:100660000226F450032206500A02F35003260750D4
:080670000902F35003261200F9
:08067800D9CFE6FFDACFE6FF5F
:10068000E1CFD9FFE2CFDAFF3F0EC716C66AC56ACF
:10069000FD0EDB50C612FC0EDB50C7129486948808
:0E06A000C68AE552E5CFDAFFE7CFD9FF120098
:0206AE00000E3C
:1006B000F36E00EE00F0060E01D81200EA6002D0E0
:0E06C000EE6AFCD7F350E9601200EE6AFCD738
:0206CE0015EE27
:1006D00000F025EE00F0F86A0F9C7CEC02F08DEC47
:0A06E00003F033EC00F0FBD712002A
:0606EA000F0EC614080803
:1006F00004E00F0EC6140B0801E1C586C7A0FED7A3
:06070000C95000D01200F8
:0A0706001F0EC514FDE1C750040BDF
:04071000FAE11200F8
:06071400C58AC588120031
:02071A001200CB
:04071C0000000000D9
:0D07200000000000000000000000000000CC
:00000001FF
