:020000040000FA
:0600000047EF08F01200BA
:0A0006000100C8100000B501000061
:040010001A000000D2
:0C001400DACFE4FFE2CFDAFFE652F29A06
:10002000F2A40FD00101140ED880B955000EBA55B4
:1000300008E2BB5102E0000E01D0010EBB6FB96BAC
:10004000BA6B0101B92B000EBA23F294F28AE55281
:10005000E5CFDAFF1100D8CFE4FFE0CFE4FFE46E94
:10006000DACFE4FFE2CFDAFFE652E552E5CFDAFF7E
:10007000E550E5CFE0FFE5CFD8FF1000D4EC06F067
:100080000101BE6B8B9C8B9EBC6B81B610D0050EA4
:100090000101B65D0CE2BCC1E6FF6BEC06F0E55277
:1000A0000101BC2BBC51070802E2BC6BB62B81A638
:1000B00003D00101BE0500E1E8D712001200F29A58
:1000C0008B8C956A83680101936B946B956B966B2F
:1000D000050E935D000E9459000E9559000E965929
:1000E00006E2932B000E942395239623F1D7936B6E
:1000F000946B956B966B0101CE6B200E0101935DA5
:10010000000E9459000E9559000E965958E281B68A
:1001100004D00101010EBE6F74D08150100B4AE073
:100120000101CE5147E1010ECE6F100E0101935D2A
:10013000000E9459000E9559000E96590AE29568E2
:10014000390E9325E96E010E9421EA6E83CFEFFFFD
:100150002CD0956A93C114F094C115F095C116F096
:1001600096C117F0100E145E000E155A165A175A43
:10017000490E1424E96E010E1520EA6EEF508C6EC4
:1001800093C114F094C115F095C116F096C117F003
:10019000100E145E000E155A165A175A490E1424E2
:1001A000E96E010E1520EA6EEF6A932B000E942380
:1001B0009523962381B802D00101CE6B9ED781B6DC
:1001C000FED70101B56BB76BB66BB86B8B9C0C0E91
:1001D00001013A15316F0C0E3C15326F0C0E3E15B5
:1001E000336F0C0E4015346F0C0E4215356F0C0E2C
:1001F0004415366F0C0E4615376F0C0E4815386FC8
:10020000F28A12008B948B928B820101936B946B18
:10021000956B966B050E935D000E9459000E9559E3
:10022000000E965942E25E0E9325E96E010E94216E
:10023000EA6EEF6AAC6BAD6B080EAC5D000EAD59AB
:100240002EE25E0E9325E96E010E9421EA6EEF50C8
:10025000E824E66E5E0E9325E96E010E9421EA6EA7
:10026000E552E750EF6E8250010B010A146E5E0EEC
:100270009325E96E010E9421EA6EEF501424E66E88
:100280005E0E9325E96E010E9421EA6EE552E75069
:10029000EF6E8B848B94AC2B000EAD23CDD7932BBC
:1002A000000E942395239623B5D78B92010E5E15ED
:1002B00002E0000E01D0010E056F020E5E1502E095
:1002C000000E01D0010E066F040E5E1502E0000E56
:1002D00001D0010E076F080E5E1502E0000E01D07E
:1002E000010E086F100E5E1502E0000E01D0010E27
:1002F000096F200E5E1502E0000E01D0010E0A6F9C
:10030000400E5E1502E0000E01D0010E0B6F800E54
:100310005E1502E0000E01D0010E0C6F936B946B22
:10032000956B966B040E935D000E9459000E9559D3
:10033000000E965901E32FD2386B010E0C6F040E9C
:10034000186E196A1A6A1B6A9351185C146E9451DC
:100350001958156E95511A58166E96511B58176EEE
:100360005E0E1424E96E010E1520EA6EEF500101B5
:10037000C91502E001010C6B93C106F094C107F0AE
:1003800095C108F096C109F0020E0B6E0C6A0D6A59
:100390000E6A78EC07F002C0E9FF03C0EAFF0E0E18
:1003A000E926010EEA22EF50E82401010C11F009C0
:1003B000E66E93C106F094C107F095C108F096C1AE
:1003C00009F0020E0B6E0C6A0D6A0E6A78EC07F0EB
:1003D00002C0E9FF03C0EAFF0E0EE926010EEA2281
:1003E000E552E750EF6E93C106F094C107F095C156
:1003F00008F096C109F0020E0B6E0C6A0D6A0E6AC7
:1004000078EC07F002C0E9FF03C0EAFF0E0EE92610
:10041000010EEA22EF50F00804E10101C45101018C
:1004200038270101010E0C6F040E186E196A1A6A42
:100430001B6A9351185C146E94511958156E95519E
:100440001A58166E96511B58176E5E0E1424E96EDC
:10045000010E1520EA6EEF500101CA1502E00101FC
:100460000C6B93C106F094C107F095C108F096C1DA
:1004700009F0020E0B6E0C6A0D6A0E6A78EC07F03A
:1004800002C0E9FF03C0EAFF150EE926010EEA22C9
:10049000EF50E82401010C11F009E66E93C106F05B
:1004A00094C107F095C108F096C109F0020E0B6ED9
:1004B0000C6A0D6A0E6A78EC07F002C0E9FF03C00F
:1004C000EAFF150EE926010EEA22E552E750EF6E2B
:1004D00093C106F094C107F095C108F096C109F0E8
:1004E000020E0B6E0C6A0D6A0E6A78EC07F002C001
:1004F000E9FF03C0EAFF150EE926010EEA22EF50DC
:10050000F00804E10101C551010138270101010E84
:100510000C6F040E186E196A1A6A1B6A9351185CE4
:10052000146E94511958156E95511A58166E9651AD
:100530001B58176E5E0E1424E96E010E1520EA6E2C
:10054000EF500101CB1502E001010C6B93C106F0E5
:1005500094C107F095C108F096C109F0020E0B6E28
:100560000C6A0D6A0E6A78EC07F002C0E9FF03C05E
:10057000EAFF1C0EE926010EEA22EF50E8240101F1
:100580000C11F009E66E93C106F094C107F095C115
:1005900008F096C109F0020E0B6E0C6A0D6A0E6A25
:1005A00078EC07F002C0E9FF03C0EAFF1C0EE92661
:1005B000010EEA22E552E750EF6E93C106F094C1B6
:1005C00007F095C108F096C109F0020E0B6E0C6A97
:1005D0000D6A0E6A78EC07F002C0E9FF03C0EAFF7B
:1005E0001C0EE926010EEA22EF50F00804E1010199
:1005F000C651010138270101010E0C6F040E186E5F
:10060000196A1A6A1B6A9351185C146E945119582E
:10061000156E95511A58166E96511B58176E5E0E30
:100620001424E96E010E1520EA6EEF500101CC157D
:1006300002E001010C6B93C106F094C107F095C173
:1006400008F096C109F0020E0B6E0C6A0D6A0E6A74
:1006500078EC07F002C0E9FF03C0EAFF230EE926A9
:10066000010EEA22EF50E82401010C11F009E66EB8
:1006700093C106F094C107F095C108F096C109F046
:10068000020E0B6E0C6A0D6A0E6A78EC07F002C05F
:10069000E9FF03C0EAFF230EE926010EEA22E55234
:1006A000E750EF6E93C106F094C107F095C108F0D2
:1006B00096C109F0020E0B6E0C6A0D6A0E6A78EC98
:1006C00007F002C0E9FF03C0EAFF230EE926010E8E
:1006D000EA22EF50F00804E10101C7510101382777
:1006E00093C106F094C107F095C108F096C109F0D6
:1006F000020E0B6E0C6A0D6A0E6A78EC07F002C0EF
:10070000E9FF03C0EAFF050EE926010EEA22EF50D9
:1007100004E00101C8510101382793C118F094C1C8
:1007200019F095C11AF096C11BF0D89018361936F9
:100730001A361B36182A000E19221A221B22490EBD
:100740001824E96E010E1920EA6EEF50030B010127
:100750003825E66E93C114F094C115F095C116F0DA
:1007600096C117F0D8901436153616361736142A57
:10077000000E152216221722490E1424E96E010ECE
:100780001520EA6EE552E750EF6E932B000E94238E
:1007900095239623C7D5936B946B956B966B040E3C
:1007A000935D000E9459000E9559000E965901E381
:1007B00024D2386B010E0C6F0101C9390F0B1C6E6E
:1007C000040E186E196A1A6A1B6A01019351185CAB
:1007D000146E94511958156E95511A58166E9651FB
:1007E0001B58176E5E0E1424E96E010E1520EA6E7A
:1007F000EF501C1401E00C6B93C118F094C119F078
:1008000095C11AF096C11BF0D890183619361A36D1
:100810001B36182A000E19221A221B220E0E18242B
:10082000E96E010E1920EA6EEF50E8240C11F00970
:10083000E66E93C114F094C115F095C116F096C1FF
:1008400017F0D8901436153616361736142A000EBF
:100850001522162217220E0E1424E96E010E152001
:10086000EA6EE552E750EF6E93C114F094C115F0B3
:1008700095C116F096C117F0D89014361536163675
:100880001736142A000E1522162217220E0E1424D3
:10089000E96E010E1520EA6EEF50F00804E1010147
:1008A000C45101013827010E0C6F0101CA390F0B29
:1008B0001C6E040E186E196A1A6A1B6A01019351A4
:1008C000185C146E94511958156E95511A58166E7D
:1008D00096511B58176E5E0E1424E96E010E1520FA
:1008E000EA6EEF501C1401E00C6B93C118F094C138
:1008F00019F095C11AF096C11BF0D8901836193628
:100900001A361B36182A000E19221A221B22150E1F
:100910001824E96E010E1920EA6EEF50E8240C113C
:10092000F009E66E93C114F094C115F095C116F06C
:1009300096C117F0D8901436153616361736142A85
:10094000000E152216221722150E1424E96E010E30
:100950001520EA6EE552E750EF6E93C114F094C192
:1009600015F095C116F096C117F0D89014361536CB
:1009700016361736142A000E152216221722150EC7
:100980001424E96E010E1520EA6EEF50F00804E120
:100990000101C55101013827010E0C6F0101CB394E
:1009A0000F0B1C6E040E186E196A1A6A1B6A01017D
:1009B0009351185C146E94511958156E95511A582C
:1009C000166E96511B58176E5E0E1424E96E010EBA
:1009D0001520EA6EEF501C1401E00C6B93C118F067
:1009E00094C119F095C11AF096C11BF0D890183631
:1009F00019361A361B36182A000E19221A221B2203
:100A00001C0E1824E96E010E1920EA6EEF50E8243E
:100A10000C11F009E66E93C114F094C115F095C164
:100A200016F096C117F0D8901436153616361736CC
:100A3000142A000E1522162217221C0E1424E96E09
:100A4000010E1520EA6EE552E750EF6E93C114F0E7
:100A500094C115F095C116F096C117F0D8901436D0
:100A6000153616361736142A000E152216221722AE
:100A70001C0E1424E96E010E1520EA6EEF50F008EA
:100A800004E10101C65101013827010E0C6F01017B
:100A9000CC390F0B1C6E040E186E196A1A6A1B6A89
:100AA00001019351185C146E94511958156E9551AB
:100AB0001A58166E96511B58176E5E0E1424E96E66
:100AC000010E1520EA6EEF501C1401E00C6B93C16F
:100AD00018F094C119F095C11AF096C11BF0D89086
:100AE000183619361A361B36182A000E19221A2201
:100AF0001B22230E1824E96E010E1920EA6EEF5016
:100B0000E8240C11F009E66E93C114F094C115F0BD
:100B100095C116F096C117F0D890143615361636D2
:100B20001736142A000E152216221722230E14241B
:100B3000E96E010E1520EA6EE552E750EF6E93C1A3
:100B400014F094C115F095C116F096C117F0D89025
:100B50001436153616361736142A000E15221622AC
:100B60001722230E1424E96E010E1520EA6EEF50B1
:100B7000F00804E10101C7510101382793C114F0C5
:100B800094C115F095C116F096C117F0D89014369F
:100B9000153616361736142A000E1522162217227D
:100BA000050E1424E96E010E1520EA6EEF5004E0E4
:100BB0000101C8510101382793C114F094C115F007
:100BC00095C116F096C117F0D89014361536163622
:100BD0001736090E1426000E152216221722490E6A
:100BE0001424E96E010E1520EA6E38C1EFFF932B35
:100BF000000E942395239623D2D512008B968B9AC0
:100C00008B985EC159F101015A695B695C695D6944
:100C1000B46931510C0A0EE0040A09E00C0A05E03F
:100C2000040A01E00BD0599109D0B49107D0B491D6
:100C3000B49304D0B491B495596B00D0055105E03C
:100C40000101BB0502E10101B4950101065105E076
:100C50000101BB0502E10101B49BB4C15DF10101D9
:100C6000936B946B956B966B050E935D000E945988
:100C7000000E9559000E965929E2800E006FAA6B5E
:100C8000AB6B080EAA5D000EAB591AE2590E932504
:100C9000E96E010E9421EA6EEF50001502E0000E9D
:100CA00001D0010EE8B08B86E8A08B968B760041D0
:100CB0007F0B006F8B8A8B9AAA2B000EAB23E1D798
:100CC000932B000E942395239623CED78B88010176
:100CD000010EB76F1200D9CFE6FFE1CFD9FFFE0EAC
:100CE000DB50146E156A086A100E096E14C00DF000
:100CF00015C00EF0E7EC07F006C0B2F107C0B3F183
:100D0000000E0101B227100EB3238A928A90FE0EC4
:100D1000DB50E824010FEA6A390FE96E010EEA227E
:100D2000EF50030BAE6FAF6BAEC1AFF1AE6BFE0E0B
:100D3000DB50E824EA6A390FE96E010EEA22EF502F
:100D4000AE25AE6F000EAF21AF6FAEC114F0AFC1D4
:100D500015F0D89014361536D89014361536B25191
:100D60001424B06FB3511520B16FA76BA86B100E90
:100D7000A75D000EA85913E2B151800B02E08A84EE
:100D800001D08A94010ED890B037B137E806FBE164
:100D90008A828A920101A72B000EA823E8D78A80B5
:100DA000E552E7CFD9FF1200010E946EFB0E926E52
:100DB000F80E936E966A0F0EE66E060EE66ED50E70
:100DC000E66EB0EC07F0E552E552E5520E0EC16E4C
:100DD000F26AF28EF28CF28AD70EE66E14EC08F00C
:100DE000E5521200D9CFE6FFE1CFD9FFE66A30EC39
:100DF00008F0E55261EC08F05CEC08F0000901E055
:100E0000FBD7FE0EDB50E824EA6A490FE96E010EBB
:100E1000EA22C3CFEFFFFE0EDB50E824010FEA6A9F
:100E2000490FE96E010EEA22EF50FC0BC424E66E76
:100E3000FE0EDB50E824010FEA6A490FE96E010E4D
:100E4000EA22E552E750EF6EE552E7CFD9FF1200F4
:020E500012008E
:0E0E5200060EF66E000EF76E000EF86E010131
:100E60000900F550D46F0900F550D56F03E1D46740
:100E700001D03DD00900F550CF6F0900F550D06F7B
:100E80000900F550D16F09000900F550E96E09001D
:100E9000F550EA6E090009000900F550D26F09000B
:100EA000F550D36F09000900F6CFD6F1F7CFD7F18F
:100EB000F8CFD8F1CFC1F6FFD0C1F7FFD1C1F8FF0D
:100EC0000101D25302E1D35307E00900F550EE6E61
:100ED000D207F8E2D307F9D7D6C1F6FFD7C1F7FF9B
:100EE000D8C1F8FF0101D407000ED55BBFD71200AF
:100EF00006500B02F3CF02F0F4CF03F00C02F350D4
:100F00000326000EF420046E06500D02F350042652
:100F1000000EF420056E06500E02F3500526075011
:100F20000B02F3500326F4500422000E0522075052
:100F30000C02F3500426F450052207500D02F35022
:100F4000052608500B02F3500426F45005220850E1
:100F50000C02F350052609500B02F350052612002F
:100F6000D9CFE6FFDACFE6FFE1CFD9FFE2CFDAFF54
:100F7000C26AC06AFC0EDB407F0B3C0BC26EFB0EEC
:100F8000DBCFE6FFFC0EDB38F00B300BE552E71051
:100F9000C16EFD0EDB50040DF350380B156EFD0EC7
:100FA000DB380F0B070B146EFD0EDB50800B14109B
:100FB0001510C06EFC0EDBAE03D09E9C9D8CF28C97
:0E0FC000C280E552E5CFDAFFE7CFD9FF12007D
:020FCE0009C058
:100FD00013F008C012F008500D02F4CF07F0F3CF61
:100FE00006F009500E02F4CF09F0F3CF08F00D021D
:100FF000F3500726F4500822E86A092212500E0224
:10100000F3500726F4500822E86A09220EAE0DEFCD
:1010100008F01250085E1350095A13AE000C0D5020
:08102000085E0E50095A000C95
:08102800D9CFE6FFDACFE6FFA5
:10103000E1CFD9FFE2CFDAFFFD0EDB507F0BD56E9B
:10104000D76AD66AF294FD0EDBAE02D0F28A01D0E6
:10105000F29AD58EE552E5CFDAFFE7CFD9FF12003D
:10106000D9CFE6FFDACFE6FFE1CFD9FFE2CFDAFF53
:10107000C30EC214146EFD0EDB407F0B3C0B14102C
:0E108000C26EE552E5CFDAFFE7CFD9FF1200CE
:02108E0015EE5D
:1010900000F025EE00F0F86A019C29EC07F063EC03
:0A10A00008F03EEC00F0FBD7120050
:0610AA0000EE00F00F0E45
:0810B000EE6AEA62FDD71200AE
:0810B800C250020B01E0010E21
:0210C00012001C
:0410C200C2821200D4
:0210C600120016
:0810C800000000000000000020
:1010D0000000000004080C0408102040801020408C
:0210E00000000E
:020000040030CA
:010003001EDE
:00000001FF
