:020000040000FA
:0600000007EF0FF01200F3
:020006001200E6
:060008000FEF00F01200F2
:02000E00C250DE
:08001000020B01E0010E1200D9
:08001800C5EF00F01200DACF81
:10002000E4FFE2CFDAFFE9CFE4FFEACFE4FFF6CF67
:10003000E4FFF7CFE4FFF5CFE4FFF3CFE4FFF4CF25
:10004000E4FFFACFE4FF00EE1EF0140EE80403E331
:10005000EECFE4FFFBD700EE32F0140EE80403E32A
:10006000EECFE4FFFBD7E652F2A46BD01D2A0D2A97
:10007000000E0E22030E1D1403085AE10B2A000E77
:100080000C22BCEC04F0C3EC04F0F3CF15F0F4CF79
:1000900016F00001010EBC6F0001E55148E10001BE
:1000A0000B50AA5D4A6E0C50AB594B6E4AC026F0FD
:1000B0004BC027F005C02BF006C02CF07AEC0AF0FC
:1000C00024C048F025C049F00BC026F00CC027F032
:1000D00007C02BF008C02CF07AEC0AF0485024241A
:1000E000466E49502520476E46C026F047C027F08F
:1000F000AAC02BF0ABC02CF0E1EC0EF026C013F040
:1001000027C014F015C0E6FF16C0E6FF13C0E6FFD7
:1001100014C0E6FF28EC01F0E552E552E552E55245
:100120000001BF51C01102E08CEC03F001D08B90B4
:100130000F0E1D140F0804E1B4EC0BF0C5EC0BF02E
:10014000F294E55200EE45F0140EE80403E3E5CF27
:10015000EDFFFBD700EE31F0140EE80403E3E5CF2A
:10016000EDFFFBD7E5CFFAFFE5CFF4FFE5CFF3FFD7
:10017000E5CFF5FFE5CFF7FFE5CFF6FFE5CFEAFFE7
:10018000E5CFE9FFE5CFDAFF1100D8CFE4FFE0CFFC
:10019000E4FFE46EDACFE4FFE2CFDAFFE652D9CF34
:1001A000E6FFE1CFD9FFE6529EA62CD0C950DF6E04
:1001B0009E960001C85119E1C82BDF50176E330E0F
:1001C0001814080FC96E096A100E1814100802E1FD
:1001D000000E01D0010E4C6E8A50010B010A4C1426
:1001E000E8B08A80E8A08A900BD0C86B1750006EE8
:1001F000DF50016E0250C96E0350186E010E096E79
:100200000D6A0E6AE552E552E7CFD9FFE552E5CF18
:0E021000DAFFE550E5CFE0FFE5CFD8FF1000A4
:02021E000400DA
:100220003F1E0000AA00000025000000331E000051
:10023000CF0000000C000000301E0000E5000000B0
:10024000030000002E1E0000EA0000000200000073
:10025000D9CFE6FFE1CFD9FF040EE126FD0EDBCFBB
:1002600034F0FE0EDBCF35F0FB0EDB50345C326E2B
:10027000FC0EDB503558336E020E32C0DBFF030E2E
:1002800033C0DBFFFB0EDBCF36F0FC0EDBCF37F0ED
:10029000386A396A37AE02D03868396800018E5141
:1002A000365C326E8F513758336E90513858346EF9
:1002B00091513958356E32C0DEFF33C0DDFF000E7C
:1002C000DFCF26F0010EDBCF27F05BEC09F025C075
:1002D00036F026C037F027C038F028C039F036C0D5
:1002E000E6FF37C0E6FF38C0E6FF39C0E6FFC6ECE0
:1002F0000DF0E552E552E552E55224C032F025C03A
:1003000033F026C034F027C035F032C0E6FF33C0EA
:10031000E6FF34C0E6FF35C0E6FFA8C026F0A9C05E
:1003200027F05BEC09F025C03EF026C03FF027C067
:1003300040F028C041F03EC0E6FF3FC0E6FF40C0AD
:10034000E6FF41C0E6FFC6EC0DF0E552E552E5528E
:10035000E552E552E7CF35F0E552E7CF34F0E5520C
:10036000E7CF33F0E552E7CF32F024C03AF025C0B2
:100370003BF026C03CF027C03DF03AC02AF03BC01D
:100380002BF03CC02CF03DC02DF032C025F033C026
:1003900026F034C027F035C028F0C7EC0AF0010A77
:1003A0001BE1DE500001A8250001326EDD50000186
:1003B000A9210001336E020E2B6E2C6A32C026F08A
:1003C00033C027F020EC0AF026C032F027C033F00B
:1003D00032C0DEFF33C0DDFF020EDBCF26F0030E9E
:1003E000DBCF27F05BEC09F025C036F026C037F0F4
:1003F00027C038F028C039F036C0E6FF37C0E6FF26
:1004000038C0E6FF39C0E6FFC6EC0DF0E552E55214
:10041000E552E55224C032F025C033F026C034F056
:1004200027C035F032C0E6FF33C0E6FF34C0E6FF38
:1004300035C0E6FF8AC024F08BC025F08CC026F0C2
:100440008DC027F070EC09F025C03EF026C03FF0CB
:1004500027C040F028C041F03EC0E6FF3FC0E6FFA5
:1004600040C0E6FF41C0E6FFC6EC0DF0E552E552A4
:10047000E552E552E552E7CF35F0E552E7CF34F0EB
:10048000E552E7CF33F0E552E7CF32F024C03AF03F
:1004900025C03BF026C03CF027C03DF03AC02AF012
:1004A0003BC02BF03CC02CF03DC02DF032C025F0FD
:1004B00033C026F034C027F035C028F0D0EC0AF065
:1004C000010A24E0020EDBCF32F0030EDBCF33F063
:1004D000346A356A33AE02D03468356898C024F087
:1004E00099C025F09AC026F09BC027F032C029F0B1
:1004F00033C02AF034C02BF035C02CF023EC0DF0C3
:10050000205000018827215089230DD0080E2B6E22
:100510002C6A88C026F089C027F020EC0AF026C09B
:1005200088F027C089F0020E2B6E2C6A88C026F056
:1005300089C027F020EC0AF026C088F027C089F097
:100540000001D25100018919E8AE02D0893507D0E7
:1005500088510001D15D000189510001D25904E2A6
:10056000D1C088F0D2C089F0D1C032F0D2C033F00F
:10057000326C331E000E3322000189513318E8AE6D
:1005800002D0333404D03250885D3350895908E2A8
:10059000D1C088F0D2C089F0886D891F000E8923F0
:1005A000020EDBCF8AF0030EDBCF8BF08C6B8D6BF2
:1005B0008BAF02D08C698D69FB0EDBCF8EF0FC0E09
:1005C000DBCF8FF0906B916B8FAF02D09069916908
:1005D00088C03EF089C03FF0406A416A3FAE02D019
:1005E00040684168020EDBCF3AF0030EDBCF3BF0F0
:1005F0003C6A3D6A3BAE02D03C683D6894C024F042
:1006000095C025F096C026F097C027F03AC029F093
:100610003BC02AF03CC02BF03DC02CF023EC0DF089
:10062000205000013E24366E21503F20376E22506C
:100630004020386E23504120396EDECF42F0DDCFAE
:1006400043F0446A456A43AE02D0446845689CC0A2
:1006500024F09DC025F09EC026F09FC027F042C028
:1006600029F043C02AF044C02BF045C02CF023EC05
:100670000DF02050365C326E21503758336E2250C8
:100680003858346E23503958356E32C024F033C098
:1006900025F034C026F035C027F0A0C029F0A1C055
:1006A0002AF0A2C02BF0A3C02CF023EC0DF020C048
:1006B00084F021C085F022C086F023C087F0640E4C
:1006C000296E2A6A2B6A2C6A84C024F085C025F022
:1006D00086C026F087C027F046EC0AF024C084F0DC
:1006E00025C085F026C086F027C087F0DECFA8F0B1
:1006F000DDCFA9F00001E55105E00001886B896BB1
:10070000A86BA96B040EE15C02E2E16AE552E16EBE
:10071000E552E7CFD9FF1200D9CFE6FFE1CFD9FFED
:10072000060EE126040EDB6A050EDB6A0001800E70
:1007300087155CE084C024F085C025F086C026F0D3
:1007400087C027F070EC09F025C036F026C037F0DE
:1007500027C038F028C039F036C0E6FF37C0E6FFC2
:1007600038C0E6FF39C0E6FFC6EC0DF0E552E552B1
:10077000E552E55224C032F025C033F026C034F0F3
:1007800027C035F032C025F033C026F034C027F042
:1007900035C028F098EC0AF026C0DEFF27C0DDFF48
:1007A000DECF32F0DDCF33F000013250CF5D335079
:1007B000D05904E2CFC0DEFFD0C0DDFF020EDB6AFD
:1007C000030EDB6ADECFE6FFDDCFE6FFF9EC0DF0CE
:1007D000E552E552020EDBCFE6FF030EDBCFE6FF6C
:1007E00028EC0EF0E552E5528B80ACD08735000E38
:1007F000871909E6D880000E8455000E8555000E35
:100800008655000E875501E38ED0040EDBCF26F00F
:10081000050EDBCF27F05BEC09F025C032F026C0D7
:1008200033F027C034F028C035F032C0E6FF33C0C3
:10083000E6FF34C0E6FF35C0E6FF84C024F085C083
:1008400025F086C026F087C027F070EC09F025C09F
:100850003AF026C03BF027C03CF028C03DF03AC03B
:10086000E6FF3BC0E6FF3CC0E6FF3DC0E6FFC6EC4E
:100870000DF0E552E552E552E552E552E7CF35F08D
:10088000E552E7CF34F0E552E7CF33F0E552E7CF5A
:1008900032F024C036F025C037F026C038F027C02B
:1008A00039F036C02AF037C02BF038C02CF039C0F0
:1008B0002DF032C025F033C026F034C027F035C00B
:1008C00028F08AEC09F098EC0AF0020E26C0DBFF53
:1008D000030E27C0DBFF020EDBCF32F0030EDBCFAF
:1008E00033F000013250CF5D3350D05906E2020E92
:1008F000CFC0DBFF030ED0C0DBFFDE6ADD6ADECFD8
:10090000E6FFDDCFE6FFF9EC0DF0E552E552020E11
:10091000DBCFE6FF030EDBCFE6FF28EC0EF0E5525F
:10092000E5528B800FD0000EE66EE66AF9EC0DF012
:10093000E552E552000EE66EE66A28EC0EF0E5524E
:10094000E5528B900FD0000EE66EE66AF9EC0DF0E2
:10095000E552E552000EE66EE66A28EC0EF0E5522E
:10096000E5528B90060EE15C02E2E16AE552E16E2F
:10097000E552E7CFD9FF1200870EE66ECAEC0EF003
:10098000E55215EF0FF0D9CFE6FFE1CFD9FF060E04
:10099000E12607EC00F0000901E0FBD7C450DE6E51
:1009A000DD6ADECF32F0DDCF33F032C033F0326AB1
:1009B00032C0DEFF33C0DDFFC350E76E000EDFCF75
:1009C00032F0010EDBCF33F0E7503226000E332237
:1009D00032C0DEFF33C0DDFF0001B1510AE1DECFDE
:1009E00032F0DDCF33F032C0F3FF33C0F4FFADD0CF
:1009F000ACD0DECF32F0DDCF33F0020E32C0DBFF01
:100A0000030E33C0DBFF040EDB6A050EDB6AD5C0C4
:100A100032F0D6C033F0346A356AD950020FE96E2D
:100A2000DACFEAFF3250EE5E3350EE5A3450EE5ACF
:100A30003550EE5AD950020FE96EDACFEAFFD8905E
:100A4000030EEB50000A08E6000EEE5C000EEE58B6
:100A5000000EEE58000EEE5808E2020EDB6A030E9E
:100A6000DB6A040EDB6A050EDB6AD7C024F0D8C04F
:100A700025F0D9C026F0DAC027F0020EDBCF29F02E
:100A8000030EDBCF2AF0040EDBCF2BF0050EDBCFFD
:100A90002CF023EC0DF0020E20C0DBFF030E21C072
:100AA000DBFF040E22C0DBFF050E23C0DBFF020EBE
:100AB000DBCF24F0030EDBCF25F0040EDBCF26F0D6
:100AC000050EDBCF27F0640E296E2A6A2B6A2C6A8A
:100AD00046EC0AF0020E24C0DBFF030E25C0DBFF4C
:100AE000040E26C0DBFF050E27C0DBFF020EDBCFA6
:100AF00025F0030EDBCF26F0040EDBCF27F0050E2A
:100B0000DBCF28F02834000E281809E6D880FF0E25
:100B10002554030E2654000E2754000E28540AE2D2
:100B2000020EDB68030EF36EF3CFDBFF040EDB6A0D
:100B3000050EDB6A020EDBCF32F0030EDBCF33F0A3
:100B400032C0F3FF33C0F4FF00D0060EE15C02E2D6
:100B5000E16AE552E16EE552E7CFD9FF1200D9CF45
:100B6000E6FFE1CFD9FF040EE1260001D551D35DA8
:100B7000326ED451D655336E000E32C0DFFF010EF7
:100B800033C0DBFF020EDB6A030EDB6A9C0E326EA3
:100B90008F0E336E010E346E356A32C024F033C0CE
:100BA00025F034C026F035C027F0DFCF29F0DBCFA9
:100BB0002AF0020EDBCF2BF0030EDBCF2CF057EC2C
:100BC0000EF024C0D7F025C0D8F026C0D9F027C039
:100BD000DAF0040EE15C02E2E16AE552E16EE55210
:100BE000E7CFD9FF1200D9CFE6FFE1CFD9FFFE0E44
:100BF000DB50040A01E17FD0070A5FE0010A3EE012
:100C0000030A1EE0960E0001926F936B946F956B32
:100C1000966B976B030E986F996B9A6B9B6BF40EA8
:100C20009C6F010E9D6F9E6B9F6B060EA06FA16B5C
:100C3000A26BA36BA46BA56BA669030EA76F7BD0F9
:100C4000960E0001926F936B640E946F956B966B8A
:100C5000976B050E986F996B9A6B9B6BDC0E9C6F74
:100C6000050E9D6F9E6B9F6BA06FA16BA26BA36B1C
:100C7000A46BA56BA669030EA76F5DD0960E00014D
:100C8000926F936B2C0E946F010E956F966B976B12
:100C90001E0E986F996B9A6B9B6B980E9C6F080E4B
:100CA0009D6F9E6B9F6BA06FA16BA26BA36BA46BE0
:100CB000A56BA669030EA76F3ED0640E0001926F6C
:100CC000936B0A0E946F956B966B976B020E986FF1
:100CD000996B9A6B9B6BAA0E9C6F9D6B9E6B9F6B27
:100CE000080EA06FA16BA26BA36BA46BA56B640E27
:100CF000A66FA76B20D0640E0001926F936BBC0EA1
:100D0000946F020E956F966B976B320E986F996B7E
:100D10009A6B9B6BF40E9C6F010E9D6F9E6B9F6B8D
:100D20000A0EA06FA16BA26BA36BA46BA56BA66947
:0E0D3000030EA76F00D0E552E7CFD9FF1200E7
:020D3E00D9CF0B
:100D4000E6FFE1CFD9FF040EE1262DD90B6A0C6A2C
:100D50000001BC5101E106D1BC6B020E07C0DBFFF4
:100D6000030E08C0DBFFD950020FE96EDACFEAFFAD
:100D70001550EE5E1650ED5A020EDBCF26F0030E34
:100D8000DBCF27F05BEC09F025C036F026C037F04A
:100D900027C038F028C039F036C0E6FF37C0E6FF7C
:100DA00038C0E6FF39C0E6FFC6EC0DF0E552E5526B
:100DB000E552E55224C032F025C033F026C034F0AD
:100DC00027C035F0C1C026F0C2C027F059EC09F0A9
:100DD00025C03AF026C03BF027C03CF028C03DF0CB
:100DE0003AC02AF03BC02BF03CC02CF03DC02DF0A7
:100DF00032C025F033C026F034C027F035C028F0CB
:100E0000C7EC0AF0010A04E1C3C0BDF0C4C0BEF0E3
:100E10000001E55108E015C0B9F016C0BAF0C3C032
:100E2000BDF0C4C0BEF015C0B9F016C0BAF009508C
:100E300074E00001B15171E0000E0014326E0C0E2E
:100E40000114336E325002E1080E331845E1000EF2
:100E50000014326EF00E0114336E325002E1400E77
:100E6000331822E0325002E1300E331813E03250D2
:100E700002E1200E331801E02ED00050E66E010E84
:100E8000E66EFED9E552E552FF0E00010014046F34
:100E9000056B21D00050E66EE66AF2D9E552E552C4
:100EA00000500001B66F17D00050E66E020EE66EDD
:100EB000E7D9E552E5520001B16BAC5102E0000EFA
:100EC00001D0010EAD6BAE6B070E0014E66EF3ECB5
:100ED00005F0E55200D021D007C005F008C006F0AB
:100EE000FF0E0014076E030E0114086EAA510B24A6
:100EF000AA6FAB510C20AB6F010EAA5F000EAB5B6B
:100F0000010E0F0B05E0D890AB33AA33E806FBE1E6
:100F10000B6A0C6A010E1C6E096A0001B15115E1E1
:100F20000F0ED8800B54000E0C540FE207C005F0D2
:100F300008C006F006D9F3CF07F0F4CF08F00BC0D5
:100F4000AAF00CC0ABF00B6A0C6A0001BD51BE11D7
:100F500003E1BF6BC06B06D0010EBF6FC06BBD0756
:100F6000000EBE5B1C5014E01C6A000E0214326EB0
:100F7000FC0E0314336E3250B925026E3350BA2181
:100F8000036EB15105E00001E5510398E8B0038814
:100F9000DFD6040EE15C02E2E16AE552E16EE55261
:100FA000E7CFD9FF1200D9CFE6FFE1CFD9FF070E77
:100FB000E126010EDB680F0EF36E020EF3CFDBFFAE
:100FC000400EF36E030EF3CFDBFF0D0EF36E040E37
:100FD000F3CFDBFF030EF36E050EF3CFDBFF060E40
:100FE000DB6A9B809B829B849B869B88D388D38A69
:100FF000D38C9B8C9B9E96989268100E936E280EB5
:10100000946E956A040E966E006A016A026A036A1B
:10101000020EE66E22D9E552E66EF3EC05F0E552DB
:10102000E66A1BD9E5520001B66F010EE66E15D9CE
:10103000E5520001046F056B800B01E00569D89053
:1010400004370537010E0001B65D03E3B6516308AE
:1010500002E2320EB66FD950030FE96EDACFEAFF23
:10106000EF06EECF32F0000EEF5AEECF33F0EF5A2C
:10107000EECF34F0EF5AEFCF35F03250331034105A
:10108000351002E08A90E7D78A80F28CF28ED08EFB
:101090000F0EE66E670EE66EA30EE66E5BEC0DF0CD
:1010A000E552E552E5520C0EC16E040EE66E97EC69
:1010B0000EF0E5529F82CB68E668B2EC0EF0E55286
:1010C000E66A28EC0EF0E552E668ADEC0CF0E5526D
:1010D000E66AF9EC0DF0E552116A126A1C6A010E1B
:1010E000DBCF32F0DB06020EDBCF33F001E2DB06B2
:1010F000325033100AE082A607D0010EDB680F0ED3
:10110000F36E020EF3CFDBFFEAD7E66AE66A040E5F
:10111000E66E92EC0DF0E552E552E5529D869F9603
:10112000D10EE66E7BEC0EF0E552F1848C90070E4A
:10113000E15C02E2E16AE552E16EE552E7CFD9FFF8
:101140001200F30E03140009036E039C039E039820
:10115000039A0001AC510FE1CD6BCE6BAD2B000EAD
:10116000AE230A0ED880AD55000EAE5504E2010E36
:10117000AC6F116A126AAC0535E1112A000E122219
:10118000080ED8801154000E12542CE2F00ECD5DE2
:10119000030ECE5905E20F0ECD27000ECE2322D02E
:1011A000CD69030ECE6FAD2B000EAE23320ED8806C
:1011B000AD55000EAE5516E2BCEC04F0C3EC04F0E5
:1011C000F3CFD3F0F4CFD4F00001200ED35D030EA3
:1011D000D45903E2D369030ED46F0001AD6BAE6B3B
:1011E000020EAC6F020EAC5D32E10F0ED880CD5511
:1011F000000ECE5505E20F0ECD5F000ECE5B27D060
:10120000CD6BCE6BAD2B000EAE23320ED880AD551C
:10121000000EAE551CE2BCEC04F0C3EC04F0F3CFBE
:10122000D5F0F4CFD6F00001320ED880D555000E9F
:10123000D65502E2D56BD66B0001AD6BAE6BAFEC51
:1012400005F00001010EB16FAC6B94869488CDC09F
:10125000F3FFCEC0F4FF00D01200D9CFE6FFE1CFFC
:10126000D9FFE652FE0EDB50A96EA69EA69CA68074
:10127000A850DF6E00D0E552E552E7CFD9FF12004B
:10128000D9CFE6FFE1CFD9FFFE0EDB50A96EFD0EF0
:10129000DB50A86EA69EA69CA684F29EF29E550EDA
:1012A000A76EAA0EA76EA682F28EE552E7CFD9FFEF
:0212B00012002A
:0E12B2001F9E08D01F9E27AE05D0266C271E5B
:1012C000E86A27221F8E27C021F026C020F0316A4D
:1012D000306A8E0E226E236A4AEF0BF01F9E0CD0EE
:1012E0001F9E27AE09D0246C251E261E271EE86AE5
:1012F0002522262227221F8E27C021F026C020F07B
:1013000025C031F024C030F09E0E226E236A4AEFD1
:101310000BF02D7E1F6A86EC0BF09EEC0BF01FB6D7
:101320002EEF0BF01FA20AD01FAA03D01FBE2EEF74
:101330000BF01FA43AEF0BF037EF0BF01FAA05D00C
:101340001FAC3AEF0BF037EF0BF01FA00AD01FA82D
:1013500008D01FBE04D01FA402D043EF0BF047EF0C
:101360000BF0306A236A2D50285C2F6E10E325C0E5
:1013700031F026C020F027C021F028C02EF02AC06E
:1013800025F02BC026F02CC027F01F3A09D02AC028
:1013900031F02BC020F02CC021F02DC02EF02F6C8E
:1013A0001F9E1FBC1F8E2EC022F01FB076EF0BF0C9
:1013B0001A0E2F6076EF0BF0226A286A1FA408D05D
:1013C000256C261E271E281EE86A26222722282290
:1013D0001FAC08D0316C201E211E221EE86A20227C
:1013E00021222222246A2F5207E028342732263273
:1013F000253224322F2EF9D725503126265020228F
:10140000275021222850222224C030F01F9E22AED5
:101410000BD0306C311E201E211E221EE86A3122A4
:101420002022212222221F8E22A006D0D880213203
:101430002032313230322E2A2EC022F04AEF0BF009
:101440001E6A2CAE29EF0AF02B6C2C1EE86A2C22A7
:101450001E1E27AE31EF0AF0266C271EE86A2722EF
:101460001E1EE1EC0EF027BE41EF0AF01EAE000C8E
:10147000266C271EE86A2722226C231EE86A232294
:10148000000C1EBE38EF0AF01F88FF0C1E6AE86AC7
:101490002CAE53EF0AF0296C2A1E2B1E2C1E2A227A
:1014A0002B222C221E1E27AE5EEF0AF0246C251E76
:1014B000261E271E2522262227221E1E57EC0EF04E
:1014C00027BE75EF0AF01EAE000C246C251E261EEA
:1014D000271EE86A252226222722206C211E221E92
:1014E000231E212222222322000C1EBE65EF0AF0B9
:1014F0001F88FF0C26C030F026502B02F4CF25F0B9
:10150000F3CF24F027502C02F4CF27F0F3CF26F0AE
:101510002B02F3502526F4502622E86A2722305069
:101520002C02F3502526F4502622E86A2722000CCC
:101530001F6A86EC0BF01FB6A2EF0AF01FA20ED0B6
:101540001FB405D07F0E276EFF0E266E1FD0800EB3
:10155000276E266A1BD0276A266A18D01FB0FBD7D1
:101560008F0E2860EDD77E0E2864F5D78E0E285C8E
:1015700005E0D89027322632282AF8D71FA406D0B3
:10158000266C271EE86A272227AEE5D71200D9EC81
:101590000AF01FB6000C1FB0000C1FB4000C010CA9
:1015A000D9EC0AF01FB6000C1FB0000C1FA4000CF1
:1015B000010C1F6A86EC0BF09EEC0BF01FB61200BC
:1015C0001FAE08D01FA004D01FA802D01F80120099
:1015D0001F9012002D50285C0BE12C50275C08E175
:1015E0002B50265C05E12A50255C02E11F80120089
:1015F000D8A002D01F8E10D028502DC028F02D6EFC
:1016000027502CC027F02C6E26502BC026F02B6EB6
:1016100025502AC025F02A6E2D50285C10E0FF0FBF
:1016200009E01F901FB403D01FAE1F8412001FAE2D
:101630001F9412002D2AD8902C322B322A322A5095
:10164000255E2B50265A2C50275A27BEEAD7D89011
:10165000253626362736282EF8D7C8D77F0E286E8F
:10166000FF0E276E266E256E12007F0E1FBEFF0E28
:10167000286E02D07F0E286E800E276E266A256A9D
:10168000F3D71FAE04D0800E286E276AF7D7286ADA
:10169000276AF4D72150201031103010F8E023BE13
:1016A000F0D721BE0CD022502310EBE0D89030367A
:1016B0003136203621362206D8A02306F2D7235011
:1016C000D4E12228D2E030AE11D07F0E301402E1F6
:1016D00031A00CD0312AE86A2022212207E3D880E9
:1016E000213220323132222A2228BFE02250C9E0A2
:1016F00031C025F020C026F02134276E2230286E1C
:101700002732289E1FBE288E34EF0BF0273628364E
:1017100002E31F841F7E06E11F80286A276A266A6B
:10172000256A1200282803E0D88027321200D890BA
:10173000273202E11F8212001F8612002C362D363E
:1017400002E31F8C1F7E06E11F882D6A2C6A2B6A1C
:101750002A6A12002D2803E0D8802C321200D8907B
:081760002C32EAE11F8A12009D
:08176800929289828F0EE66E59
:10177000CAEC0EF0E55296948D949684BF0EE66EF8
:10178000CAEC0EF0E55215EF0FF0D9CFE6FFE1CF2E
:10179000D9FF040EE1260001B651E66ED950020FC2
:1017A000E96EDACFEAFFE552E750EE6EED6A07EC3C
:1017B00000F0000901E0FBD7C450DE6EDD6ADECF29
:1017C00032F0DDCF33F032C033F0326A32C0DEFFA8
:1017D00033C0DDFFC350E76E000EDFCF32F0010EE5
:1017E000DBCF33F0E7503226000E332232C0DEFF6B
:1017F00033C0DDFF0001B651E66ED950020FE96E2D
:10180000DACFEAFFE552E750EE6EED6AD950020FEB
:10181000E96EDACFEAFF010ED890EE36ED36E80633
:10182000FBE1DECF32F0DDCF33F05A0EE76E020E71
:10183000DBCF34F0030EDBCF35F0E7503426000E5B
:1018400035223450325C3550335809E20001D890CB
:10185000E837E937010EE827000EE92304D000013C
:10186000D890E837E937030EE815326E336A030E75
:10187000321801E1335005E10001010EE56FE66B1E
:10188000E76B0001E851E9110FE10001E62B000EC2
:10189000E72300010451326E336A0001E651325CE5
:1018A000E751335801E2E56B040EE15C02E2E16AC4
:0C18B000E552E16EE552E7CFD9FF1200CF
:0418BC001E0EF66E98
:1018C000020EF76E000EF86E00010900F550E06F91
:1018D0000900F550E16F03E1E06701D03DD0090058
:1018E000F550DB6F0900F550DC6F0900F550DD6F36
:1018F00009000900F550E96E0900F550EA6E09008B
:1019000009000900F550DE6F0900F550DF6F09008E
:101910000900F6CFE2F0F7CFE3F0F8CFE4F0DBC058
:10192000F6FFDCC0F7FFDDC0F8FF0001DE5302E187
:10193000DF5307E00900F550EE6EDE07F8E2DF073F
:10194000F9D7E2C0F6FFE3C0F7FFE4C0F8FF0001FB
:0A195000E007000EE15BBFD71200B4
:06195A00D9CFE6FFDACF51
:10196000E6FFE1CFD9FFE2CFDAFFE652E652E652D8
:10197000E652F8CF02F0F6CF03F00C0EBA6E050E69
:10198000F66EF76A300EF86E0800F550010B03E0B2
:10199000010EDB6802D0010EDB6A010EDB5002E0B3
:1019A000949201D09396CA94FD0EDB50CB6ECA84FC
:1019B00002C0F8FF03C0F6FF040EE15C02E2E16A38
:1019C000E552E16EE552E5CFDAFFE7CFD9FF12002D
:1019D000D9CFE6FFE1CFD9FFE652DF5000D0E55284
:1019E000E552E7CFD9FF1200D9CFE6FFE1CFD9FF0B
:1019F000E552E7CFD9FF1200D9CFE6FFE1CFD9FFFB
:101A0000FE0EDB50EA6A000FE96E000EEA22EF508C
:101A100000D0E552E7CFD9FF1200D9CFE6FFE1CFE2
:101A2000D9FFFE0EDB50026EE552E7CFD9FF120060
:101A3000D9CFE6FFE1CFD9FFFE0EDB50036EE552B2
:061A4000E7CFD9FF120000
:0A1A460024502902F3CF20F0F4CF62
:101A500021F02A02F3502126000EF420226E245099
:101A60002B02F3502226000EF420236E24502C0269
:101A7000F350232625502902F3502126F450222228
:101A8000000E232225502A02F3502226F45023224E
:101A900025502B02F350232626502902F3502226EC
:101AA000F450232226502A02F350232627502902DD
:061AB000F3502326120092
:0A1AB600D9CFE6FFDACFE6FFE1CF5B
:101AC000D9FFE2CFDAFFC26AC06AFC0EDB407F0BAF
:101AD0003C0BC26EFC0EDB38F00B300B326EFB0E93
:101AE000DB500F0B3210C16EFD0EDB50040DF350B6
:101AF000380B336EFD0EDB380F0B070B326EFD0E0D
:101B0000DB50800B32103310C06EFC0EDBAE03D006
:101B10009E9C9D8CF28CC280E552E5CFDAFFE7CF28
:041B2000D9FF1200D7
:0C1B2400D9CFE6FFDACFE6FFE1CFD9FF12
:101B3000E2CFDAFF3F0EC716C66AFD0EDB50C612B3
:101B4000FB0EDB50C712FC0EDB50030A09E0010A52
:101B500004E0020A06E1C78C04D0C78CC68801D015
:101B6000C688FD0EDB50050A05E0010A05E19486F2
:101B7000928A03D0948601D094969488949AC68AC7
:0C1B8000E552E5CFDAFFE7CFD9FF1200F5
:041B8C00D9CFE6FFC8
:101B9000DACFE6FFE1CFD9FFE2CFDAFFE652E65235
:101BA000D950FD0F326EFF0EDA2032C0DEFFDD6E3F
:101BB000DECFE9FFDDCFEAFFEF9EFA0EDBCF32F09A
:101BC000FB0EDBCF33F0FC0EDBCF34F0FD0EDBCFB2
:101BD00035F032C024F033C025F034C026F035C0D3
:101BE00027F0E552E552E552E5CFDAFFE7CFD9FF1E
:021BF0001200E1
:0E1BF200D9CFE6FFDACFE6FFE1CFD9FFE2CF91
:101C0000DAFFE652E652FC0EDBCF32F0FD0EDBCF00
:101C100033F0060ED89032363336E804FBE132C09A
:101C2000DEFF33C0DDFF010EDB50BB6EDF50E8404E
:101C3000E8403F0B300B326ECF0EBA143210BA6E42
:101C4000E552E552E552E5CFDAFFE7CFD9FF1200C2
:101C5000D9CFE6FFDACFE6FFE1CFD9FFE2CFDAFF57
:101C6000E652E652FC0EDBCF32F0FD0EDBCF33F056
:101C7000060ED89032363336E804FBE132C0DEFF80
:101C800033C0DDFF010EDB50BE6EDF50E840E840A0
:101C90003F0B300B326ECF0EBD143210BD6EE552CD
:0E1CA000E552E552E5CFDAFFE7CFD9FF12009B
:021CAE00236AA7
:101CB000226A216A206A200EE76ED89024362536E3
:101CC0002636273620362136223623362950205C08
:101CD0002A5021582B5022582C50235809E32950C0
:101CE000205E2A50215A2B50225A2C50235A242A43
:061CF000E72EE4D712000C
:0A1CF600D9CFE6FFDACFE6FFE1CF19
:101D0000D9FFE2CFDAFFFD0EDB507F0BD56ED76A2D
:101D1000D66AF294FD0EDBAE02D0F28A01D0F29ABE
:0E1D2000D58EE552E5CFDAFFE7CFD9FF1200EE
:021D2E00D9CF0B
:101D3000E6FFDACFE6FFE1CFD9FFE2CFDAFFFD0E13
:101D4000DB50FB0BCA6ECC6A9E92FD0EDBAE02D05E
:101D50009D8201D09D92CA84E552E5CFDAFFE7CF9C
:041D6000D9FF120095
:0C1D6400D9CFE6FFDACFE6FFE1CFD9FFD0
:101D7000E2CFDAFF0C0EBD129494CA94FD0EDB5034
:101D8000CB6ECA84E552E5CFDAFFE7CFD9FF120068
:041D90009494120015
:0C1D9400D9CFE6FFDACFE6FFE1CFD9FFA0
:101DA000E2CFDAFFC30EC214326EFD0EDB407F0BB2
:101DB0003C0B3210C26EE552E5CFDAFFE7CFD9FF18
:021DC00012000F
:0E1DC200236A226A100EE76ED8902636273666
:101DD000223623362B50225C2C50235805E32B50FF
:0E1DE000225E2C50235A262AE72EF0D712003E
:021DEE00000EE5
:101DF000F36E00EE00F0060E01D81200EA6002D089
:0E1E0000EE6AFCD7F350E9601200EE6AFCD7E0
:021E0E0015EECF
:101E100000F025EE00F0F86A1F9C5EEC0CF003EC7D
:0A1E200000F09FEC06F0FBD7120063
:041E2A00C28212005E
:021E2E000000B2
:031E3000000000AF
:0C1E3300EE02401FFF03000064000000EE
:011E3F001E84
:101E40000000000008000000000000DC00000000AE
:101E50000000C80000000300320000000000000085
:041E60000005000079
:020000040030CA
:010003001EDE
:00000001FF
