:020000040000FA
:0600000009EF04F01200FC
:0A000600010030080000A80000000F
:0400100022000000CA
:0C001400DACFE4FFE2CFDAFFE9CFE4FF2F
:10002000EACFE4FFE652D9CFE6FFE1CFD9FF070ED2
:10003000E126040EDB6A050EDB6A060EDB6AF2A21D
:100040006AD000018F6B906B916B926B0001A8518D
:1000500001E0956AAF515EE1B4515CE123508C6ED2
:10006000100E00018F5D000E9059000E9159000E88
:10007000925915E2230E8F25E96E000E9021EA6E4B
:10008000EF508C6E81A2FED700018F2B000E9023C3
:100090009123922381B2FED781B001D0E1D7956838
:1000A000200E00018F5D000E9059000E9159000E38
:1000B000925923E281A2FED78FC063F090C064F012
:1000C00091C065F092C066F0100E635E000E645A37
:1000D000655A665A130E6324E96E000E6420EA6EB8
:1000E00083CFEFFF00018F2B000E902391239223EB
:1000F00081B2FED781B001D0D3D7200E00018F1975
:1001000005E1905103E1915101E1925103E10001B8
:10011000010EB46FF292F0A204D00001010EB66F8E
:10012000F092F2A40BD00001010EB76FB82B020EB3
:10013000B85D03E10001010EA76FF294070EE15CC8
:1001400002E2E16AE552E16EE552E7CFD9FFE552FE
:10015000E5CFEAFFE5CFE9FFE5CFDAFF1100D8CF21
:10016000E4FFE0CFE4FFE46EDACFE4FFE2CFDAFFB2
:10017000E652E552E5CFDAFFE550E5CFE0FFE5CF07
:10018000D8FF1000D9CFE6FFE1CFD9FF060EE12658
:10019000A00EF36E020EF3CFDBFF860EF36E030E9E
:1001A000F3CFDBFF010EF36E040EF3CFDBFF050E82
:1001B000DB6A3E0EC16ECD96FD0E926E070E936EFB
:1001C000010E946E9568966A0001A86F070EB46ED2
:1001D000DE6ADD6ADECF67F0DDCF68F0D890685068
:1001E00004E6100E675C000E685817E2DECFE9FFE8
:1001F000DDCFEAFF230EE926000EEA22EF6ADECF0A
:10020000E9FFDDCFEAFF030EE926000EEA22EF6ADE
:10021000DF2A010E01E3DB2ADDD7D950020FE96E98
:10022000DACFEAFFEF06EECF67F0000EEF5AEECF1F
:1002300068F0EF5AEECF69F0EF5AEFCF6AF06750EF
:10024000681069106A1002E08092E7D78082F28E0F
:10025000F28CF28CF28EF19CF198F288F088D60E36
:10026000E66EDDEC03F0E552060EE15C02E2E16AC7
:10027000E552E16EE552E7CFD9FF1200D9CFE6FF94
:10028000E1CFD9FF0C0EE126DE6ADD6A090EDB6ADA
:1002900079DF95680001976B986B996B9A6BA00E4C
:1002A000975D860E9859010E9959000E9A5906E2EB
:1002B000972B000E982399239A23F1D7809200015F
:1002C000B45101E186D08072AC5102E0000E01D041
:1002D000010EAC6F070EDB6A080EF36E070EDBCF64
:1002E000F4FFF350F45C6EE2070EEA6ADB34FE0BB7
:1002F000EA36E96E130EE926000EEA22EE52EF50BE
:10030000100B20E10001AF511DE1070EEA6ADB345A
:10031000FE0BEA36E96E130EE926000EEA22EECF56
:1003200067F0EFCF68F0070EEA6ADB34FE0BEA36BF
:10033000E96E030EE926000EEA2267C0EEFF68C0F0
:10034000EDFF3DD0070EEA6ADB34FE0BEA36E96EBC
:10035000130EE926000EEA22EE52EF50200B1DE0AC
:10036000070EEA6ADB34FE0BEA36E96E130EE92665
:10037000000EEA22EECF67F0EFCF68F0070EEA6AD0
:10038000DB34FE0BEA36E96E030EE926000EEA22A4
:1003900067C0EEFF68C0EDFF12D0070EEA6ADB34DB
:1003A000FE0BEA36E96E130EE926000EEA22EE5243
:1003B000EF500F0B010803E10001010EAF6F070EB4
:1003C000DB2A8AD7E66A2ED8E5520001B86BB46BF7
:1003D0001ED0B75113E0B76BB66BA92B000EAA2342
:1003E0001E0ED880A955000EAA5508E2AB5102E0B6
:1003F000000E01D0010EAB6FA96BAA6B0001A751D3
:1004000006E0010EE66E0ED8E5520001A76B57D745
:100410000C0EE15C02E2E16AE552E16EE552E7CFE3
:10042000D9FF1200D9CFE6FFE1CFD9FF060EE126B2
:100430000001AF5101E02DD18B96030EDB6A020E55
:10044000F36E030EDBCFF4FFF350F45C03E2030E14
:10045000DB2AF5D7010EDB6A080EF36E010EDBCF47
:10046000F4FFF350F45C01E38FD08B92030EDB6A50
:10047000020EF36E030EDBCFF4FFF350F45C03E2E5
:10048000030EDB2AF5D78B82DF6A080EDF5C5BE2A6
:10049000010EDBCFE6FF070EE552D880E754676E0A
:1004A000FE0EDBCFE6FF070ED880DF54E824E552CE
:1004B000E724EA6A030FE96E000EEA22EF5067C0F4
:1004C000E7FFE75204E0E8427F0BE706FCE1E76E56
:1004D000040EE7CFDBFFDB50010BE8B08B8AE8A00E
:1004E0008B9AFE0EDBCFE6FF070ED880DF54E824A0
:1004F000E552E724EA6A330FE96E000EEA22EF9E26
:10050000EF4682A00FD0FE0EDBCFE6FF070ED880AD
:10051000DF54E824E552E724EA6A330FE96E000E5F
:10052000EA22EF2A8B84030EDB6A020EF36E030EBF
:10053000DBCFF4FFF350F45C03E2030EDB2AF5D7C4
:100540008B94DF2AA2D78B8C030EDB6A020EF36E2C
:10055000030EDBCFF4FFF350F45C03E2030EDB2A5F
:10056000F5D78B9C8B88030EDB6A020EF36E030EAD
:10057000DBCFF4FFF350F45C03E2030EDB2AF5D784
:100580008B98010EDB2A68D70001A85125E1BB0733
:10059000000EBC5BBB51BC1102E1010EA86FFE0E48
:1005A000DB5019E0DF6A100EDF5C15E2DF50EA6A0B
:1005B000330FE96E000EEA22EF50F00803E100016C
:1005C000010EA86FDF50EA6A230FE96E000EEA22DF
:1005D000EF6ADF2AE8D75DD0FE0EDB505AE0DF6A13
:1005E000080EDF5C48E2DF50E824010FEA6A330FAF
:1005F000E96E000EEA22EF500C0B080829E1DF50EB
:10060000E824EA6A330FE96E000EEA22EF50E66E44
:10061000DF50E824EA6A230FE96E000EEA22E55271
:10062000E750EF6EDF50E824010FEA6A330FE96EFE
:10063000000EEA22EF50E66EDF50E824010FEA6A6E
:10064000230FE96E000EEA22E552E750EF6E11D05B
:10065000DF50E824EA6A230FE96E000EEA22EF6A0F
:10066000DF50E824010FEA6A230FE96E000EEA2248
:10067000EF6ADF2AB5D7030EDB6A020EF36E030EB4
:10068000DBCFF4FFF350F45C03E2030EDB2AF5D773
:100690008B86060EE15C02E2E16AE552E16EE5520C
:1006A000E7CFD9FF120012001200120036D000016D
:1006B000A85129E0D890C533C433C451C615676E1C
:1006C000C551C715686E6750681002E1809201D06D
:1006D0008082C451C51116E1C46B800EC56FC82B52
:1006E000000EC923FF0ED880C855020EC9550AE274
:1006F000C86BC96BD890C733C633C651C71102E166
:10070000C669C7690AD0C82B000EC923C81D01E1FC
:0C071000C91D03E1C86BC96B80721200A8
:04071C00060EF66E61
:10072000000EF76E000EF86E00010900F550CF6F55
:100730000900F550D06F03E1CF6701D03DD009002B
:10074000F550CA6F0900F550CB6F0900F550CC6F1A
:1007500009000900F550E96E0900F550EA6E09003C
:1007600009000900F550CD6F0900F550CE6F090062
:100770000900F6CFD1F0F7CFD2F0F8CFD3F0CAC04E
:10078000F6FFCBC0F7FFCCC0F8FF0001CD5302E16C
:10079000CE5307E00900F550EE6ECD07F8E2CE0724
:1007A000F9D7D1C0F6FFD2C0F7FFD3C0F8FF0001E0
:0A07B000CF07000ED05BBFD7120088
:0607BA00D9CFE6FFDACF03
:1007C000E6FFE1CFD9FFE2CFDAFFFD0EDB507F0B72
:1007D000D56ED76AD66AF294FD0EDBAE02D0F28AED
:1007E00001D0F29AD58EE552E5CFDAFFE7CFD9FFF7
:0207F0001200F5
:0E07F200000EF36E00EE00F0060E01D81200AD
:10080000EA6002D0EE6AFCD7F350E9601200EE6AAB
:02081000FCD713
:0E08120015EE00F025EE00F0F86A6C9C8EECFE
:0E08200003F017EC04F03EEC01F0FBD71200E1
:02082E001200B6
:1008300000000001010000000008000000000101AC
:100840000000006F00010100000000050080FFFFB4
:020850000000A6
:00000001FF
