:020000040000FA
:0600000095EF09F012006B
:0A00060001004C13000096010000F9
:0400100039000000B3
:0C001400DACFE4FFE2CFDAFFE9CFE4FF2F
:10002000EACFE4FFE652D9CFE6FFE1CFD9FF020ED7
:10003000E126F2A286D00101656B666B676B686B87
:10004000956A0101BD516CE123508C6E100E0101C7
:10005000655D000E6659000E6759000E68591BE277
:1000600081B203D081B001D0FBD70101652B000E16
:10007000662367236823230E6525E96E000E66213B
:10008000EA6EEF508C6E81A203D081B001D0FBD715
:1000900081B001D0DBD79568200E0101655D000EAF
:1000A0006659000E6759000E685929E281B203D0E3
:1000B00081B001D0FBD765C17BF066C17CF067C120
:1000C0007DF068C17EF0100E7B5E000E7C5A7D5A7A
:1000D0007E5A130E7B24E96E000E7C20EA6E83CFDD
:1000E000EFFF0101652B000E66236723682381A2C1
:1000F00003D081B001D0FBD781B001D0CDD79568B6
:10010000200E0101651905E1665103E1675101E126
:10011000685103E10101010EBD6F636A0101126BB9
:1001200095680101010EBD6F0C0ED880C155000EFF
:10013000C25502E2AE6B02D0010EAE6FC16BC26B54
:10014000F292F0A204D00101010EBF6FF0929EACBA
:1001500004D00101010EC46F9E9CF2A441D0632A19
:100160000101C12B000EC223010E646E9B2B000EF9
:100170009C239B51400B02E1000E01D0010EA16FA8
:10018000800E9B157B6E030E9C157C6E7B507C1045
:1001900002E1000E01D0010EA26FAE510AE1C5517D
:1001A000C52BE844010B010BE8B08082E8A08092E7
:1001B00009D0C551C52BE8380F0B010BE8B0808280
:1001C000E8A08092F294780ED66E640ED880C15565
:1001D000000EC25505E2640EC16FC26B8082956845
:1001E0009EA204D00101010EC36F9E92020EE15C3B
:1001F00002E2E16AE552E16EE552E7CFD9FFE5524E
:10020000E5CFEAFFE5CFE9FFE5CFDAFF1100D8CF70
:10021000E4FFE0CFE4FFE46EDACFE4FFE2CFDAFF01
:10022000E652E552E5CFDAFFE550E5CFE0FFE5CF56
:10023000D8FF1000D9CFE6FFE1CFD9FF020EE126AB
:100240003E0EC16ECD960D0E926E070E936E090E88
:10025000946E9568966A0F0EE66E870EE66EEF0E48
:10026000E66EF3EC08F0E552E552E552070EB46E87
:10027000DE6ADD6ADECF75F0DDCF76F0D89076509D
:1002800004E6100E755C000E765817E2DECFE9FF2B
:10029000DDCFEAFF230EE926000EEA22EF6ADECF69
:1002A000E9FFDDCFEAFF030EE926000EEA22EF6A3E
:1002B000DF2A010E01E3DB2ADDD7F28EF28CF28C0D
:1002C000F28E9D8C9E9CF19CF198F288D60EE66E83
:1002D0004EEC09F0E552AD0EE66E6AEC09F0E5521F
:1002E0000101020E516F526B010E536F030E546FDA
:1002F000050E556F060E566F070E576F040E586F9A
:10030000636A646A126B020EE15C02E2E16AE55222
:10031000E16EE552E7CFD9FF1200D9CFE6FFE1CF7A
:10032000D9FF0A0EE126DE6ADD6A050EDB6A82DF8E
:1003300095688A988B9C8B9E040EDB6A100EF36E78
:10034000040EDBCFF4FFF350F45C06E28B9A8B844F
:100350008B94040EDB2AF2D78B8C8B9C01016D6B86
:100360006E6B6F6B706BA00E6D5D860E6E59010E1D
:100370006F59000E705906E26D2B000E6E236F232D
:100380007023F1D7809295680101BD5101E114D12C
:10039000C1C1DEFFC2C1DDFFC16BC26B030EDB6AF0
:1003A000080EF36E030EDBCFF4FFF350F45C01E3B1
:1003B000FDD0030EEA6ADB34FE0BEA36E96E230E4B
:1003C000E926000EEA22EE52EF9C030EEA6ADB34C5
:1003D000FE0BEA36E96E230EE926000EEA22EE5203
:1003E000EF9E030EEA6ADB34FE0BEA36E96E130E6B
:1003F000E926000EEA22EECF75F0EFCF76F0030E7D
:10040000EA6ADB34FE0BEA36E96E030EE926000EDB
:10041000EA2275C0EEFF76C0EDFF0101AE5111E09A
:10042000030EEA6ADB34FE0BEA36E96E020EE926B9
:10043000010EEA22060EEECFDBFF070EEDCFDBFF4B
:1004400021D0030EEA6ADB34FE0BEA36E96E020EB7
:10045000E926010EEA22EECF75F0EFCF76F0FF0E1F
:10046000D8807556030E765675C0E6FF76C0E6FF57
:10047000AFEC06F0E552E552060EF3CFDBFF070EB8
:10048000F4CFDBFFFF0EE76E060EDBCF75F0070E35
:10049000DBCF76F0E7507516766A030EEA6ADB3436
:1004A000FE0BEA36E96E230EE926000EEA2275C03D
:1004B000EFFF060EDBCF75F0070EDBCF76F076C0D0
:1004C00075F0766A7550776E030EEA6ADB34FE0BC0
:1004D000EA36E96E230EE926000EEA22EE52775044
:1004E000030BF36EFC0EEF14F310EF6E030EEA6ACB
:1004F000DB34FE0BEA36E96E030EE926000EEA2233
:10050000EE52EF500C0BE842E842000930E0030ED7
:10051000EA6ADB34FE0BEA36E96E130EE926000EBA
:10052000EA22EECF77F0EFCF78F0FF0E7716030ECA
:10053000781677C0E6FF78C0E6FF03DBE552E552A8
:10054000F3CF75F0F4CF76F0FF0ED8807556030E1A
:100550007656EA6ADB34FE0BEA36E96E330EE9269C
:10056000000EEA2275C0EEFF76C0EDFF1CD0030E30
:10057000EA6ADB34FE0BEA36E96E020EE926010E6A
:10058000EA22EECF75F0EFCF76F0030EEA6ADB34A5
:10059000FE0BEA36E96E330EE926000EEA2275C03C
:1005A000EEFF76C0EDFF030EDB2AFAD60101C16B28
:1005B000C26B26DA0101BD6BC35103E0C36BA3EC30
:1005C00009F00101C45147E0C46BC450E66ED95034
:1005D000060FE96EDACFEAFFE552E750EE6EED6AFC
:1005E000060EDBCF77F0070EDBCF78F077C078F020
:1005F000776AC35000017724756E000E7820766EFE
:10060000060E75C0DBFF070E76C0DBFF01019E51B1
:10061000E96EEA6AD890E936EA36020EE926010E5A
:10062000EA22060EDBCFEEFF070EDBCFEDFF9EC109
:10063000E6FFBFEC07F0E55201019D51EA6A510F58
:10064000E96E010EEA22EF508D6E9DC19EF19D2B49
:10065000070E9D159D6F645009E063B003D0D9D893
:1006600010D803D0D6D80DD826D9646A8CD60A0EF5
:10067000E15C02E2E16AE552E16EE552E7CFD9FFC3
:100680001200D9CFE6FFE1CFD9FF0B0EE126DE6ADB
:10069000DD6A080EDB6AF36EDBCFF4FFF350F45C27
:1006A00001E3ADD0080EEA6ADB34FE0BEA36E96EF0
:1006B000330EE926000EEA22060EEECFDBFF070E10
:1006C000EDCFDBFF080EDB5098C1E7FF070B04E01E
:1006D000E742E79EE806FCE1E750010BE76E090EF2
:1006E000E7CFDBFF080EEA6ADB34FE0BEA36E96E81
:1006F000030EE926000EEA22EE52EF50800B01E0D5
:10070000010EE76E0A0EE7CFDBFF090EDB5007E0B4
:10071000060EDB68030EF36E070EF3CFDBFF0A0E47
:10072000DB5007E0060EDB68030EF36E070EF3CF17
:10073000DBFF080EDB28E66ED950040FE96EDACF36
:10074000EAFFE552E750EE6EED6A040EDBCF77F07C
:10075000050EDBCF78F07738776AF00B786E060EEF
:10076000DBCF79F0070EDBCF7AF0D89079367A3686
:10077000D89079367A3677507924756E78507A2009
:10078000766E020E75C0DBFF030E76C0DBFF8B9426
:100790008A98DE6ADD6ADECF75F0DDCF76F0100E66
:1007A000755C000E765827E2020EDBCF77F0030E61
:1007B000DBCF78F0DECF79F0DDCF7AF00F0ED88086
:1007C0007956000E7A56795077C075F078C076F079
:1007D00005E0D89076327532E804FBE1010E75141D
:1007E000E8B08A86E8A08A968B848B94DF2A010E73
:1007F00001E3DB2AD0D78A88080EDB2A4CD70B0E00
:10080000E15C02E2E16AE552E16EE552E7CFD9FF31
:100810001200D9CFE6FFE1CFD9FF030EE1268B9E70
:10082000DF6A080EDF5C32E201019851DF5206E018
:10083000DFCFF3FFE8327F0BF306FCE1010BE76E3D
:10084000010EE7CFDBFFEA6ADF34FE0BEA36E96E22
:10085000030EE926000EEA22EE52EF50800B01E073
:10086000010EE76E020EE7CFDBFF010EDB5005E164
:10087000020EDB5002E1000E01D0010EE8B08B8ABF
:10088000E8A08B9A8B848B94DF2ACBD7DF6A100E7B
:10089000DF5C05E28B8A8B848B94DF2AF8D78B8E02
:1008A0008B9E030EE15C02E2E16AE552E16EE552E5
:1008B000E7CFD9FF1200D9CFE6FFE1CFD9FFE6524B
:1008C0008A888B9CDF6A080EDF5C45E28B9A070EF4
:1008D000D880DF54E96EEA6AD890E936EA36030E2A
:1008E000E926000EEA22EE52EF500C0BE842E842F5
:1008F000010801E18B8A070ED880DF54E96EEA6AAD
:10090000D890E936EA36030EE926000EEA22EE52C6
:10091000EF500C0BE842E842020813E0070ED880C3
:10092000DF54E96EEA6AD890E936EA36030EE92622
:10093000000EEA22EE52EF500C0BE842E8420308A8
:1009400006E10101A251E8B08B8AE8A08B9A8B8462
:100950008B94DF2AB8D7DF6A080EDF5C4AE2070E05
:10096000D880DF54E96EEA6AD890E936EA36030E99
:10097000E926000EEA22EE52EF500C0BE842E84264
:10098000030802E0000E01D0010EE8B08B8AE8A057
:100990008B9A070ED880DF54E96EEA6AD890E93660
:1009A000EA36030EE926000EEA22EE52EF50400B23
:1009B0001CE0070ED880DF54E96EEA6AD890E93669
:1009C000EA36030EE926000EEA22EE52EF500C0B37
:1009D000E842E842000902E1000E01D0010E0101E7
:1009E000A115E8B08B8AE8A08B9A8B848B94DF2AC0
:1009F000B3D78B8C8B9CE552E552E7CFD9FF120021
:100A0000D9CFE6FFE1CFD9FF050EE1260101996BB1
:100A10008B928B82DF6A080EDF5C27E2EA6ADF34A2
:100A2000FE0BEA36E96E230EE926000EEA22EE52AC
:100A3000EF9482A00BD0010EDF5206E0DFCFF3FF70
:100A4000E846FE0BF306FCE1010199138B84EA6A88
:100A5000DF34FE0BEA36E96E230EE926000EEA22A9
:100A6000EE52EF968B94DF2AD6D701019A51995D09
:100A70005CE099519A19E76E020EE7CFDBFFDB507D
:100A80009915E76E030EE7CFDBFF020EDB509A15D8
:100A9000E76E040EE7CFDBFFDF6A080EDF5C45E29E
:100AA000030EDB50010B756E070ED880DF54E96E24
:100AB000EA6AD890E936EA36230EE926000EEA22E1
:100AC000EE527550010BF36EF346F346FB0EEF1436
:100AD000F310EF6E040EDB50010B756E070ED8801D
:100AE000DF54E96EEA6AD890E936EA36230EE92641
:100AF000000EEA22EE527550010BF36EF346F346F8
:100B0000F346F70EEF14F310EF6E030EDBCFF3FF97
:100B1000F390F342F3CFDBFF040EDBCFF3FFF39050
:100B2000F342F3CFDBFFDF2AB8D799C19AF1050E64
:100B3000E15C02E2E16AE552E16EE552E7CFD9FFFE
:100B40001200D9CFE6FFE1CFD9FF0A0EE126FD0E54
:100B5000DBCF75F0FE0EDBCF76F0D890765004E652
:100B60009D0E755C000E765861E2FD0EDBCF75F0D0
:100B7000FE0EDBCF76F0776A786A76AE02D07768C1
:100B80007868060E75C0DBFF070E76C0DBFF080E27
:100B900077C0DBFF090E78C0DBFF020EDB6A030EB5
:100BA000DB6A040EDB6A050EDB6A060EDBCF69F03A
:100BB000070EDBCF6AF0080EDBCF6BF0090EDBCF40
:100BC0006CF05D0E6E6E0E0E6F6E706A716ABBEC2D
:100BD00008F0060E65C0DBFF070E66C0DBFF080EDF
:100BE00067C0DBFF090E68C0DBFF060EDBCF69F0D4
:100BF000070EDBCF6AF0080EDBCF6BF0090EDBCF00
:100C00006CF0E80E6E6E030E6F6E706A716A2AECFD
:100C100009F0060E69C0DBFF070E6AC0DBFF080E95
:100C20006BC0DBFF090E6CC0DBFF69D0FD0EDBCFB4
:100C300075F0FE0EDBCF76F09D0E755E000E765AD7
:100C4000776A786A76AE02D077687868060E75C0E3
:100C5000DBFF070E76C0DBFF080E77C0DBFF090E57
:100C600078C0DBFF410EF36E020EF3CFDBFFF36EB5
:100C7000030EF3CFDBFF040EDB6A050EDB6A060E04
:100C8000DBCF69F0070EDBCF6AF0080EDBCF6BF02D
:100C9000090EDBCF6CF0030E6E6E020E6F6E706A83
:100CA000716ABBEC08F0060E65C0DBFF070E66C07C
:100CB000DBFF080E67C0DBFF090E68C0DBFF060E16
:100CC000DBCF69F0070EDBCF6AF0080EDBCF6BF0ED
:100CD000090EDBCF6CF0E80E6E6E030E6F6E706A5D
:100CE000716A2AEC09F0060E69C0DBFF070E6AC0C4
:100CF000DBFF080E6BC0DBFF090E6CC0DBFF020ED2
:100D0000DBCF75F0030EDBCF76F0040EDBCF77F090
:100D1000050EDBCF78F0D950060FE96EDACFEAFF87
:100D2000EE507526EE507622EE507722EE50782265
:100D300075C0DEFF76C0DDFFDECF75F0DDCF76F06B
:100D400075C0F3FF76C0F4FF0A0EE15C03E200D049
:100D5000E16AE552E16EE552E7CFD9FF1200D9CF43
:100D6000E6FFE1CFD9FF0A0EE126DE6ADD6AFD0E5D
:100D7000DBCF75F0FE0EDBCF76F0D890765004E630
:100D8000410E755C020E765861E2FD0EDBCF75F008
:100D9000FE0EDBCF76F0776A786A76AE02D077689F
:100DA0007868060E75C0DBFF070E76C0DBFF080E05
:100DB00077C0DBFF090E78C0DBFF020EDB6A030E93
:100DC000DB6A040EDB6A050EDB6A060EDBCF69F018
:100DD000070EDBCF6AF0080EDBCF6BF0090EDBCF1E
:100DE0006CF00F0E6E6E010E6F6E706A716ABBEC66
:100DF00008F0060E65C0DBFF070E66C0DBFF080EBD
:100E000067C0DBFF090E68C0DBFF060EDBCF69F0B1
:100E1000070EDBCF6AF0080EDBCF6BF0090EDBCFDD
:100E20006CF0E80E6E6E030E6F6E706A716A2AECDB
:100E300009F0060E69C0DBFF070E6AC0DBFF080E73
:100E40006BC0DBFF090E6CC0DBFF67D0FD0EDBCF94
:100E500075F0FE0EDBCF76F0410E755E020E765A0F
:100E6000776A786A76AE02D077687868060E75C0C1
:100E7000DBFF070E76C0DBFF080E77C0DBFF090E35
:100E800078C0DBFF9D0EF36E020EF3CFDBFF030E87
:100E9000DB6A040EDB6A050EDB6A060EDBCF69F047
:100EA000070EDBCF6AF0080EDBCF6BF0090EDBCF4D
:100EB0006CF0960E6E6E070E6F6E706A716ABBEC08
:100EC00008F0060E65C0DBFF070E66C0DBFF080EEC
:100ED00067C0DBFF090E68C0DBFF060EDBCF69F0E1
:100EE000070EDBCF6AF0080EDBCF6BF0090EDBCF0D
:100EF0006CF0E80E6E6E030E6F6E706A716A2AEC0B
:100F000009F0060E69C0DBFF070E6AC0DBFF080EA2
:100F10006BC0DBFF090E6CC0DBFF020EDBCF75F090
:100F2000030EDBCF76F0040EDBCF77F0050EDBCFC0
:100F300078F0D950060FE96EDACFEAFFEE50752649
:100F4000EE507622EE507722EE50782275C0DEFF0A
:100F500076C0DDFFDECF75F0DDCF76F075C0F3FF34
:100F600076C0F4FF0A0EE15C03E200D0E16AE552CC
:100F7000E16EE552E7CFD9FF1200A3EF09F0D9CF18
:100F8000E6FFE1CFD9FFFE0EDB5098C1E7FF070B6C
:100F900004E0E742E79EE806FCE1E750010B756ECE
:100FA0008250080B01E0010E755C4DE082A625D051
:100FB000FE0EEA6ADB34FE0BEA36E96E230EE92602
:100FC000000EEA22EE52EF8CFE0EEA6ADB34FE0BD4
:100FD000EA36E96E230EE926000EEA22EE52EF9E73
:100FE000010EF36EFE0EDB5004E0D890F336E806F7
:100FF000FCE1F3500101981325D0FE0EEA6ADB34C0
:10100000FE0BEA36E96E230EE926000EEA22EE52C6
:10101000EF9CFE0EEA6ADB34FE0BEA36E96E230E25
:10102000E926000EEA22EE52EF8E010EF36EFE0E5E
:10103000DB5004E0D890F336E806FCE1F350E81CFE
:101040000101981700D0E552E7CFD9FF120043D035
:101050000101AC5107E001012351E8B08082E8A012
:10106000809239D096512BE1AC5129E1D890CA3306
:10107000C933C951CB15756ECA51CC15766E7550F2
:10108000761002E1809201D08082C951CA1116E126
:10109000C96B800ECA6FCD2B000ECE23FF0ED880F9
:1010A000CD55020ECE550AE2CD6BCE6BD890CC3327
:1010B000CB33CB51CC1102E1CB69CC6900D00BD042
:1010C0000101CD2B000ECE23CD1D01E1CE1D03E18C
:0810D000CD6BCE6B80721200A3
:0810D800060EF66E000EF76E25
:1010E000000EF86E01010900F550D46F0900F550AB
:1010F000D56F03E1D46701D03DD00900F550CF6F23
:101100000900F550D06F0900F550D16F09000900B2
:10111000F550E96E0900F550EA6E09000900090072
:10112000F550D26F0900F550D36F09000900F6CFD2
:10113000D6F1F7CFD7F1F8CFD8F1CFC1F6FFD0C1B4
:10114000F7FFD1C1F8FF0101D25302E1D35307E009
:101150000900F550EE6ED207F8E2D307F9D7D6C1F1
:10116000F6FFD7C1F7FFD8C1F8FF0101D407000E81
:06117000D55BBFD71200A1
:0A11760069506E02F3CF65F0F4CF6C
:1011800066F06F02F3506626000EF420676E695019
:101190007002F3506726000EF420686E69507102E9
:1011A000F35068266A506E02F3506626F4506722A8
:1011B000000E68226A506F02F3506726F4506822CE
:1011C0006A507002F35068266B506E02F350672627
:1011D000F45068226B506F02F35068266C506E0218
:0611E000F3506826120026
:0A11E600D9CFE6FFDACFE6FFE1CF34
:1011F000D9FFE2CFDAFFC26AC06AFC0EDB407F0B88
:101200003C0BC26EFC0EDB38F00B300B756EFB0E28
:10121000DB500F0B7510C16EFD0EDB50040DF3504B
:10122000380B766EFD0EDB380F0B070B756EFD0E5F
:10123000DB50800B75107610C06EFC0EDBAE03D059
:101240009E9C9D8CF28CC280E552E5CFDAFFE7CF01
:04125000D9FF1200B0
:0C125400686A676A666A656A200EE76EC9
:10126000D89069366A366B366C36653666366736C0
:1012700068366E50655C6F50665870506758715094
:10128000685809E36E50655E6F50665A7050675A31
:0C1290007150685A692AE72EE4D712005A
:04129C00D9CFE6FFC1
:1012A000DACFE6FFE1CFD9FFE2CFDAFFFD0EDB5068
:1012B0007F0BD56ED76AD66AF294FD0EDBAE02D0F4
:1012C000F28A01D0F29AD58EE552E5CFDAFFE7CF68
:0412D000D9FF120030
:0C12D400D9CFE6FFDACFE6FFE1CFD9FF6B
:1012E000E2CFDAFFFD0EDB50FB0BCA6ECC6A9E929A
:1012F000FD0EDBAE02D09D8201D09D92CA84E552E4
:0A130000E5CFDAFFE7CFD9FF1200B6
:06130A00000EF36E00EE80
:1013100000F0060E01D81200EA6002D0EE6AFCD797
:0A132000F350E9601200EE6AFCD7FA
:06132A0015EE00F025EEB7
:1013300000F0F86A749C6CEC08F0A5EC09F08DECF8
:0613400001F0FBD71200D2
:04134600C28212004D
:02134A0012008F
:04134C00000000009D
:101350000000000000008201010100000001010006
:101360000000000000000004080C0800000000005D
:10137000000000000001010000000000000000006B
:0513800080FFFF0000EA
:00000001FF
