:020000040000FA
:0600000015EF02F01200F2
:0A0006000100460400009C00000009
:0400100013000000D9
:0C001400EDD8F18E8D908D9206D881B051
:1000200002D0F8D800D0FAD712009EAAABD0E6ECE6
:1000300001F00001806FF10E805D04E10001010E0E
:10004000A26F9FD00001A25101E199D0700E000172
:100050008015E8380F0B816F0F0E8015826F81516C
:10006000070A5BE0010A53E0030A46E0010A3CE0AC
:10007000070A2DE0010A25E0030A18E0010A01E061
:100080007DD00001010EA46F0001916F0001A02539
:10009000A06F000EA121A16F9C6B9D6B9E6B9F6B4F
:1000A000010EA36F82C083F0A66F68D082C084F077
:1000B0008439F00B83251F0B8D6F0001020EA66F94
:1000C0005DD082C085F00001030EA66F57D082C0BC
:1000D00086F08639F00B85253F0B8E6F0001040EEC
:1000E000A66F010EAD6F4AD082C087F00001A7292C
:1000F000A76F010EA66F42D082C088F08839F00B3E
:1001000087253F0B8F6F0001020EA66F37D082C08C
:1001100089F00001030EA66F31D082C08AF0060E6E
:100120008A15E8407F0B8B6F8A39F00B89251F0BEE
:10013000906F0001040EA66F8DC0A7F08EC0A8F0CE
:100140008FC0A9F090C0AAF0010EAD6F00018B51D5
:10015000030A10E0010A0BE0030A06E0010A01E0CD
:100160000CD0170E8C6F09D0180E8C6F06D01D0E98
:100170008C6F03D01D0E8C6F00D000D002D0A26B0C
:10018000A36B9E9A9E9A300E00019C5D750E9D5940
:10019000000E9E59000E9F5906E29C2B000E9D23D7
:1001A0009E239F2308D08D900001916B0001A46BCA
:1001B000A06BA16BAB6B020EA01901E1A15105E18F
:1001C000010EA06FA16BAB6F01D0AB6BA45105E02A
:1001D00000018B29926F8D8002D00001926BA7C025
:1001E00093F0A8C094F0A9C095F0AAC096F01200B0
:1001F00093809382969096929698D09E4F0EE66E3C
:10020000E66A3C0EE66EA1EC01F0E552E552E552DD
:10021000C16812000001976B986B996B9A6B010E85
:100220009B6F0001AE6B956A050E00019B5D30E28D
:100230009B51EA6A910FE96E000EEA22EF508C6E34
:1002400081A004D00001AD6B95682BD08150020BCA
:100250000FE00001AE510CE1010EAE6F00019B2BCF
:100260009B51EA6A910FE96E000EEA22EF508C6E04
:1002700081B208D00001972B000E982399239A236E
:100280000001AE6B050E00019B5D01E18D72CCD7C4
:1002900095688150010B010A010801E1FAD70001BC
:0402A000AD6B120030
:0C02A400060EF66E000EF76E000EF86EEF
:1002B00000010900F550B46F0900F550B56F03E176
:1002C000B46701D03DD00900F550AF6F0900F5507B
:1002D000B06F0900F550B16F09000900F550E96EE3
:1002E0000900F550EA6E090009000900F550B26FE7
:1002F0000900F550B36F09000900F6CFB6F0F7CF4B
:10030000B7F0F8CFB8F0AFC0F6FFB0C0F7FFB1C09C
:10031000F8FF0001B25302E1B35307E00900F550C2
:10032000EE6EB207F8E2B307F9D7B6C0F6FFB7C072
:10033000F7FFB8C0F8FF0001B407000EB55BBFD7E8
:020340001200A9
:0E034200D9CFE6FFDACFE6FFE1CFD9FFE2CF59
:10035000DAFFAC6AAB6AFD0EDBB0AC88DBA202D080
:10036000AC8CAB8CDBB4AC8EDBA602D0AB8801D0FE
:10037000AB8ADBB8AC849E98DBBAAB86DBAC02D030
:100380009D8A01D09D9A9E9ADBAE02D09D8801D0B5
:100390009D98FB0EDB50AF6EFB0EFC0EDBCF03F027
:1003A00003C002F0036A0250B06EAC8AAB8E949C1C
:1003B000948EAC50100B04E0AC50800B01E1948C97
:0C03C000E552E5CFDAFFE7CFD9FF1200CD
:0403CC00D9CFE6FFA0
:1003D000DACFE6FFE1CFD9FFE2CFDAFFE652F20E45
:1003E0000001B917ABAC03D0B991ABB0B981ABB4D4
:1003F000B985ABB2B987AE50DF6EDF50E552E5523A
:0A040000E5CFDAFFE7CFD9FF1200C5
:06040A00000EF36E00EE8F
:1004100000F0060E01D81200EA6002D0EE6AFCD7A6
:0A042000F350E9601200EE6AFCD709
:06042A0015EE00F025EEC6
:1004300000F0F86A019C52EC01F003EC04F00AECC5
:0604400000F0FBD71200E2
:0A04460000000000000000000000AC
:09045000000000000000000000A3
:0608000015EF02F01200EA
:020806001200DE
:060808009EBA9E9A120048
:060818009EBA9E9A120038
:00000001FF
