:020000040000FA
:0600000029EF15F01200CB
:0600080063EF10F012008E
:06001800AEEF10F0120033
:06102A000100702A000025
:08103000A10000000B0000000C
:08103800D9CFE6FFE1CFD9FF9B
:10104000E6526A6A686A160E6F6E9F0E6B6E7B0EB2
:10105000696E6D8C6E6A030EE66EE66AE66A710E64
:10106000E66E0F0EE66EFFEC14F00B6E050EE15E01
:101070000B506D9CDF6ADF500B6E0C6A100E0B5C20
:10108000000E0C5810E2DF50040DF3CFE9FFF4CF4F
:10109000EAFF000EE926040EEA22EE6AEE6AEE6A24
:1010A000EE6ADF2AE8D7160E706E68A602D0689640
:1010B000FCD700017B6B806B816B826B6D98080E97
:1010C0006F6F040E706F616B606BE552E552E7CF96
:1010D000D9FF1200D9CFE6FFE1CFD9FFE6520001D8
:1010E000600507E16DBA05D0686A69806988020EFB
:1010F000606F6850040B05E06950040B02E06894CF
:10110000B5D86DA202D0A19A81D06850010B12E02F
:101110006950010B0FE090DF0001040E606F0401C5
:10112000400E026F040E036F080E016F006B8C0EF1
:10113000001368906850100B05E06950100B02E036
:1011400083D868986850400B13E06950400B10E05A
:10115000010EE66EE66A000EE66EE66A730EE66E55
:10116000E66A16EC14F00B6E060EE15E0B50689CFE
:101170006850200B04E06950200B01E04CD8685007
:10118000020B12E06950020B0FE0010EE66EE66AF8
:10119000000EE66EE66AE668E66816EC14F00B6E82
:1011A000060EE15E0B506A6A040E0001E76E6019DC
:1011B000E8AE02D0E73402D0E750605D02E2A19AC7
:1011C00025D069A622D0DF6A040EDF5C1EE268A685
:1011D0001BD06CCF88F06896780E0001881502E16C
:1011E0005AD810D0000EE66EE66A880EE66E000E43
:1011F000E66E720EE66EE66A16EC14F00B6E060EE4
:10120000E15E0B50DF2AE0D700D0A19AE552E5520B
:10121000E7CFD9FF120070A015D063C0E9FF64C00A
:10122000EAFFEF5080080DE16FC0E9FF70C0EAFFF0
:10123000EF50840806E163C0E9FF64C0EAFF8C0E4A
:10124000EF6E7090689A1200698468986D82000E43
:10125000E66EE66AE66EE66A750EE66EE66A16EC1D
:1012600014F00B6E060EE15E0B501200000EE66EDF
:10127000E66AE66EE66A740EE66EE66A16EC14F04E
:101280000B6E060EE15E0B506D92699468A402D05D
:101290006894FCD71200D9CFE6FFE1CFD9FFE65220
:1012A000FD0E000188155AE17E0E8815E8407F0B7F
:1012B000040DF3CF63F0F4CF64F0000E6327040E47
:1012C000642363C065F064C066F0657563C0E9FFC0
:1012D00064C0EAFFEF503C0BE842E8420D083CE1F5
:1012E00063C0E9FF64C0EAFF020EE926000EEA22AD
:1012F000EECF0BF0EFCF0CF0480E0B1802E1040E0E
:101300000C1828E163C0E9FF64C0EAFF020EE92679
:10131000000EEA22400EEE6E040EED6EDF6ADF5024
:101320000B6E0C6A080E0B5C000E0C5813E2DF50BB
:10133000EA6A480FE96E040EEA22EF50E66EDF50CB
:10134000EA6A400FE96E040EEA22E552E750EF6EBA
:10135000DF2AE5D70DD801D02ED805D0FD0E88158F
:10136000040801E14ED8E552E552E7CFD9FF12005B
:101370006FC0E9FF70C0EAFFEF50800B05E06FC05F
:10138000E9FF70C0EAFFEF6A0001776B786B7C6B56
:101390007D6B7B6BB6D8000EE66EE66AE66EE66A9B
:1013A000030EE66EE66A16EC14F00B6E060EE15EB6
:1013B0000B502DEF0CF0020E0001785D02E1ADDB69
:1013C0001FD06CD8000189511AE165C0E9FF66C0E1
:1013D000EAFFEE52080EEF6E65C0E9FF66C0EAFF55
:1013E000020EE926000EEA22400EEE6E040EED6EAD
:1013F00065C0E9FF66C0EAFF8C0EEF6E01D0896B15
:101400001200D9CFE6FFE1CFD9FFE6526FC0E9FF66
:1014100070C0EAFFEF50400B01E0010EDF6E0001EB
:101420006F75080E605D0AE142C46EFF6E500008E1
:1014300003E2100E606F02D0040E606F780528E1A1
:101440006FC0E9FF70C0EAFF020EE926000EEA2233
:10145000480EEE6E040EED6ED5DA020E0001775DD9
:1014600007E16FC0E9FF70C0EAFF840EEF6E0FD096
:10147000DF5007E16FC0E9FF70C0EAFFC80EEF6EF2
:1014800006D06FC0E9FF70C0EAFF880EEF6E01D092
:1014900005D8E552E552E7CFD9FF1200D9CFE6FFD4
:1014A000E1CFD9FF020EE1260001786B6FC0E9FFA2
:1014B00070C0EAFFEF6A040E6F190B6E70C00CF07B
:1014C0000BC0DEFF0CC0DDFFDECFE9FFDDCFEAFFA2
:1014D000EF6A80AF0CD08351841107E005D084C03F
:1014E000FAFF00018351F96EFADF0001809F020EBE
:1014F000E15C02E2E16AE552E16EE552E7CFD9FF35
:10150000120004014051600BE842E842E842E84220
:10151000E842000901E058D041510C0A54E00B0A9E
:1015200043E00C0A35E0010A26E00B0A22E0020A39
:1015300020E0030A1CE0080A10E0010A0CE00F0A90
:1015400008E0030A01E03FD000017B8F080E606FC6
:101550003BD0C8D839D07FDB37D00001610E796F1E
:10156000000E7A6F7B81010E7C6F7B8F2DD014D99A
:101570002BD02BD829D044510001796F7A6B620EA1
:101580007927000E7A237B81010E7C6F7B8F1CD024
:1015900000017B8F04014451EA6A620FE96E000E7C
:1015A000EA2242C4EFFF10D0000EE66EE66AE66E55
:1015B000E66A020EE66EE66A16EC14F00B6E060E94
:1015C000E15E0B5001D000D01200D9CFE6FFE1CF91
:1015D000D9FF040EE1260401420510E140511F0B22
:1015E00000090CE100017B8F030E0401415D04E161
:1015F0000001010E876F02D00001876B0401425188
:1016000067E140511F0B020863E144510F0B0009D1
:101610005FE000017B8F040144BF10D044510F0BE9
:10162000E96EEA6AD890E936EA36670EE926000ED6
:10163000EA22EECFDEFFEDCFDDFF0FD044510F0BDE
:10164000E96EEA6AD890E936EA366F0EE926000EAE
:10165000EA22EECFDEFFEDCFDDFF030E415D07E1B5
:10166000DECFE9FFDDCFEAFF840EEF6E31D04451CB
:101670000F0B0C6A700F0B6E0F0E0C22020E0BC0BC
:10168000DBFF030E0CC0DBFF020EDBCFE9FF030E16
:10169000DBCFEAFFEE90ED5244AF0DD0DECFE9FF95
:1016A000DDCFEAFFEF6ADF74DECFE9FFDDCFEAFFCF
:1016B000400EEF6E0DD0DECFE9FFDDCFEAFF880EE2
:1016C000EF6EDF74DECFE9FFDDCFEAFFC80EEF6E0D
:1016D000040EE15C02E2E16AE552E16EE552E7CF19
:1016E000D9FF1200800E0401405D55E10001C00EDB
:1016F0007B6F04014351030A2EE0010A0EE0030A46
:1017000003E000017B6B47D00001600E796F290E6A
:101710007A6F120E7C6F7D6B3ED04251F66EF76A87
:10172000D890F636F736F50EF626290EF722090080
:10173000F5CF79F00A00F5CF7AF0020E0001F76AD2
:101740007925F66E7A51F7220900F5CF7CF00A0070
:10175000F5CF7DF020D0030E425D1AE24251F66EC5
:10176000F76AD890F636F736F70EF626290EF722E6
:101770000900F5CF79F00A00F5CF7AF079C0F6FFCD
:101780007AC0F7FF0800F55000017C6F7D6B02D036
:1017900000017B6B00D01200D9CFE6FFE1CFD9FF6B
:1017A000020EE1260401486B496B40511F0B020AEF
:1017B00012E0030A0DE0010A01E03BD000017B8F3B
:1017C000040148810001870502E10401488331D00A
:1017D00000017B8F2ED000017B8F040144BF10D00D
:1017E00044510F0BE96EEA6AD890E936EA36670E83
:1017F000E926000EEA22EECFDEFFEDCFDDFF0FD0AF
:1018000044510F0BE96EEA6AD890E936EA366F0E5A
:10181000E926000EEA22EECFDEFFEDCFDDFFDECFC0
:10182000E9FFDDCFEAFFEF50040B02E0010E486F45
:1018300000D000017BAF07D0480E796F040E7A6F9D
:101840007B81020E7C6F020EE15C02E2E16AE552EE
:10185000E16EE552E7CFD9FF12006D9800017BBF22
:101860004AD080AF28D0020E786F6FC0E9FF70C0F9
:10187000EAFFEE52EF6A6FC0E9FF70C0EAFFC80EE0
:10188000EF6E65C0E9FF66C0EAFFEE52080EEF6E2C
:1018900065C0E9FF66C0EAFF020EE926000EEA22F3
:1018A000480EEE6E040EED6E65C0E9FF66C0EAFFFD
:1018B000C80EEF6E1FD065C0E9FF66C0EAFFEE52AA
:1018C000080EEF6E65C0E9FF66C0EAFF020EE9266A
:1018D000000EEA22400EEE6E040EED6E65C0E9FFCA
:1018E00066C0EAFF8C0EEF6E6FC0E9FF70C0EAFFC2
:1018F000840EEF6E86D080BF84D0040140AF59D0F3
:1019000000017C510401465D00017D5104014759ED
:1019100004E246C47CF047C47DF074D80001010E97
:10192000786F65C0E9FF66C0EAFFEE52080EEF6E01
:1019300065C0E9FF66C0EAFF020EE926000EEA2252
:10194000400EEE6E040EED6E65C0E9FF66C0EAFF64
:10195000800EEF6E896B63C0E9FF64C0EAFFEE5250
:10196000080EEF6E63C0E9FF64C0EAFF020EE926CD
:10197000000EEA22400EEE6E040EED6E63C0E9FF2B
:1019800064C0EAFF840EEF6E010E896F6FC0E9FF3D
:1019900070C0EAFF020EE926000EEA22480EEE6E43
:1019A000040EED6E6FC0E9FF70C0EAFFC80EEF6E67
:1019B00028D00001020E786F6FC0E9FF70C0EAFF07
:1019C000EE52EF6A6FC0E9FF70C0EAFFC80EEF6E1B
:1019D00065C0E9FF66C0EAFFEE52080EEF6E65C013
:1019E000E9FF66C0EAFF020EE926000EEA22480E71
:1019F000EE6E040EED6E65C0E9FF66C0EAFFC80E2C
:101A0000EF6E1200D9CFE6FFE1CFD9FF020EE1263B
:101A10000001080E7C5D000E7D590EE27CC0DEFFE9
:101A20007DC0DDFF775103E1010E776F04D07705AC
:101A300002E1020E776F03D0080EDE6EDD6A6FC022
:101A4000E9FF70C0EAFFEF926FC0E9FF70C0EAFFE4
:101A5000EF906FC0E9FF70C0EAFF010EDB50EF129C
:101A60006FC0E9FF70C0EAFFEE52DFCFEFFF000E5C
:101A7000DB507C5F010EDB507D5B480E856F040EF2
:101A8000866F7BB121D0D9CFE9FFDACFEAFFEE50E4
:101A9000ED1019E079C0F6FF7AC0F7FF792B000E40
:101AA0007A230800F550E66E85C0E9FF86C0EAFF9C
:101AB000852B000E8623E552E750EF6EDF06010E00
:101AC00001E2DB06E0D71FD0D9CFE9FFDACFEAFF8A
:101AD000EE50ED1018E079C0E9FF7AC0EAFF792BEB
:101AE000000E7A23EF50E66E85C0E9FF86C0EAFF5C
:101AF000852B000E8623E552E750EF6EDF06010EC0
:101B000001E2DB06E1D7020EE15C02E2E16AE552A6
:101B1000E16EE552E7CFD9FF1200D9CFE6FFE1CF62
:101B2000D9FF020EE12663C0E9FF64C0EAFFEE526E
:101B3000EFCFDFFFDFCF0BF00B500001815D000E18
:101B4000825903E281C0DFFF09D0DF500B6E0C6ABF
:101B50000B50815D816F0C508259826F010EDB6AE0
:101B6000DF50F36E010EDBCFF4FFF350F45C16E2AE
:101B7000010EDB50EA6A480FE96E040EEA22EF50CC
:101B8000E66E7EC0E9FF7FC0EAFF7E2B000E7F235A
:101B9000E552E750EF6E010EDB2AE2D7000ED88047
:101BA0008155000E825528E265C0E9FF66C0EAFF54
:101BB000EE52080EEF6E65C0E9FF66C0EAFF020E46
:101BC000E926000EEA22480EEE6E040EED6E63C0AA
:101BD000E9FF64C0EAFFEF50400B07E165C0E9FF91
:101BE00066C0EAFFC80EEF6E06D065C0E9FF66C0AA
:101BF000EAFF880EEF6E25D065C0E9FF66C0EAFFF8
:101C0000EE52080EEF6E65C0E9FF66C0EAFF020EF5
:101C1000E926000EEA22400EEE6E040EED6E65C05F
:101C2000E9FF66C0EAFF840EEF6E8351841107E07E
:101C300005D084C0FAFF00018351F96EFADF00017C
:101C4000809F020EE15C02E2E16AE552E16EE5523C
:101C5000E7CFD9FF120000017B8F030EE66EE66A24
:101C6000E66A710EE66E0F0EE66EFFEC14F00B6E78
:101C7000050EE15E0B50010EE66EE66AE66A620E44
:101C8000E66E000EE66EFFEC14F00B6E050EE15EE4
:101C90000B5042C461F00001615103E1100E606F0E
:101CA00012D0200E606F010EE66EE66A610EE66EDF
:101CB000000EE66E010EE66EE66A16EC14F00B6E90
:101CC000060EE15E0B501200D9CFE6FFE1CFD9FF3F
:101CD000020EE126000EDE6E040EDD6EFD0EDB5000
:101CE000E8240D6EFE0EDB50040DF3500D24040DA0
:101CF000F3500B6E0C6A020E0F0B05E0D8900C32FD
:101D00000B32E806FBE1D8900B360C36D8900B3638
:101D10000C36D9CFE9FFDACFEAFF0B50EE260C5094
:101D2000ED22DECFE9FFDDCFEAFFEF9EFD0EDB50B7
:101D30000FE1FE0EEA6ADB34FE0BEA36E96E670E4F
:101D4000E926000EEA22DECFEEFFDDCFEDFF0ED05A
:101D5000FE0EEA6ADB34FE0BEA36E96E6F0EE92608
:101D6000000EEA22DECFEEFFDDCFEDFFDECFE9FF92
:101D7000DDCFEAFFEF9CDECFE9FFDDCFEAFF040E07
:101D8000E926000EEA22EF8C020EE15C02E2E16A33
:101D9000E552E16EE552E7CFD9FF1200D9CFE6FF59
:101DA000E1CFD9FF020EE126FE0EDB500C6A700F68
:101DB0000B6E0F0E0C220BC0DEFF0CC0DDFFDECF62
:101DC000E9FFDDCFEAFFFD0EDBCFEFFFDBA407D09D
:101DD000E66AFE0EDBCFE6FF77DFE552E552FD0E49
:101DE000DBA208D0010EE66EFE0EDBCFE6FF6CDF55
:101DF000E552E552020EE15C02E2E16AE552E16E73
:101E0000E552E7CFD9FF1200D9CFE6FFE1CFD9FFE6
:101E1000020EE126FE0EDB5020E165C0E9FF66C040
:101E2000EAFFEE52080EEF6E65C0E9FF66C0EAFFFA
:101E3000020EE926000EEA22400EEE6E040EED6E52
:101E400065C0E9FF66C0EAFF8C0EEF6E6FC0E9FF68
:101E500070C0EAFF840EEF6E3DD0FD0EDB50E8242B
:101E60000D6EFE0EDB50040DF3500D24040DF3CF68
:101E70000BF0F4CF0CF0000E0B26040E0C220BC05E
:101E8000DEFF0CC0DDFF840E0B6EDECFE9FFDDCF81
:101E9000EAFF0B50EF12FD0EDB50E8240D6EFE0E34
:101EA000DB50040DF3500D24010F040DF3CF0BF0A4
:101EB000F4CF0CF0000E0B26040E0C220BC0DEFF3C
:101EC0000CC0DDFF840E0B6EDECFE9FFDDCFEAFF35
:101ED0000B50EF12020EE15C02E2E16AE552E16EA4
:101EE000E552E7CFD9FF1200D9CFE6FFE1CFD9FF06
:101EF000020EE126FD0EDB500FE0FE0EEA6ADB3437
:101F0000FE0BEA36E96E6F0EE926000EEA22EECFEE
:101F1000DEFFEDCFDDFF0ED0FE0EEA6ADB34FE0BF6
:101F2000EA36E96E670EE926000EEA22EECFDEFF02
:101F3000EDCFDDFFDECFE9FFDDCFEAFF020EE926C0
:101F4000000EEA22FB0EDBCFEEFFFC0EDBCFEDFF37
:101F5000DECFE9FFDDCFEAFFEE52FA0EDBCFEFFF77
:101F6000400E0B6EDECFE9FFDDCFEAFF0B50EF1620
:101F7000880E0B6EDECFE9FFDDCFEAFF0B50EF12CC
:101F8000FD0EDB500CE0FE0EEA6ADB34FE0BEA3697
:101F9000E96E6F0EE926000EEA22EF740BD0FE0EFA
:101FA000EA6ADB34FE0BEA36E96E670EE926000EBC
:101FB000EA22EF74DECF0BF0DDCF0CF00BC0F3FFA5
:101FC0000CC0F4FF020EE15C03E200D0E16AE552CE
:101FD000E16EE552E7CFD9FF1200D9CFE6FFE1CF9E
:101FE000D9FF6DA84ED0FE0EEA6ADB34FE0BEA364E
:101FF000E96E6F0EE926000EEA22EE50EFCFEAFFFF
:10200000E96E400EEE16EE6AEE6AEE6AFE0EEA6ABF
:10201000DB34FE0BEA36E96E6F0EE926000EEA228B
:10202000EE50EFCFEAFFE96EEE7CFE0EEA6ADB349B
:10203000FE0BEA36E96E6F0EE926000EEA22EF7417
:10204000400E0B6EFE0EEA6ADB34FE0BEA36E96EDA
:102050006F0EE926000EEA22EE50EFCFEAFFE96E9E
:102060000B50EF16FE0EEA6ADB34FE0BEA36E96E21
:102070006F0EE926000EEA22EE50EFCFEAFFE96E7E
:10208000EF7CE552E7CFD9FF120005D06D6A696A8F
:102090000001606B00D012000001605113E16D6A15
:1020A000696A160E6F6E9F0E6B6E7B0E696ED08E18
:1020B000A28AA08AF28E6DB602D06D86FCD700018E
:0620C000010E606F12002A
:0A20C600DACFE4FFE2CFDAFFE9CF42
:1020D000E4FFEACFE4FFF6CFE4FFF7CFE4FFF5CF6C
:1020E000E4FFF3CFE4FFF4CFE4FFFACFE4FF00EE28
:1020F00000F00B0EE80403E3EECFE4FFFBD700EEA5
:102100000BF0030EE80403E3EECFE4FFFBD7E65247
:102110006AEC08F0E55200EE0DF0030EE80403E36C
:10212000E5CFEDFFFBD700EE0AF00B0EE80403E36A
:10213000E5CFEDFFFBD7E5CFFAFFE5CFF4FFE5CF25
:10214000F3FFE5CFF5FFE5CFF7FFE5CFF6FFE5CFEE
:10215000EAFFE5CFE9FFE5CFDAFF1100D8CFE4FFD2
:10216000E0CFE4FFE46EDACFE4FFE2CFDAFFE6523D
:10217000F2B4F294E552E5CFDAFFE550E5CFE0FFA7
:10218000E5CFD8FF1000D9CFE6FFE1CFD9FFE65267
:1021900028D88A804CEC10F03BD80001AA511BE0F3
:1021A0008A72F29E0D0EE66EB7D9E552F28EF29E5D
:1021B0000C0EE66EB1D9E552F28EDF6A0C0EDF5CD2
:1021C00008E2F29EDFCFE6FFA7D9E552F28EDF2AC2
:1021D000F5D70001AA6BE0D7E552E552E7CFD9FF6A
:1021E0001200928092829284390E946E0001976B55
:1021F000986B996B9A6B9B6B9C6B05D81CEC08F0E9
:10220000936A8A841200F00E8A1693169384120041
:10221000200E0001E76E6019E8AE02D0E73402D06C
:10222000E750605D03E36D50020B01E07AD00001DE
:10223000A16BA12BAB6B040E0001AB5D36E200017C
:102240009D519E1102E1000E08D09DC0E9FF9EC085
:10225000EAFFEF50800B01E0010E000925E18A70D2
:10226000400EE66E0001AB51400DF3CFE9FFF4CF15
:10227000EAFF000EE926060EEA22E9CF0BF0EACFCC
:102280000CF00BC0E6FF0CC0E6FFE66A010EE66E3E
:1022900074EC0FF00D6E050EE15E0D50F3CF9DF066
:1022A000F4CF9EF00001AB2BC6D7AB6B040EAB5D39
:1022B00036E200019B519C1102E1000E08D09BC048
:1022C000E9FF9CC0EAFFEF50800B01E0010E00091E
:1022D00001E0EFD7400EE66E0001AB51400DF3CFA9
:1022E000E9FFF4CFEAFF000EE926070EEA22E9CF64
:1022F0000BF0EACF0CF00BC0E6FF0CC0E6FF010EBE
:10230000E66EE66E74EC0FF00D6E050EE15E0D509C
:10231000F3CF9BF0F4CF9CF00001AB2BC7D7010E9D
:10232000AA6F1200D9CFE6FFE1CFD9FF030EE12655
:10233000010E01C6DBFFDB50080D020EF3CFDBFF01
:10234000DF6A080EDF5C01E384D0EA6ADF34FE0B4B
:10235000EA36E96EC80EE926070EEA22EE52EF5081
:10236000100B75E0DF50EA6AD80FE96E070EEA221B
:10237000EF50F1086CE1EA6ADF34FE0BEA36E96EF1
:10238000C80EE926070EEA22EF50E66E020EDB5079
:10239000DF24E96EEA6AD890E936EA36080EE926C3
:1023A000060EEA22E552E750EF6EEA6ADF34FE0BD2
:1023B000EA36E96EC80EE926070EEA22EE52EF5021
:1023C000030B0B6E020EDB50DF24E96EEA6AD89035
:1023D000E936EA36080EE926060EEA22EE520B50DE
:1023E000030BF36EFC0EEF14F310EF6EEA6ADF34AA
:1023F000FE0BEA36E96EC80EE926070EEA22EE5217
:10240000EF50200B01E0010E0B6E020EDB50DF24BB
:10241000E96EEA6AD890E936EA36080EE926060E31
:10242000EA22EE520B50010BF36EF346F346F346ED
:10243000F346F346DF0EEF14F310EF6E010EDB50A0
:10244000EA6AE00FE96E060EEA22F10EEF6EDF2A6D
:1024500078D7030EE15C02E2E16AE552E16EE552F3
:10246000E7CFD9FF12008A848A888A9A8A8C8A8E5A
:102470008A940501166B176B186B196BC80E165DE5
:10248000000E1759000E1859000E195906E2162BA6
:10249000000E172318231923F1D79568010E1A6F20
:1024A0001B6B060E1A5D000E1B5934E2000E1A2536
:1024B000E96E070E1B21EA6E83CFEFFF8A86166B4B
:1024C000176B186B196B100E165D000E1759000E66
:1024D0001859000E195906E2162B000E172318235F
:1024E0001923F1D78A96166B176B186B196B100EA0
:1024F000165D000E1759000E1859000E195906E204
:10250000162B000E172318231923F1D71A2B000EB0
:102510001B23C7D78A841200D9CFE6FFE1CFD9FFAA
:10252000030EE126FE0EDB500D0802E19CDFD6D043
:102530000F0E811405011E6FFE0EDB38F00B1E25F9
:102540001E6F1EC581FF8A94166B176B186B196B73
:10255000280E165D000E1759000E1859000E195955
:1025600006E2162B000E172318231923F1D79568BE
:10257000166B176B186B196B3C0E165D000E175916
:10258000000E1859000E195906E2162B000E1723DB
:1025900018231923F1D71A6B1B6B100E1A5D000E4E
:1025A0001B591AE2FE0EDB50100DF350EA6A1A2591
:1025B000E96E1B51EA22080EE926000EEA22000EFF
:1025C000E926070EEA2283CFEFFF8A86BBD80501F2
:1025D0001A2B000E1B23E1D7FE0EDB500C081BE16B
:1025E0001A6B1B6B080E1A5D000E1B5912E2D80EF7
:1025F000EA6A1A25E96E1B51EA22000EE926070E47
:10260000EA2283CFEFFF9ED805011A2B000E1B2371
:10261000E9D788DE0FD0FE0EDB50E96EEA6AE00EE5
:10262000E926000EEA22000EE926070EEA2283CFF1
:10263000EFFF88D8956A05011A6B1B6B100E1A5DA7
:10264000000E1B5919E2FE0EDB50100DF350EA6A22
:102650001A25E96E1B51EA22080EE926000EEA222D
:10266000000EE926060EEA22EF508C6E41D80501D5
:102670001A2B000E1B23E2D7FE0EDB500C081AE1CA
:102680001A6B1B6B080E1A5D000E1B5912E2D80E56
:10269000EA6A1A25E96E1B51EA22000EE926060EA7
:1026A000EA22EF508C6E24D805011A2B000E1B2352
:1026B000E9D70FD0FE0EDB50E96EEA6AE00EE9269C
:1026C000000EEA22000EE926060EEA22EF508C6E7A
:1026D0000FD88A840001010EA36F9568030EE15C98
:1026E00002E2E16AE552E16EE552E7CFD9FF12005E
:1026F0000501166B176B186B196B080E165D000E33
:102700001759000E1859000E195906E2162B000E23
:10271000172318231923F1D78A86166B176B186BAA
:10272000196B080E165D000E1759000E1859000E91
:10273000195906E2162B000E172318231923F1D777
:102740008A9612008A860501166B176B186B196B37
:10275000080E165D000E1759000E1859000E195973
:1027600006E2162B000E172318231923F1D78A9699
:10277000166B176B186B196B080E165D000E175948
:10278000000E1859000E195906E2162B000E1723D9
:1027900018231923F1D71200D9CFE6FFE1CFD9FFD3
:1027A000030EE126FE0EDB50550BDF6EFD0EDB50F7
:1027B000AA0BE76E010EE7CFDBFFDB50DF24E76EED
:1027C000020EE7CFDBFFDB1C0B6E030EE15C03E2C6
:1027D00000D0E16AE552E16E0B50E552E7CFD9FF38
:1027E00012001200120012001200120012001A0E43
:1027F000E66E020EE66ECEEC0EF0E552E5521E0ECF
:10280000E66E010EE66ECEEC0EF0E552E5521200D9
:102810006D840001080E9F6F070EA06F9F07000ECA
:10282000A05B9F51A011FAE16D941200D9CFE6FF91
:10283000E1CFD9FFFD0EDBCF06F0FE0EDBCF07F0B8
:10284000720E061801E1075033E0E868061802E14D
:10285000E86807182BE0740E061801E1075024E021
:10286000750E061801E107501DE0730E061801E110
:10287000075016E0030E061801E107500FE0020EA4
:10288000061801E1075008E0010E061801E10750A3
:1028900001E010D0ACDF0FD0A9DF0DD0A6DF0BD048
:1028A000A2DF09D09EDF07D09DDF05D09DDF03D0DA
:1028B000000001D000D0010E00D0E552E7CFD9FFD3
:0228C000120004
:0E28C2002A0EF66E100EF76E000EF86E000174
:1028D0000900F550B16F0900F550B26F03E1B1671F
:1028E00001D03DD00900F550AC6F0900F550AD6F37
:1028F0000900F550AE6F09000900F550E96E0900B6
:10290000F550EA6E090009000900F550AF6F0900A3
:10291000F550B06F09000900F6CFB3F0F7CFB4F06F
:10292000F8CFB5F0ACC0F6FFADC0F7FFAEC0F8FF12
:102930000001AF5302E1B05307E00900F550EE6E1D
:10294000AF07F8E2B007F9D7B3C0F6FFB4C0F7FF9E
:10295000B5C0F8FF0001B107000EB25BBFD712008F
:102960001201000200000008D80452000000010219
:10297000000109022700010100C032090400000320
:10298000FFFFFF000705010240000107058102402B
:10299000000107058203400010040309041C0341E1
:1029A00000750074006F006D0061006E0020005320
:1029B00000540048004C004D003C03530053004CB1
:1029C000002000340030003000300020004100754D
:1029D0000074006F006D006100740069006F006E8C
:1029E00000200069006E00740065007200660061DE
:0D29F0000063006500722999299D29B9290D
:0229FE00FE0ECB
:102A0000E3CFE9FFFF0EE3CFEAFFE9CFF3FFEACF21
:102A1000F4FFFB0EE35003E1FC0EE35009E0FB0E74
:102A2000E30602E2FC0EE306FD0EE350EE6EF1D784
:022A3000120092
:0E2A3200000EF36E00EE00F0040E01D812004C
:102A4000EA6002D0EE6AFCD7F350E9601200EE6A49
:022A5000FCD7B1
:0E2A520013EE00F023EE00F0F86A0A9C61EC2F
:0E2A600014F037EC15F0C3EC10F0FBD71200A9
:022A6E00120054
:0B2A700000000000000000000000005B
:020000040030CA
:0100000024DB
:010001000EF0
:010002003FBE
:010003001EDE
:010005008179
:010006008178
:010008000FE8
:01000900C036
:01000A000FE6
:01000B00E014
:01000C000FE4
:01000D0040B2
:00000001FF
