:020000040000FA
:0600000082EF17F0120070
:0600080004EF08F01200F5
:060018000CEF08F01200DD
:0610000082EF17F0120060
:02100600FFFFEA
:0610080044EF11F012009C
:021016000001D7
:061018006CEF11F0120064
:06102A0001002A2F000066
:08103000600000003200000026
:08103800D9CFE6FFE1CFD9FF9B
:10104000E652A09A6A6A686A706A010EE66EE66AFB
:10105000E66A710EE66E0F0EE66E58EC17F00B6E38
:10106000050EE15E0B50160E6F6E9F0E6B6E7B0EC3
:10107000696EDF6ADF500B6E0C6A080E0B5C000EA7
:101080000C5810E2DF50040DF3CFE9FFF4CFEAFF74
:10109000000EE926040EEA22EE6AEE6AEE6AEE6AB5
:1010A000DF2AE8D76D8C6E6A6D986D9C68A607D0B4
:1010B00068960001A56BAA6BAB6BAC6BF7D7000110
:1010C000010EBC6FBD6FBE6BBF6BB26BDF6A020EF1
:1010D000DF5C26E2EA6ADF34FE0BEA36E96E9D0E3B
:1010E000E926000EEA22EE6AED6AEA6ADF34FE0BB8
:1010F000EA36E96E990EE926000EEA22EE6AED6AFA
:10110000DF50EA6AB60FE96E000EEA22EF6ADF509E
:10111000EA6AB80FE96E000EEA22EF6ADF2AD7D733
:101120000001080E9D6F040E9E6F160E706E040176
:10113000200E026F040E036F080E016F840E006F05
:101140000001936B926BE552E552E7CFD9FF120095
:10115000D9CFE6FFE1CFD9FFE652000192510FE16E
:101160006D6A696A160E6F6E9F0E6B6E7B0E696EEE
:101170006DB602D06D86FCD70001010E926F92050C
:1011800008E16DBA06D0686A696A69806988020EEA
:10119000926F6850040B06E06950040B03E06894FA
:1011A00083EC0EF06DB258D06850010B08E0695026
:1011B000010B05E041DF0001040E926F689068505A
:1011C000100B06E06950100B03E06EEC0EF068980F
:1011D00068AC19D069AC0FD0010EE66EE66A000E5D
:1011E000E66EE66A730EE66EE66A75EC15F00B6E57
:1011F000060EE15E0B50689C0001BA5101E0BA078F
:10120000BA5101E1DFD96850200B05E06950200B8D
:1012100002E055EC0EF06850020B13E06950020B2F
:1012200010E0010EE66EE66A000EE66EE66AE6681B
:101230007F0EE66E75EC15F00B6E060EE15E0B5040
:101240006A6A040E0001E76E9219E8AE02D0E73434
:1012500002D0E750925D02E2A19A39D069A636D059
:10126000DF6A040EDF5C32E268A630D06CCFB3F0E8
:101270000001B351780BE842E842E842B46F689647
:10128000B3B506D0B451EA6AB80FE96E000E05D0C6
:10129000B451EA6AB60FE96E000EEA22EF70B4515B
:1012A00003E19AEC0EF010D0000EE66EE66AB30E83
:1012B000E66E000EE66E720EE66EE66A75EC15F0EE
:1012C0000B6E060EE15E0B50DF2ACBD7A19AE552DA
:1012D000E552E7CFD9FF1200D9CFE6FFE1CFD9FF22
:1012E000020EE126FD0EDBA407D0E66AFE0EDBCF80
:1012F000E6FFF7D9E552E552FD0EDBA208D0010E5C
:10130000E66EFE0EDBCFE6FFECD9E552E552FE0EAF
:10131000DB500C6A700F0B6E0F0E0C220BC0DEFF41
:101320000CC0DDFFDECFE9FFDDCFEAFFFD0EDBCF36
:10133000EFFF020EE15C02E2E16AE552E16EE55286
:10134000E7CFD9FF1200D9CFE6FFE1CFD9FF020ED8
:10135000E126FD0EDB500AE0FE0EEA6ADB34FE0BEE
:10136000EA36E96E9D0EE926000E09D0FE0EEA6A05
:10137000DB34FE0BEA36E96E990EE926000EEA220E
:10138000EECFDEFFEDCFDDFFD9CFE9FFDACFEAFF09
:10139000EE50ED1003E1F36AF46A44D0DECFE9FFCA
:1013A000DDCFEAFF020EE926000EEA22FB0EDBCFBC
:1013B000EEFFFC0EDBCFEDFFDECFE9FFDDCFEAFF76
:1013C000EE52FA0EDBCFEFFF400EDECFE9FFDDCFAE
:1013D000EAFFE850EF16880EDECFE9FFDDCFEAFF27
:1013E000E850EF12FD0EDB500AE0FE0EEA6ADB3435
:1013F000FE0BEA36E96E9D0EE926000E09D0FE0EC0
:10140000EA6ADB34FE0BEA36E96E990EE926000E35
:10141000EA22EF74DECF0BF0DDCF0CF00BC0F3FF50
:101420000CC0F4FF020EE15C02E2E16AE552E16EFB
:10143000E552E7CFD9FF1200D9CFE6FFE1CFD9FFC0
:10144000020EE126FE0EDB5020E197C0E9FF98C0B6
:10145000EAFFEE52080EEF6E97C0E9FF98C0EAFF70
:10146000020EE926000EEA22200EEE6E040EED6E4C
:1014700097C0E9FF98C0EAFF8C0EEF6E9DC0E9FFB0
:101480009EC0EAFF840EEF6E3BD0FD0EDB50E824D9
:101490000D6EFE0EDB50040DF3500D24040DF3CF42
:1014A0000BF0F4CF0CF0000E0B26040E0C220BC038
:1014B000DEFF0CC0DDFF840EDECFE9FFDDCFEAFFEB
:1014C000E850EF12FD0EDB50E8240D6EFE0EDB50EF
:1014D000040DF3500D24010F040DF3CF0BF0F4CFE6
:1014E0000CF0000E0B26040E0C220BC0DEFF0CC00D
:1014F000DDFF840EDECFE9FFDDCFEAFFE850EF121B
:10150000020EE15C02E2E16AE552E16EE552E7CFEC
:10151000D9FF1200D9CFE6FFE1CFD9FF6DA84ED099
:10152000FE0EEA6ADB34FE0BEA36E96E9D0EE92612
:10153000000EEA22EE50EFCFEAFFE96E400EEE1603
:10154000EE6AEE6AEE6AFE0EEA6ADB34FE0BEA36FB
:10155000E96E9D0EE926000EEA22EE50EFCFEAFF7B
:10156000E96EEE7CFE0EEA6ADB34FE0BEA36E96ECB
:101570009D0EE926000EEA22EF74400E0B6EFE0E61
:10158000EA6ADB34FE0BEA36E96E9D0EE926000EB0
:10159000EA22EE50EFCFEAFFE96E0B50EF16FE0E97
:1015A000EA6ADB34FE0BEA36E96E9D0EE926000E90
:1015B000EA22EE50EFCFEAFFE96EEF7CE552E7CF8B
:1015C000D9FF12000001BC514DE1010EBC6FBD51AD
:1015D00049E1010EBD6F020EA25D0DE19DC0E9FF64
:1015E0009EC0EAFFEE52EF6A9DC0E9FF9EC0EAFF8F
:1015F000C80EEF6E1200A20535E1B56B95C0E9FF8C
:1016000096C0EAFFEE52080EEF6E95C0E9FF96C055
:10161000EAFF020EE926000EEA22200EEE6E040E0C
:10162000ED6E95C0E9FF96C0EAFF840EEF6E010EE5
:10163000B56F97C0E9FF98C0EAFFEE52080EEF6E53
:1016400097C0E9FF98C0EAFF020EE926000EEA22E1
:10165000200EEE6E040EED6E97C0E9FF98C0EAFF13
:10166000800EEF6E12000001BE6BBF6B020EA25D1A
:1016700018E197C0E9FF98C0EAFFEE52080EEF6E3E
:1016800097C0E9FF98C0EAFF020EE926000EEA22A1
:10169000280EEE6E040EED6E97C0E9FF98C0EAFFCB
:1016A0001DD0A6510401265D0001A7510401275950
:1016B00004E226C4A6F027C4A7F0CAD89DC0E9FF5B
:1016C0009EC0EAFF020EE926000EEA22280EEE6E08
:1016D000040EED6E9DC0E9FF9EC0EAFFC80EEF6EDE
:1016E0001200D9CFE6FFE1CFD9FF020EE126000EAE
:1016F000DE6E040EDD6EFD0EDB50E8240D6EFE0E78
:10170000DB50040DF3500D24040DF4CF0CF0D9CFB1
:10171000E9FFDACFEAFFF350EE260C50ED22DECFE0
:10172000E9FFDDCFEAFFEF9EFD0EDB500AE1FE0E82
:10173000EA6ADB34FE0BEA36E96E990EE926000E02
:1017400009D0FE0EEA6ADB34FE0BEA36E96E9D0E26
:10175000E926000EEA22DECFEEFFDDCFEDFFDECF81
:10176000E9FFDDCFEAFFEF9CDECFE9FFDDCFEAFF47
:10177000040EE926000EEA22EF8C020EE15C02E282
:10178000E16AE552E16EE552E7CFD9FF12006D98AC
:101790000001A5BF2BD0AAAF09D0020EA26FBF5186
:1017A00001E161DF0001BD6BBC6B120097C0E9FF76
:1017B00098C0EAFFEE52080EEF6E97C0E9FF98C09E
:1017C000EAFF020EE926000EEA22200EEE6E040E5B
:1017D000ED6E97C0E9FF98C0EAFF8C0EEF6E9DC0DA
:1017E000E9FF9EC0EAFF840EEF6E1200040120AFF5
:1017F0000DD00001010EA26FBE5101E134DF0001E6
:10180000BD6BBC6BBB5123E1E2EF0AF00001020E9D
:10181000A26F97C0E9FF98C0EAFFEE52080EEF6E84
:1018200097C0E9FF98C0EAFF020EE926000EEA22FF
:10183000200EEE6E040EED6E97C0E9FF98C0EAFF31
:10184000840EEF6EBD6BBC6BBB5101E1BBDE1200C1
:10185000D9CFE6FFE1CFD9FFE652080EDF6E0001D7
:10186000A65D000EA7590AE2A6C0DFFFA15102E162
:10187000010E03D0A10502E1020EA16FDF500C6A38
:10188000E850A65DA66F0C50A759A76F9DC0E9FF51
:101890009EC0EAFFEE52DFCFEFFF280EAF6F040EBF
:1018A000B06FA5B118D0DF502DE0A3C0F6FFA4C0E3
:1018B000F7FFA32B000EA4230800F550E66EAFC07F
:1018C000E9FFB0C0EAFFAF2B000EB023E552E750AE
:1018D000EF6EDF06E8D7DF5015E0A3C0E9FFA4C034
:1018E000EAFFA32B000EA423EF50E66EAFC0E9FF82
:1018F000B0C0EAFFAF2B000EB023E552E750EF6E09
:10190000DF06E9D7E552E552E7CFD9FF1200D9CF7C
:10191000E6FFE1CFD9FF020EE12695C0E9FF96C0B0
:10192000EAFFEE52EFCFDFFFDFCF0BF00B500001ED
:10193000AB5D000EAC5902E2ABC0DFFFDF500B6EB7
:101940000C6AE850AB5DAB6F0C50AC59AC6F010E3C
:10195000DB6ADF50F36E010EDBCFF4FFF350F45C73
:1019600016E2010EDB50EA6A280FE96E040EEA2245
:10197000EF50E66EA8C0E9FFA9C0EAFFA82B000E51
:10198000A923E552E750EF6E010EDB2AE2D7000EE5
:10199000D880AB55000EAC5527E297C0E9FF98C040
:1019A000EAFFEE52080EEF6E97C0E9FF98C0EAFF1B
:1019B000020EE926000EEA22280EEE6E040EED6EEF
:1019C00095C0E9FF96C0EAFFEF50400B06E197C0D3
:1019D000E9FF98C0EAFFC80E05D097C0E9FF98C09C
:1019E000EAFF880EEF6E28D097C0E9FF98C0EAFFA3
:1019F000EE52080EEF6E97C0E9FF98C0EAFF020EA4
:101A0000E926000EEA22200EEE6E040EED6E97C05F
:101A1000E9FF98C0EAFF840EEF6EAD51AE1107E00A
:101A200005D0AEC0FAFF0001AD51F96EFADF00013A
:101A3000AA9FBB5101E1C6DD020EE15C02E2E16A50
:101A4000E552E16EE552E7CFD9FF1200D9CFE6FFAC
:101A5000E1CFD9FFE6520001A58F010EE66EE66ADE
:101A6000E66A710EE66E0F0EE66E58EC17F00B6E1E
:101A7000050EE15E0B50200EE66EE66AE66A000E89
:101A8000E66E040EE66E58EC17F00B6E050EE15E86
:101A90000B506D8CDF6A020EDF5C10E2DF50EA6AE9
:101AA000B60FE96E000EEA22EF6ADF50EA6AB80F5D
:101AB000E96E000EEA22EF6ADF2AEDD7010EE66E2C
:101AC000E66AE66A940EE66E000EE66E58EC17F0D3
:101AD0000B6E050EE15E0B506D9C0001080E9D6FB4
:101AE000040E9E6F000E956F040E966F95C097F0D2
:101AF000986F22C493F0935102E1100E12D0010EA0
:101B0000E66EE66A930EE66E000EE66E010EE66E77
:101B1000E66A75EC15F00B6E060EE15E0B500001E7
:101B2000200E926FE552E552E7CFD9FF1200800EEA
:101B30000401205D58E10001C00EA56F040123518E
:101B4000030A2FE0010A09E0030A4BE10001240E19
:101B5000A36F2D0EA46F120E3ED02251F66EF76ABF
:101B6000D890F636F736C70EF6262D0EF722090066
:101B7000F5CFA3F00A00F5CFA4F0020E0001F76A3A
:101B8000A325F66EA451F7220800F5CFA6F0030EA8
:101B9000F76AA325F66EA451F7220800F5CFA7F047
:101BA0001200030E225D1AE22251F66EF76AD890F7
:101BB000F636F736C90EF6262D0EF7220900F5CFB8
:101BC000A3F00A00F5CFA4F0A3C0F6FFA4C0F7FF6E
:101BD0000800F5500001A66FA76B12000001A56B6D
:101BE00012000001A56B1200D9CFE6FFE1CFD9FFAB
:101BF000020EE1260401286B296B20511F0B020AFB
:101C000011E0030A0CE0010A3CE10001A58F040188
:101C100028810001B10535E10401288332D000019B
:101C2000A58F2FD00001A58F040124BF0BD0245114
:101C30000F0BE96EEA6AD890E936EA36990EE92682
:101C4000000E0AD024510F0BE96EEA6AD890E936EB
:101C5000EA369D0EE926000EEA22EECFDEFFEDCF3A
:101C6000DDFFDECFE9FFDDCFEAFFEF50800B09E0BB
:101C7000DECFE9FFDDCFEAFFEF50040B02E0010EFB
:101C8000286F0001A5AF07D0280EA36F040EA46F24
:101C9000A581020EA66F020EE15C02E2E16AE55246
:101CA000E16EE552E7CFD9FF120070A015D095C0C4
:101CB000E9FF96C0EAFFEF5080080DE19DC0E9FF03
:101CC0009EC0EAFFEF50840806E195C0E9FF96C088
:101CD000EAFF8C0EEF6E7090689A12006984689823
:101CE0006D820001010EB26F000EE66EE66AE66ECE
:101CF000E66A750EE66EE66A75EC15F00B6E060E7A
:101D0000E15E0B5012000001B26B000EE66EE66A57
:101D1000E66EE66A740EE66EE66A75EC15F00B6E1A
:101D2000060EE15E0B506D92699468A402D068942F
:101D3000FCD71200D9CFE6FFE1CFD9FFE652000170
:101D40002D0EBA6FFD0EB31553E17E0EB315E840AC
:101D50007F0B040DF3CF95F0F4CF96F0000E95278E
:101D6000040E962395C097F096C098F0977595C08D
:101D7000E9FF96C0EAFFEF503C0BE842E8420D084D
:101D800035E1DF6A080EDF5C23E295C0E9FF96C00B
:101D9000EAFF020EE926000EEA22EE50EFCFEAFF3C
:101DA000E96EEF50E66EDF50EA6A200FE96E040E2E
:101DB000EA22E552E750EF6E95C0E9FF96C0EAFFD0
:101DC000020EE926000EEA22EE2AEF22DF2ADAD7F7
:101DD00095C0E9FF96C0EAFF020EE926000EEA224E
:101DE000200EEE6E040EED6E0DD807D03AD805D059
:101DF000FD0EB315040801E159D8E552E552E7CFCD
:101E0000D9FF12000001A16BBB6BBE6BBF6BB56B42
:101E1000A26B9DC0E9FF9EC0EAFFEF9E9D759DC02D
:101E2000E9FF9EC0EAFFEF9E9D7597C0E9FF98C04D
:101E3000EAFFEF9EA56BA66BA76BAA6BAB6BAC6BB7
:101E40008CD8000EE66EE66AE66EE66A030EE66E73
:101E5000E66A75EC15F00B6E060EE15E0B50C7EFEF
:101E60000BF0020E0001A25D02E187EF0CF0A26B05
:101E7000B5511AE197C0E9FF98C0EAFFEE52080E8B
:101E8000EF6E97C0E9FF98C0EAFF020EE926000E48
:101E9000EA22200EEE6E040EED6E97C0E9FF98C0A8
:101EA000EAFF8C0EEF6E1200B56B1200D9CFE6FF81
:101EB000E1CFD9FFE6529DC0E9FF9EC0EAFFEF5097
:101EC000400B01E0010EDF6E00019D75080E925D72
:101ED00008E122C46EFF6E5002E0100E01D0040E25
:101EE000926FA20526E19DC0E9FF9EC0EAFF020EA7
:101EF000E926000EEA22280EEE6E040EED6EA8DC36
:101F0000020E0001A15D06E19DC0E9FF9EC0EAFF4F
:101F1000840E0DD0DF5006E19DC0E9FF9EC0EAFFB0
:101F2000C80E05D09DC0E9FF9EC0EAFF880EEF6E87
:101F30000FD0AAAF0CD0AD51AE1107E005D0AEC0A6
:101F4000FAFF0001AD51F96EFADF0001AA9FA26B02
:101F5000E552E552E7CFD9FF120004012051600B92
:101F6000E842E842E842E842E842000901E01200A3
:101F700021510C0A50E00B0A3FE00C0A31E0010A43
:101F800022E00B0A1EE0020A1CE0030A18E0080A1D
:101F900010E0010A0CE00F0A08E0030A01E0120059
:101FA0000001A58F080E926F120097EF0DF026EF3B
:101FB0000DF00001930EA36F000EA46F0CD0F4EF90
:101FC0000DF00CEF10F024510001A36FA46B940EE0
:101FD000A327000EA423A581010EA66FA58F1200D2
:101FE0000001A58F04012451EA6A940FE96E000EE6
:101FF000EA2222C4EFFF1200000EE66EE66AE66EE9
:10200000E66A020EE66EE66A75EC15F00B6E060ED9
:10201000E15E0B5012001200D9CFE6FFE1CFD9FFED
:10202000050EE1260401220510E120511F0B0009D5
:102030000CE10001A58F030E0401215D04E1000104
:10204000010EB16F02D00001B16B0401225101E019
:1020500011D120511F0B020801E00CD124510F0BAC
:10206000000901E107D124510F0B010801E202D15F
:10207000200E0001925D01E0FDD0A58F040124BF78
:1020800016D024510F0BE96EEA6AD890E936EA3689
:10209000990EE926000EEA22EECFDEFFEDCFDDFF3E
:1020A00024510F0BEA6AB80FE96E000E15D02451C7
:1020B0000F0BE96EEA6AD890E936EA369D0EE926FA
:1020C000000EEA22EECFDEFFEDCFDDFF24510F0B35
:1020D000EA6AB60FE96E000EEA22020EEFCFDBFFCE
:1020E000D950020FE96EDACFEAFFEF50010B03E19E
:1020F000000EDF9401D0DF8424BF0BD024510F0BDE
:10210000E96EEA6AD890E936EA36990EE926000EB9
:102110000AD024510F0BE96EEA6AD890E936EA3604
:102120009D0EE926000EEA22DECFEEFFDDCFEDFFA9
:10213000030E215D20E1DECFE9FFDDCFEAFFEF50A6
:10214000800B11E024BF07D024510F0BEA6AB80FAF
:10215000E96E000E06D024510F0BEA6AB60FE96E45
:10216000000EEA22EF82840EDECFE9FFDDCFEAFF28
:10217000E850EF127FD0DF74DECFE9FFDDCFEAFF5A
:10218000EF50800B1BE0DECFE9FFDDCFEAFFEF9ED3
:10219000DECFE9FFDDCFEAFFEF8C020EE66EE66AE6
:1021A000DECFE6FFDDCFE6FF050EE66EE66A75ECF4
:1021B00015F00B6E060EE15E0B5005D0DECFE9FF89
:1021C000DDCFEAFFEF8CDF74D950020FE96EDACF72
:1021D000EAFFEF50020B07E1DECFE9FFDDCFEAFFB8
:1021E000EF50800B2BE0040124BF07D024510F0BCC
:1021F000EA6AB80FE96E000E06D024510F0BEA6AA6
:10220000B60FE96E000EEA22EF923B0E0B6EDECFA8
:10221000E9FFDDCFEAFFE850EF16020EE66EE66A50
:10222000DECFE6FFDDCFE6FF050EE66EE66A75EC73
:1022300015F00B6E060EE15E0B5007D03B0EDECFA5
:10224000E9FFDDCFEAFFE850EF16040124510F0B40
:102250000C6A700F0B6E0F0E0C22030E0BC0DBFF0F
:10226000040E0CC0DBFF030EDBCFE9FF040EDBCF57
:10227000EAFFEF90050EE15C02E2E16AE552E16EF1
:08228000E552E7CFD9FF12007F
:08228800DACFE4FFE6529EA04C
:102290001FD08D820001000ED8808A55000E8B550C
:1022A00004E28A07000E8B5B05D0020E7D5D02E121
:1022B000030E7D6F010E896F642B030E641764514A
:1022C00002E1010E606F9E90200ECF6ECE6A8D925D
:1022D000E552E5CFDAFF1100D8CFE4FFE0CFE4FF0D
:1022E000E46EDACFE4FFE652E552E5CFDAFFE550DF
:1022F000E5CFE0FFE5CFD8FF1000D9CFE6FFE1CF73
:10230000D9FF050EE126DF6A77DA93929394948ED3
:10231000949C9494956A969096929694936A010EE2
:10232000DB6A020EDB6A010EDBCF0BF0020EDBCFA5
:102330000CF0040E0B5C000E0C5855E2030EDB6A29
:10234000040EDB6A030EDBCF0BF0040EDBCF0CF0C8
:10235000400E0B5C000E0C5840E2010EDBCFE9FF93
:10236000020EDBCFEAFF060ED890E936EA36E80621
:10237000FBE1300EE926050EEA22E9CF0BF0EACFA9
:102380000CF0010EDB50E924E96E020EDB50EA206E
:10239000EA6EEF6A010EDBCFE9FF020EDBCFEAFF48
:1023A000060ED890E936EA36E806FBE1300EE9265B
:1023B000040EEA22E9CF0BF0EACF0CF0010EDB505D
:1023C000E924E96E020EDB50EA20EA6EEF6A030EA2
:1023D000DB2A040EB7E3DB2AB5D7010EDB2A020E97
:1023E000A2E3DB2AA0D70001895107E0030E6415A0
:1023F000DF6E896B010E8C6F676F8C5173E06151DA
:1024000071E17A2B7A51050867E2796B050E7A6FD4
:10241000010EDB6A020EDB6A010EDBCF0BF0020E4F
:10242000DBCF0CF0040E0B5C000E0C5855E2030ED3
:10243000DB6A040EDB6A030EDBCF0BF0040EDBCF8E
:102440000CF0400E0B5C000E0C5840E2010EDBCF8E
:10245000E9FF020EDBCFEAFF060ED890E936EA3636
:10246000E806FBE1300EE926050EEA22E9CF0BF083
:10247000EACF0CF0030EDB50E924E96E040EDB50CA
:10248000EA20EA6EEF6A010EDBCFE9FF020EDBCF36
:10249000EAFF060ED890E936EA36E806FBE1300E90
:1024A000E926040EEA22E9CF0BF0EACF0CF0030E86
:1024B000DB50E924E96E040EDB50EA20EA6EEF6A95
:1024C000030EDB2A040EB7E3DB2AB5D7010EDB2AA5
:1024D000020EA2E3DB2AA0D7DFCFE6FF0AD8E5523F
:1024E00000018C6BA8EC08F0DFCFE6FFA2D9E55223
:1024F0007AD7D9CFE6FFE1CFD9FF4D0EE126450EC1
:10250000DB6A460EDB6A470EDB6A480EDB6A490E61
:10251000DB6A4A0EDB6A4B0EDB6A4C0EDB6A91C04B
:102520000BF00C6A0BBE0C680B5000018F270C508F
:10253000902390350AE28F51FF08030E905505E273
:102540008F69030E906FFB0E916F800E901504E063
:102550008F6B906B050E916F7C5101E143D1020EA0
:10256000DB6A030EF36E020EDBCFF4FFF350F45C74
:1025700001E3B0D0A8EC08F0020EDBCFE6FFFE0EC0
:10258000DB50030DF350E552E724E66E6ADAE552BC
:102590008A949568010EDB6A0C0EF36E010EDBCF98
:1025A000F4FFF350F45C03E2010EDB2AF5D7DF6A97
:1025B000100EDF5C30E2D950050F0B6EDACF0CF055
:1025C000020EDB50100DF350DF240F010B24E96ED7
:1025D000000EDA20EA6E83CFEFFF8A86010EDB6AF7
:1025E000020EF36E010EDBCFF4FFF350F45C03E256
:1025F000010EDB2AF5D78A96010EDB6A020EF36E16
:10260000010EDBCFF4FFF350F45C03E2010EDB2A92
:10261000F5D7DF2ACDD7956ADF6A100EDF5C3BE283
:10262000FE0EDB50400DF3CFE9FFF4CFEAFF300E92
:10263000E926050EEA22E9CF0BF0EACF0CF0020EF4
:10264000DB50100DF350DF24080F0F01E924E96E71
:10265000000EEA20EA6EEF508C6E010EDB6A020E6D
:10266000F36E010EDBCFF4FFF350F45C03E2010ED6
:10267000DB2AF5D78A86010EDB6A040EF36E010EA3
:10268000DBCFF4FFF350F45C03E2010EDB2AF5D755
:102690008A96DF2AC2D7010EDB6A080EF36E010E9E
:1026A000DBCFF4FFF350F45C03E2010EDB2AF5D735
:1026B00095688A84010EDB6A040EF36E010EDBCF8F
:1026C000F4FFF350F45C03E2010EDB2AF5D7020EAF
:1026D000DB2A47D7020EDB6A030EF36E020EDBCF56
:1026E000F4FFF350F45C01E37DD0DF6A080EDF5C99
:1026F0006AE2D950050F0E6EDF50E824106E020E0C
:10270000DB50100DF35010240E24E96E000EDA2079
:10271000EA6EEF50E66EFE0EDB50400DF3CFE9FFA0
:10272000F4CFEAFF300EE926040EEA22080EE9266D
:10273000000EEA22E9CF0BF0DF50E8240D6E020E06
:10274000DB50100DF3500D24E924E96E000EEA2051
:10275000EA6EE552E750EF6ED950050F0E6EDF506E
:10276000E824106E020EDB50100DF3501024010F00
:102770000E24E96E000EDA20EA6EEF50E66EFE0ED1
:10278000DB50400DF3CFE9FFF4CFEAFF300EE9262E
:10279000040EEA22080EE926000EEA22E9CF0BF029
:1027A000DF50E8240D6E020EDB50100DF3500D24A7
:1027B000010FE924E96E000EEA20EA6EE552E750C7
:1027C000EF6EDF2A93D7FE0EDB50400DF3CFE9FF0B
:1027D000F4CFEAFF300EE926040EEA22EF6A020E79
:1027E000DB2A7AD74D0EE15C02E2E16AE552E16E46
:1027F000E552E7CFD9FF12000F0EC11202D81CEF2D
:1028000008F0F00E8A1693160001816B826B836BC1
:10281000846B010E856FF28EF28CDD0EE66E37EC66
:1028200017F0E5529268936A800E946E95688A80DC
:102830001200D9CFE6FFE1CFD9FF040EE126200E2A
:102840000001E76E9219E8AE02D0E73402D0E750FB
:10285000925D03E36D50020B02E08A80F8D0000124
:10286000675167E08351841102E1000E08D083C0F4
:10287000E9FF84C0EAFFEF50800B01E0010E000980
:1028800058E1040E7D5D03E17D6B010E7C6FFE0E51
:10289000DB500B6EFE0EDB50400DF3CFE9FFF4CFA3
:1028A000EAFF300EE926040EEA22EE520B50030B2B
:1028B000F36EFC0EEF14F310EF6EDF6A400EDF5C78
:1028C00023E2FE0EDB50400DF3CFE9FFF4CFEAFF29
:1028D000300EE926040EEA22E9CF0BF0EACF0CF025
:1028E000DF500F01E924E96E000EEA20EA6EEF5096
:1028F000E66EDF50EA6A700FE96E060EEA22E552D4
:10290000E750EF6EDF2ADAD7400EE66E700EE66E05
:10291000060EE66E010EE66EE66EA3EC09F00B6E97
:10292000050EE15E0B50F3CF83F0F4CF84F000018D
:10293000676B8151821102E1000E08D081C0E9FF6E
:1029400082C0EAFFEF50800B01E0010E000901E0B8
:102950007ED07A6B030E06013115E76E020EE7CFCB
:10296000DBFF0001795102E1010E796FDF6A400E51
:10297000DF5C23E2DF50EA6A300FE96E060EEA22DE
:10298000EF50E66E020EDB50400DF3CFE9FFF4CFBF
:10299000EAFF300EE926050EEA22E9CF0BF0EACF76
:1029A0000CF0DF500F01E924E96E000EEA20EA6E18
:1029B000E552E750EF6EDF2ADAD7020EDB50400D0A
:1029C000F3CFE9FFF4CFEAFF300EE926050EEA2245
:1029D000EF50FC0B040818E100017C5115E07C6B02
:1029E000010E7D6F030E80C0DBFFDF6A0C0EDF5C23
:1029F00008E2DFCF80F0110EE66EC1D8E552DF2A83
:102A0000F5D7030EDBCF80F000018151821102E186
:102A1000000E08D081C0E9FF82C0EAFFEF50800BB2
:102A200001E0010E000913E1400EE66E300EE66E85
:102A3000060EE66EE66A010EE66EA3EC09F00B6E7A
:102A4000050EE15E0B50F3CF81F0F4CF82F0040E5F
:102A5000E15C02E2E16AE552E16EE552E7CFD9FFBF
:102A60001200D9CFE6FFE1CFD9FFE6520F0E8A144C
:102A7000DF6EFE0EDB38F00BDF248A6EE552E55286
:102A8000E7CFD9FF1200120012001200120031EF3E
:102A900016F012001E0EE66E010EE66E6CEC09F0EA
:102AA000E552E55212000001B1051EE10001B20538
:102AB0001BE1EADF6D920001B26B0001100EDD6FC9
:102AC0000E0EDE6FDD07000EDE5BDD51DE11FAE17A
:102AD0006D84080EDD6F070EDE6FDD07000EDE5B16
:102AE000DD51DE11FAE16D941200D9CFE6FFE1CF9E
:102AF000D9FFFD0EDBCF06F0FE0EDBCF07F0050E93
:102B0000061801E1075036E0E868061802E17F0E7A
:102B100007182FE0030E061801E1075028E0020E07
:102B2000061801E1075021E0010E061801E10750E7
:102B30001AE0740E061801E1075013E0750E06182E
:102B400001E107500CE0730E061801E1075005E0A3
:102B5000720E06180FE107500DD097DF0BD093DFF0
:102B600009D092DF07D096DF05D093DF03D08FDF47
:102B700001D08CDF010EE552E7CFD9FF1200D9CF8B
:102B8000E6FFE1CFD9FF040EE126A8EC08F080C0F3
:102B9000E6FF67DFE5528A949568010EDB6A0C0E4A
:102BA000F36E010EDBCFF4FFF350F45C03E2010E91
:102BB000DB2AF5D7DF6A100EDF5C21E2030E83CF3C
:102BC000DBFF8A86010EDB6A020EF36E010EDBCF9D
:102BD000F4FFF350F45C03E2010EDB2AF5D78A968A
:102BE000010EDB6A020EF36E010EDBCFF4FFF35031
:102BF000F45C03E2010EDB2AF5D7DF2ADCD7956A05
:102C0000DF6A100EDF5C21E2FE0EDB508C6E010EDF
:102C1000DB6A020EF36E010EDBCFF4FFF350F45CBF
:102C200003E2010EDB2AF5D78A86010EDB6A040E69
:102C3000F36E010EDBCFF4FFF350F45C03E2010E00
:102C4000DB2AF5D78A96DF2ADCD795688A84040EBA
:102C5000E15C02E2E16AE552E16EE552E7CFD9FFBD
:022C6000120060
:0E2C6200040120511F0B010801E01200245153
:102C700001E01200060E215D1BE12351230A18E03A
:102C8000010A0CE0030A14E10001930511E10001BF
:102C9000480EA36F2D0EA46F090E06D00001AB0ED7
:102CA000A36F2D0EA46F1C0EA66FA76BC00EA56F91
:102CB00004012051600BE842E842E842E842E84261
:102CC000010801E0120021510B0A26E0080A19E070
:102CD000090A11E0080A05E00B0A23E0080A21E0CE
:102CE00012000001E90EA36F000EA46F010EA66F83
:102CF000A76BC10E0FD00001800EA56F23C4E9F0B1
:102D000012000001EA0EA36F000EA46F010EA66F61
:102D1000A76B810EA56F12000001800EA56F22C463
:042D2000EAF01200C3
:0C2D24001201000200000008D8043F006B
:102D300002000102000109022900010100C032095C
:102D40000400000203000000092111010001221CFF
:102D5000000705810340000107050103400001044D
:102D60000309042E034100750074006F006D0061BB
:102D7000006E0020004500660066006F007200745F
:102D800000730020005300540048004C004D000028
:102D9000001A034100750074006F006D0061006E41
:102DA00000200043005600390036000600FF0901EC
:102DB000A1011901294015012540750895408100A0
:0F2DC000190129409100C0362D5F2D632D912DF3
:102DD0002A0EF66E100EF76E000EF86E0001090056
:102DE000F550E46F0900F550E56F03E1E46701D0A9
:102DF0003DD00900F550DF6F0900F550E06F090084
:102E0000F550E16F09000900F550E96E0900F55031
:102E1000EA6E090009000900F550E26F0900F5505B
:102E2000E36F09000900F6CFE6F0F7CFE7F0F8CF3F
:102E3000E8F0DFC0F6FFE0C0F7FFE1C0F8FF0001F7
:102E4000E25302E1E35307E00900F550EE6EE207BA
:102E5000F8E2E307F9D7E6C0F6FFE7C0F7FFE8C0FE
:0E2E6000F8FF0001E407000EE55BBFD712008B
:022E6E00D9CFBA
:102E7000E6FFDACFE6FFE1CFD9FFE2CFDAFFFD0EC2
:102E8000DB507E0BCD6EFD0EDBAC02D0CD8E01D0C3
:102E9000CD9ECF6ACE6A9E90DBAE02D09D8001D0DF
:102EA0009D90CD80E552E5CFDAFFE7CFD9FF120044
:102EB000FE0EE3CFE9FFFF0EE3CFEAFFE9CFF3FF1A
:102EC000EACFF4FFFB0EE35003E1FC0EE35009E010
:102ED000FB0EE30602E2FC0EE306FD0EE350EE6E8F
:042EE000F1D7120014
:0C2EE400000EF36E00EE00F0080E01D8A6
:102EF0001200EA6002D0EE6AFCD7F350E9601200DB
:042F0000EE6AFCD7A2
:0C2F040013EE00F023EE00F0F86A0A9CC7
:102F1000E8EC16F094EC17F07DEC11F0FBD7120002
:082F2000FCFCFC0004040400A9
:022F2800120095
:062F2A00000000000000A1
:102F3000000000000000000000000000190100185F
:102F4000191E1E000000010000000000000000002B
:0C2F500000000000000000000000000570
:020000040030CA
:0100000024DB
:010001000EF0
:010002003FBE
:010003001EDE
:010005008179
:010006008178
:010008000FE8
:01000900C036
:01000A000FE6
:01000B00E014
:01000C000FE4
:01000D0040B2
:00000001FF
