:020000040000FA
:0600000032EF17F01200C0
:0600080004EF08F01200F5
:060018000CEF08F01200DD
:0610000032EF17F01200B0
:02100600FFFFEA
:061008001CEF08F01200CD
:021016000001D7
:06101800C1EF08F0120018
:06102A0001008A2E000007
:081030008E0000002200000008
:08103800DACFE4FFE2CFDAFF9A
:10104000E9CFE4FFEACFE4FFF6CFE4FFF7CFE4FF18
:10105000F5CFE4FFF3CFE4FFF4CFE4FFFACFE4FFF2
:1010600000EE00F0100EE80403E3EECFE4FFFBD740
:1010700000EE10F0040EE80403E3EECFE4FFFBD72C
:10108000E6529EA023D00001AA2B000EAB23040E33
:10109000D880AA55000EAB5515E2AD6B010EAC6FB2
:1010A000070EAA6FAB6B8E2BAE5107E1010EAE6F30
:1010B0000401318B718BB18BF18B00018E510308D0
:1010C00001E28E6B9E90400ECF6ECE6A9EAA35D006
:1010D000E9EC16F00001B06FF10EB05D1DE100010A
:1010E000AA6BAB6BAE5108E08E6BAE6B040131891D
:1010F0007189B189F18901D08E2B0001925109E0EB
:10110000926B982B000E99239A239B23010E936FC9
:101110008E6B010E906F0FD0000190510BE0300EDE
:101120000001B015300803E10001010E926F0001CB
:10113000010E8F6F906BABB2AB98E55200EE13F0DF
:10114000040EE80403E3E5CFEDFFFBD700EE0FF05C
:10115000100EE80403E3E5CFEDFFFBD7E5CFFAFF80
:10116000E5CFF4FFE5CFF3FFE5CFF5FFE5CFF7FFE0
:10117000E5CFF6FFE5CFEAFFE5CFE9FFE5CFDAFF00
:101180001100D8CFE4FFE0CFE4FFE46EDACFE4FF54
:10119000E652E552E5CFDAFFE550E5CFE0FFE5CFD7
:1011A000D8FF1000ECDB93929394948E9494956AFC
:1011B000969096929694936A8B948D908D928D943E
:1011C0000001AC5104E0AC6B010E916FAF6F8F5119
:1011D00039E0B0C0E6FF65DAE55200018F6B010E21
:1011E000916FAF6F93512EE094C010F095C011F045
:1011F00096C012F097C013F0102A000E112212228E
:1012000013229851101808E19951111805E19A51CB
:10121000121802E19B51131814E08E51400DF3CFC8
:10122000E9FFF4CFEAFF300EE926040EEA22EE527F
:10123000EF8C94C098F095C099F096C09AF097C042
:101240009BF0936BAF5106E08B848E5101E18A7065
:1012500009D88B9421EC0FF0C1DB0001AF51B0E055
:10126000AF6BAED7D9CFE6FFE1CFD9FF040EE126B1
:101270000001BA2B21EC0FF00C0EE66E31EC0EF0F3
:10128000E5528A949568010EDB6A050EF36E010E35
:10129000DBCFF4FFF350F45C03E2010EDB2AF5D759
:1012A000DF6A040EDF5C33E200018E417F0B020F28
:1012B000400DF3CFE9FFF4CFEAFF300EE926040E2C
:1012C000EA22380EE926000EEA22E9CF10F0EACF32
:1012D00011F0010E8E15040DF350DF240F01E924E7
:1012E000E96E000EEA20EA6E83CFEFFF8A86010ED8
:1012F000DB6A040EF36E010EDBCFF4FFF350F45CF7
:1013000003E2010EDB2AF5D78A96DF2ACAD721EC41
:101310000FF0956A8EC08CFF010EDB6A020EF36E31
:10132000010EDBCFF4FFF350F45C03E2010EDB2A85
:10133000F5D78A86010EDB6A040EF36E010EDBCF51
:10134000F4FFF350F45C03E2010EDB2AF5D78A9632
:1013500021EC0FF0DF6A040EDF5C40E200018E41F9
:101360007F0B020F400DF3CFE9FFF4CFEAFF300E01
:10137000E926050EEA22380EE926000EEA22E9CF18
:1013800010F0EACF11F0010E8E15040DF350DF249A
:101390000F01E924E96E000EEA20EA6EEF508C6E30
:1013A000010EDB6A020EF36E010EDBCFF4FFF35089
:1013B000F45C03E2010EDB2AF5D78A86010EDB6AB4
:1013C000040EF36E010EDBCFF4FFF350F45C03E286
:1013D000010EDB2AF5D78A96DF2ABDD795688A8465
:1013E000020EDB6A030EF36E020EDBCFF4FFF35046
:1013F000F45C01E398D021EC0FF0020EDBCFE6FFA6
:10140000030E00018E03F350E552E724E66E31EC43
:101410000EF0E5528A949568010EDB6A050EF36EB4
:10142000010EDBCFF4FFF350F45C03E2010EDB2A84
:10143000F5D7DF6A100EDF5C31E200018E51400DFE
:10144000F3CFE9FFF4CFEAFF300EE926040EEA22DB
:10145000080EE926000EEA22E9CF10F0EACF11F0DB
:10146000020EDB50100DF350DF240F01E924E96E6A
:10147000000EEA20EA6E83CFEFFF8A86010EDB6A58
:10148000040EF36E010EDBCFF4FFF350F45C03E2C5
:10149000010EDB2AF5D78A96DF2ACCD7956ADF6A58
:1014A000100EDF5C3BE200018E51400DF3CFE9FFEF
:1014B000F4CFEAFF300EE926050EEA22E9CF10F05C
:1014C000EACF11F0020EDB50100DF350DF24080FAD
:1014D0000F01E924E96E000EEA20EA6EEF508C6EEF
:1014E000010EDB6A020EF36E010EDBCFF4FFF35048
:1014F000F45C03E2010EDB2AF5D78A86010EDB6A73
:10150000040EF36E010EDBCFF4FFF350F45C03E244
:10151000010EDB2AF5D78A96DF2AC2D795688A841E
:10152000020EDB2A5FD7020EDB6A030EF36E020E99
:10153000DBCFF4FFF350F45C6AE200018E51400D02
:10154000F3CFE9FFF4CFEAFF300EE926040EEA22DA
:10155000080EE926000EEA22E9CF10F0EACF11F0DA
:10156000020EDB50100DF3280F01E924E96E000E86
:10157000EA20EA6EEF500C0B0C0821E000018E51BE
:10158000400DF3CFE9FFF4CFEAFF300EE926040E59
:10159000EA22080EE926000EEA22E9CF12F0EACF8D
:1015A00013F0020EDB50100DF3280F01E924E96E51
:1015B000000EEA20EA6EEF50300B200825E0DF6ACB
:1015C000100EDF5C21E200018E51400DF3CFE9FFE8
:1015D000F4CFEAFF300EE926040EEA22080EE926CF
:1015E000000EEA22E9CF10F0EACF11F0020EDB5034
:1015F000100DF350DF240F01E924E96E000EEA20FC
:10160000EA6EEF6ADF2ADCD7020EDB2A8ED7DF6AAA
:10161000040EDF5C3CE2DF50E824010FEA6AE80FC9
:10162000E96E040EEA22EF50300B300811E1DF5072
:10163000E824EA6AE80FE96E040EEA22EF6ADF5056
:10164000E824010FEA6AE80FE96E040EEA22EF6A65
:10165000DF50E824010FEA6A280FE96E050EEA223E
:10166000EF50300B300811E1DF50E824EA6A280F10
:10167000E96E050EEA22EF6ADF50E824010FEA6AFC
:10168000280FE96E050EEA22EF6ADF2AC1D7040EA1
:10169000E15C02E2E16AE552E16EE552E7CFD9FF93
:1016A0001200D9CFE6FFE1CFD9FF040EE126DE6AB2
:1016B000DE6ADE6ADD6ADD52DD52FE0EDBCFC0F08F
:1016C0000001C0A93CD1C0510F0B106EC051600B7E
:1016D000E842E842E842E842E842EA6AC10FE96EBD
:1016E000000EEA2210500F0BF36EF346F346F3465A
:1016F000F3460F0EEF14F310EF6EC051600BE8428B
:10170000E842E842E842E842010806E10001942B81
:10171000000E9523962397230001C051600BE842E9
:10172000E842E842E842E842030801E01ED1C05125
:10173000060BE842030BF36EF346F346F346F3461B
:10174000F3469F0EC415F310C46FC1511F0B000167
:10175000946F956B966B976B0001C2513F0B106EA7
:10176000000E10C0DFFF010EDB6A020EDB6A030E03
:10177000DB6A9CC010F0116A126A136A9CC004F004
:1017800011C005F012C006F013C007F0DFCF09F05A
:10179000010EDBCF0AF0020EDBCF0BF0030EDBCF26
:1017A0000CF090EC16F000C0DEFF01C0DEFF02C0BE
:1017B000DEFF03C0DDFFDD52DD52DF500001942764
:1017C000010EDB509523020EDB509623030EDB50F7
:1017D00097230001C3513F0B106E000E10C0DFFFB6
:1017E000010EDB6A020EDB6A030EDB6A9CC010F09E
:1017F000116A126A136A9CC004F011C005F012C08D
:1018000006F013C007F0DFCF09F0010EDBCF0AF0BE
:10181000020EDBCF0BF0030EDBCF0CF090EC16F0DA
:1018200000C004F001C005F002C006F003C007F0DC
:101830003C0E096E0A6A0B6A0C6A90EC16F000C046
:10184000DEFF01C0DEFF02C0DEFF03C0DDFFDD52B0
:10185000DD52DF5000019427010EDB509523020E6C
:10186000DB509623030EDB5097230001C4511F0B5E
:10187000106E000E10C0DFFF010EDB6A020EDB6A85
:10188000030EDB6A9CC010F0116A126A136A9CC0D6
:1018900004F011C005F012C006F013C007F0DFCF4E
:1018A00009F0010EDBCF0AF0020EDBCF0BF0030EC6
:1018B000DBCF0CF090EC16F000C004F001C005F096
:1018C00002C006F003C007F0100E096E0E0E0A6E7D
:1018D0000B6A0C6A90EC16F000C0DEFF01C0DEFF60
:1018E00002C0DEFF03C0DDFFDD52DD52DF5000012C
:1018F0009427010EDB509523020EDB509623030E36
:10190000DB509723AD5131E10001C451600BE84237
:10191000E842E842E842E842EA6A9E0FE96E000EB9
:10192000EA22EFCF9CF00001010EAD6F94C098F059
:1019300095C099F096C09AF097C09BF016D0C05110
:101940000F0B106EC051600BE842E842E842E842DB
:10195000E842EA6AC10FE96E000EEA2210500F0B4E
:10196000F36EF00EEF14F310EF6E040EE15C02E282
:10197000E16AE552E16EE552E7CFD9FF12000F0EA2
:10198000C11200011F0EBB6F3F0EBC6FBD6F1F0E5B
:10199000BE6F600EBF6F02D8BFEF0EF0F00E8A165A
:1019A00093160001A26BA36BA46BA56B010EA66F2F
:1019B000F28EF28C5F0EE66EE66A7C0EE66E4BEC03
:1019C00016F0E552E552E552B896DD0EE66EC8EC2B
:1019D00016F0E552936A946A956A1200D9CFE6FF31
:1019E000E1CFD9FF030EE126200E0001E76E60195A
:1019F000E8AE02D0E73402D0E750605D01E227D1C3
:101A00006D50020B01E023D10001915101E1BFD0E3
:101A1000A451A51102E1000E08D0A4C0E9FFA5C0A1
:101A2000EAFFEF50800B01E0010E000901E0AFD0AA
:101A30008E51400DF3CFE9FFF4CFEAFF300EE926D7
:101A4000040EEA22EE52EF50100B02E08D8001D01E
:101A50008D908E51106E8E51400DF3CFE9FFF4CF73
:101A6000EAFF300EE926040EEA22EE521050030B74
:101A7000F36EFC0EEF14F310EF6E8E51400DF3CFAA
:101A8000E9FFF4CFEAFF300EE926040EEA22EE5217
:101A9000EE5298C0EEFF99C0EEFF9AC0EEFF9BC0D9
:101AA000EEFF9C51106E8E51400DF3CFE9FFF4CF45
:101AB000EAFF300EE926040EEA22EE521050030B24
:101AC000F36EF346F346F30EEF14F310EF6EDF6A96
:101AD000400EDF5C23E200018E51400DF3CFE9FFA1
:101AE000F4CFEAFF300EE926040EEA22E9CF10F027
:101AF000EACF11F0DF500F01E924E96E000EEA2071
:101B0000EA6EEF50E66EDF50EA6A700FE96E060E7D
:101B1000EA22E552E750EF6EDF2ADAD7400EE66E92
:101B2000700EE66E060EE66E010EE66EE66EE0ECF8
:101B30000FF0106E050EE15E1050F3CFA4F0F4CF5D
:101B4000A5F000018E51400DF3CFE9FFF4CFEAFF7D
:101B5000300EE926040EEA22EE52EF9A8E51400D25
:101B6000F3CFE9FFF4CFEAFF300EE926040EEA22B4
:101B7000EE52EF988E51400DF3CFE9FFF4CFEAFF1C
:101B8000300EE926040EEA22EE52EF9C916BA25130
:101B9000A31102E1000E08D0A2C0E9FFA3C0EAFF32
:101BA000EF50800B01E0010E000951E1030E060128
:101BB0003115E76E020EE7CFDBFFDF6A400EDF5C18
:101BC00023E2DF50EA6A300FE96E060EEA22EF5098
:101BD000E66E020EDB50400DF3CFE9FFF4CFEAFFD3
:101BE000300EE926050EEA22E9CF10F0EACF11F017
:101BF000DF500F01E924E96E000EEA20EA6EE5529B
:101C0000E750EF6EDF2ADAD70001A251A31102E1FB
:101C1000000E08D0A2C0E9FFA3C0EAFFEF50800B7E
:101C200001E0010E000913E1400EE66E300EE66E93
:101C3000060EE66EE66A010EE66EE0EC0FF0106E40
:101C4000050EE15E1050F3CFA2F0F4CFA3F0030E27
:101C5000E15C02E2E16AE552E16EE552E7CFD9FFCD
:101C60001200D9CFE6FFE1CFD9FFE6520F0E8A145A
:101C7000DF6EFE0EDB38F00BDF248A6EE552E55294
:101C8000E7CFD9FF120012001200120012009BEFE2
:101C900015F012001E0EE66E010EE66EBCEC0FF0A3
:101CA000E552E552120000017F051EE100018005AA
:101CB0001BE1EADF6D920001806B0001100EC56F21
:101CC0000E0EC66FC507000EC65BC551C611FAE100
:101CD0006D84080EC56F070EC66FC507000EC65B84
:101CE000C551C611FAE16D941200D9CFE6FFE1CFDC
:101CF000D9FFFD0EDBCF06F0FE0EDBCF07F0050EA1
:101D0000061801E1075036E0E868061802E17F0E88
:101D100007182FE0030E061801E1075028E0020E15
:101D2000061801E1075021E0010E061801E10750F5
:101D30001AE0740E061801E1075013E0750E06183C
:101D400001E107500CE0730E061801E1075005E0B1
:101D5000720E06180FE107500DD097DF0BD093DFFE
:101D600009D092DF07D096DF05D093DF03D08FDF55
:0E1D700001D08CDF010EE552E7CFD9FF120043
:021D7E0003EC74
:101D800015F0A09A6A6A686A706AFDEC14F098EC23
:101D900014F0DF6ADF50106E116A080E105C000E3E
:101DA000115810E2DF50040DF3CFE9FFF4CFEAFF42
:101DB000000EE926040EEA22EE6AEE6AEE6AEE6A88
:101DC000DF2AE8D76D8C6E6A6D986D9C68A607D087
:101DD00068960001736B786B796B7A6BF7D70001AB
:101DE000010E8A6F8B6F8C6B8D6B806BDF6A020EBE
:101DF000DF5C11E2EA6ADF3406EC15F0EA22EE6AF3
:101E0000ED6AEA6ADF340DEC15F0EA22EE6AED6A5B
:101E100051EC14F0ECD70001080E6B6F040E6C6FE0
:101E2000160E706E0401200E026F040E036F080E72
:101E3000016F840E006F0001616B606BE55223EF50
:101E400014F003EC15F0000160510BE16D6A696A52
:101E500098EC14F06DB602D06D86FCD70001010E2F
:101E6000606F600508E16DBA06D0686A696A6980CA
:101E70006988020E606F6850040B05E06950040B1E
:101E800002E0689424DB6DB244D06850010B08E096
:101E90006950010B05E073DF0001040E606F68906C
:101EA0006850100B05E06950100B02E006DB6898E3
:101EB00068AC0FD069AC05D09FEC14F0730E10EC39
:101EC00014F0689C0001885101E08807885101E105
:101ED000EFD86850200B04E06950200B01E0DDDAF8
:101EE0006850020B0BE06950020B08E09FEC14F005
:101EF000E6687F0EE66E14EC15F06A6A040E0001C7
:101F0000E76E6019E8AE02D0E73402D0E750605DBA
:101F100002E2A19A2ED069A62BD0DF6A040EDF5C04
:101F200027E268A625D06CCF81F000018151780BA3
:101F3000E842E842E842826F689681B504D0825157
:101F40001BEC15F003D0825120EC15F0EA22EF7063
:101F5000825102E1C8DA0AD0000EE66EE66A810E0E
:101F6000E66E000EE66E720E10EC14F0DF2AD6D785
:101F7000A19AE55223EF14F0D7EC14F0FD0EDBA488
:101F800003D0E66A88EC14F0FD0EDBA204D0010E4B
:101F9000E66E88EC14F0FE0EDB50116A700F106EC6
:101FA0000F0E82EC14F014EC14F0FD0EDBCFEFFFFB
:101FB000020EE15C02E2E16AE552E16E23EF14F009
:101FC000D7EC14F0FD0EDB5003E00BEC14F002D064
:101FD00042EC14F06EEC14F0D9CFE9FFDACFEAFF4F
:101FE000EE50ED1003E1F36AF46A28D014EC14F01B
:101FF0002FEC15F0FB0EDBCFEEFFFC0EDBCFEDFF81
:1020000014EC14F0EE52FA0EDBCFEFFF400E25EC8D
:1020100015F0880E34EC15F0FD0EDB5003E00BECF0
:1020200014F002D042EC14F0EA22EF74DECF10F08C
:10203000DDCF11F010C0F3FF11C0F4FF020EE15C20
:1020400002E2E16AE552E16E23EF14F0D7EC14F0FE
:10205000FE0EDB5003E1E5EC14F009D047EC14F080
:10206000C5EC14F047EC14F0010FC5EC14F0020EAF
:10207000E15C02E2E16AE552E16EE5D3DFDB6DA8E7
:1020800016D0F6EC14F0400EEE16EE6AEE6AEE6A2A
:10209000F6EC14F0EE7CBFDBEA22EF74400E106E1B
:1020A000F6EC14F01050EF16F6EC14F0EF7CCBD3F6
:1020B00000018A5122E1010E8A6F8B511EE1010E4F
:1020C0008B6F020E705D07E1B4DBEE52EF6AB1DB9D
:1020D000C80EEF6E1200700510E1836BC0DBEE528C
:1020E000080EEF6EBCDBD1EC14F0B9DB840EEF6EA2
:1020F000010E836F8CDB800EEF6E120000018C6B83
:102100008D6B020E705D06E129EC15F0ADDBC0ECC5
:1021100014F010D074510401265D000175510401C2
:10212000275904E226C474F027C475F061D881DB16
:102130009BDB7FDBC80EEF6E1200D7EC14F0000EB5
:10214000DE6E040EDD6EA3DB040DF4CF11F0D9CFEB
:10215000E9FFDACFEAFFF350EE261150ED2264DBFF
:10216000EF9EFD0EDB5002E18DDB01D054DBEA2255
:10217000DECFEEFFDDCFEDFF57DBEF9C55DB040E2E
:10218000E926000EEA22EF8C020EE15C02E2E16A2F
:10219000E552E16E58D36D98000173BF0DD078AF52
:1021A00009D0020E706F8D5101E1A8DF00018B6B29
:1021B0008A6B1200E5EF14F0040120AF0DD000018E
:1021C000010E706F8C5101E199DF00018B6B8A6BFE
:1021D00089510DE158EF10F00001020E706F17DB0E
:1021E000840EEF6E8B6B8A6B895101E161DF120007
:1021F00003EC15F0080EDF6E0001745D000E7559DA
:102200000AE274C0DFFF6F5102E1010E03D06F05D7
:1022100002E1020E6F6FDF50116AE850745D746F57
:1022200011507559756F05DBEE52DFCFEFFF280EA9
:102230007D6F040E7E6F73B10DD0DF5017E071C05B
:10224000F6FF72C0F7FF712B000E72230800F550E5
:1022500038DBF3D7DF500AE071C0E9FF72C0EAFF54
:10226000712B000E7223EF502CDBF4D7E552EBD22A
:102270009EDBF5DAEE52EFCFDFFFDFCF10F010502C
:102280000001795D000E7A5902E279C0DFFFDF506C
:10229000106E116AE850795D796F11507A597A6F32
:1022A000010EDB6ADF50F36E010EDBCFF4FFF3505B
:1022B000F45C16E2010EDB50EA6A280FE96E040EA8
:1022C000EA22EF50E66E76C0E9FF77C0EAFF762B90
:1022D000000E7723E552E750EF6E010EDB2AE2D7BE
:1022E000000ED8807955000E7A550DE2B2DBBCDACB
:1022F000B6DAEF50400B03E143DBC80E02D040DBFF
:10230000880EEF6E12D083DA840EEF6E7B517C1153
:1023100007E005D07CC0FAFF00017B51F96EFADFBF
:102320000001789F895101E1C3DE020EE15C02E207
:10233000E16AE552E16E87D266DB0001738F5DDBF7
:10234000200EE66EE66AE66A000EE66E040E92DA8B
:102350006D8CDF6A020EDF5C02E2A3DAFBD70BDBD7
:10236000620EE66E000E86DA6D9C0001080E6B6F41
:10237000040E6C6F000E636F040E646F63C065F033
:10238000666F22C461F0615102E1100E0BD0010EA4
:10239000E66EE66A610EE66E000EE66E010E40DA4B
:1023A0000001200E606FE5524ED2800E0401205DC8
:1023B00038E10001C00E736F04012351030A1AE0D3
:1023C000010A09E0030A2BE10001700E716F2A0E69
:1023D000726F120E1ED0C1DA2D0EF6262B0EA0DA69
:1023E000020E0001B3DAF5CF74F0030EAFDAF5CFC9
:1023F00075F01200030E225D0FE2AFDA2F0EF62603
:102400002B0E8EDA71C0F6FF72C0F7FF0800F55090
:102410000001746F756B12000001736B12000001F4
:10242000736B1200C4DA0401286B296B20511F0B57
:10243000020A11E0030A0CE0010A1EE10001738F99
:102440000401288100017F0517E10401288314D0CD
:102450000001738F11D00001738F040124BF02D0DB
:10246000BBDA01D0BEDA3ADAC4DA06E0DDD9EF50E1
:10247000040B02E0010E286F000173AF07D0280E95
:10248000716F040E726F7381020E746F020EE15C45
:1024900002E2E16AE552E16ED6D170A00CD0DFD93C
:1024A000EF50800807E1C5D9EF50840803E1D7D980
:1024B0008C0EEF6E7090689A1200698468986D8235
:1024C0000001010E806F10DA750E10EF14F000019C
:1024D000806B0ADA740EA4D96D92699468A402D054
:1024E0006894FCD712008FDA00012D0E886FFD0E64
:1024F000811539E17E0E8115E8407F0B040DF3CF85
:1025000063F0F4CF64F0000E6327040E642363C00D
:1025100065F064C066F06575A2D9EF503C0BE842E7
:10252000E8420D081EE1DF6A080EDF5C16E297D96B
:10253000020EE926000EBFD9EF50E66EDF50EA6AC0
:10254000200FE96E040EEA22E552E750EF6E87D9BC
:1025500086DAEE2AEF22DF2AE7D781D922DA0AD8F3
:1025600007D023D805D0FD0E8115040801E12CD831
:10257000E55269D100016F6B896B8C6B8D6B836B3E
:10258000706B57D9EF9E6B7554D9EF9E6B75F8D968
:10259000EF9E736B746B756B786B796B7A6B4ED83F
:1025A000A3D9030E3DD9CBEF10F0020E0001705DF0
:1025B00002E138EF11F0706B835104E128D98C0EE1
:1025C000EF6E1200836B12001EDA33D9EF50400B0E
:1025D00001E0010EDF6E00016B75080E605D08E121
:1025E00022C46EFF6E5002E0100E01D0040E606F28
:1025F000700513E11ED938D9FBDD020E00016F5DB5
:1026000003E117D9840E07D0DF5003E112D9C80EB9
:1026100002D00FD9880EEF6E0FD078AF0CD07B515F
:102620007C1107E005D07CC0FAFF00017B51F96EF8
:10263000FADF0001789F706BE55205D1040120514B
:10264000600BE842E842E842E842E842000901E063
:10265000120021510C0A45E00B0A3FE00C0A31E060
:10266000010A22E00B0A1EE0020A1CE0030A18E03D
:10267000080A10E0010A0CE00F0A08E0030A01E072
:1026800012000001738F080E606F1200D5EF11F079
:102690009CEF11F00001610E716F000E726F0CD093
:1026A00012EF12F072EF13F024510001716F726B90
:1026B000620E7127000E72237381010E746F738F87
:1026C00012000001738F04012451EA6A620FE96E5F
:1026D000000EEA2222C4EFFF120006D9020E10EF0C
:1026E00014F01200ABD8050EE1260401220510E11A
:1026F00020511F0B00090CE10001738F030E040130
:10270000215D04E10001010E7F6F02D000017F6BAB
:102710000401225101E074D020511F0B020870E126
:1027200024510F0B00096CE024510F0B010868E3E2
:10273000200E0001605D64E1738F040124BF04D0AA
:102740004BD9CCD8D7D803D04CD9C8D8D7D8EA22BF
:10275000020EEFCFDBFF08D9010B03E1000EDF947F
:1027600001D0DF8424BF02D037D901D03AD9EA2280
:10277000DECFEEFFDDCFEDFF030E215D0CE139D999
:1027800007E024BF02D0B6D801D0B8D8EA22EF8241
:10279000840E6AD935D0DF742CD906E045D8EF9E77
:1027A00043D8EF8C08D902D03FD8EF8CDF74DCD847
:1027B000020B02E11ED90DE0040124BF02D09AD819
:1027C00001D09CD8EA22EF923B0E106E3ED9F3D88E
:1027D00002D03B0E3AD9040124510F0B116A700F3D
:1027E000106E0F0E1122030E10C0DBFF040E11C07D
:1027F000DBFF030EDBCFE9FF040EDBCFEAFFEF9038
:10280000050EE15C02E2E16AE552E16E1CD021D9DD
:10281000C8D8C0EF14F0FE0EEA6ADB3406EF15F0FC
:10282000E66EE66A14EF15F0DECFE9FFDDCFEAFFD2
:1028300012006BC0E9FF6CC0EAFF1200D9CFE6FFBF
:10284000E1CFD9FF1200E552E7CFD9FF12002451A2
:102850000F0BE96EEA6AD890E936EA36120063C0D7
:10286000E9FF64C0EAFF1200FAD8280EEE6E040EEB
:10287000ED6E1200E66E08EC17F0106E050EE15ECC
:1028800010501200FE0EEA6ADB340DEF15F0FD0E5B
:10289000DB50E824126EFE0EDB50040DF3501224C0
:1028A0001200DF50CDD8EA22EF6ADF50C4D8EA2206
:1028B000EF6ADF2A1200EA22EE50EFCFEAFFE96E5C
:1028C0001200E66E7DC0E9FF7EC0EAFF7D2B000EA0
:1028D0007E23E552E750EF6EDF061200EA22EECFCC
:1028E000DEFFEDCFDDFF1200000EE66EE66AE66E5B
:1028F000E66A120024510F0B1BEF15F024510F0B49
:1029000020EF15F0112210C0DEFF11C0DDFF120014
:10291000FE0EDBCFE6FF9DEC10F0E552E552120013
:10292000F7220900F5CF71F00A00F5CF72F012001E
:10293000160E6F6E9F0E6B6E7B0E696E1200010E8F
:10294000E66EE66A000EE66EE66A1200F76A712528
:10295000F66E7251F722080012002251F66EF76AE5
:10296000D890F636F7361200D950020FE96EDACF5A
:10297000EAFFEF501200010EE66EE66AE66A120008
:1029800065C0E9FF66C0EAFF1200040DF3CF10F046
:10299000F4CF11F0000E1026040EB4DF840E34EFD5
:1029A00015F05DD8200EEE6E040EED6E120046DFBF
:1029B000020EE1261200020EE66EE66ADECFE6FFA8
:1029C000DDCFE6FF050E10EF14F021DF8C0EEF6E69
:1029D00030DF840EEF6E12003ADF670EE926000E3C
:1029E000120035DF6B0EE926000E120014DF5BEFDC
:1029F00014F01ADFEF50800B1200BDDF710EE66E8F
:102A00000F0E3AEF14F01ADFE6521200FE0BEA3610
:102A1000E96E6B0EE926000E1200FE0BEA36E96E37
:102A2000670EE926000E120075EC0EF0106E060E11
:102A3000E15E10501200EA6A860FE96E000E120085
:102A4000EA6A840FE96E000E1200EEDEE850EF161F
:102A5000120096DFEE52080EEF6EC0EF14F0020E79
:102A6000E926000EEA221200DFDEE850EF12120023
:102A70001201000200000008D8043F000200010219
:102A8000000109022900010100C03209040000020E
:102A900003000000092111010001221C000705812B
:102AA0000340000107050103400001040309043449
:102AB000034D006900630072006F006300680069E5
:102AC000007000200054006500630068006E006F15
:102AD000006C006F0067007900200049006E006301
:102AE000002E002E03530069006D0070006C00651D
:102AF00000200048004900440020004400650076A2
:102B0000006900630065002000440065006D006FEF
:102B1000000600FF0901A101190129401501254006
:102B2000750895408100190129409100C0822AABA7
:052B30002AAF2AE32A90
:0A2B3600040120511F0B010801E00B
:102B40001200245101E01200060E215D1BE1235109
:102B5000230A18E0010A0CE0030A14E100016105F0
:102B600011E10001940E716F2A0E726F090E06D0EA
:102B70000001110E716F2B0E726F1C0E746F756B4E
:102B8000C00E736F04012051600BE842E842E84236
:102B9000E842E842010801E0120021510B0A26E058
:102BA000080A19E0090A11E0080A05E00B0A23E007
:102BB000080A21E012000001D10E716F000E726F41
:102BC000010E746F756BC10E0FD00001800E736F14
:102BD00023C4D1F012000001D20E716F000E726F8B
:102BE000010E746F756B810E736F12000001800E01
:082BF000736F22C4D2F0120041
:082BF8002A0EF66E100EF76EB6
:102C0000000EF86E00010900F550CC6F0900F55078
:102C1000CD6F03E1CC6701D03DD00900F550C76FFF
:102C20000900F550C86F0900F550C96F0900090087
:102C3000F550E96E0900F550EA6E09000900090037
:102C4000F550CA6F0900F550CB6F09000900F6CFA7
:102C5000CEF0F7CFCFF0F8CFD0F0C7C0F6FFC8C0A6
:102C6000F7FFC9C0F8FF0001CA5302E1CB5307E0E8
:102C70000900F550EE6ECA07F8E2CB07F9D7CEC0CF
:102C8000F6FFCFC0F7FFD0C0F8FF0001CC07000E61
:062C9000CD5BBFD712006E
:0A2C9600D9CFE6FFDACFE6FFE1CF69
:102CA000D9FFE2CFDAFFAC6AAB6AFD0EDBB0AC88CD
:102CB000DBA202D0AC8CAB8CDBB4AC8EDBA602D03A
:102CC000AB8801D0AB8ADBB8AC849E98DBBAAB860C
:102CD000DBAC02D09D8A01D09D9A9E9ADBAE02D0D9
:102CE0009D8801D09D98FB0EDB50AF6EFB0EFC0E55
:102CF000DBCF11F011C010F0116A1050B06EAC8A29
:102D0000AB8E949C948EAC50100B04E0AC50800BB6
:102D100001E1948CE552E5CFDAFFE7CFD9FF12004D
:102D200004500902F3CF00F0F4CF01F00A02F3508F
:102D30000126000EF420026E04500B02F35002260E
:102D4000000EF420036E04500C02F35003260550CD
:102D50000902F3500126F4500222000E032205500E
:102D60000A02F3500226F450032205500B02F350DE
:102D7000032606500902F3500226F450032206509F
:102D80000A02F350032607500902F35003261200EB
:102D9000D9CFE6FFDACFE6FFE1CFD9FFE2CFDAFF06
:102DA000FD0EDB507E0BCD6EFD0EDBAC02D0CD8E6A
:102DB00001D0CD9ECF6ACE6A9E90DBAE02D09D80C0
:102DC00001D09D90CD80E552E5CFDAFFE7CFD9FF66
:022DD0001200EF
:0E2DD200D9CFE6FFDACFE6FFE1CFD9FFE2CF9F
:102DE000DAFFE652F20E0001D317ABAC03D0D39159
:102DF000ABB0D381ABB4D385ABB2D387AE50DF6E6B
:102E0000DF50E552E552E5CFDAFFE7CFD9FF1200F8
:102E1000FE0EE3CFE9FFFF0EE3CFEAFFE9CFF3FFBA
:102E2000EACFF4FFFB0EE35003E1FC0EE35009E0B0
:102E3000FB0EE30602E2FC0EE306FD0EE350EE6E2F
:042E4000F1D71200B4
:0C2E4400000EF36E00EE00F0080E01D846
:102E50001200EA6002D0EE6AFCD7F350E96012007B
:042E6000EE6AFCD743
:0C2E640013EE00F023EE00F0F86A0F9C63
:102E7000FCEC15F044EC17F0D2EC08F0FBD7120094
:082E8000FCFCFC00040404004A
:022E8800120036
:062E8A0000000000000042
:102E900000000000000000001E0018191E1E0000A7
:0C2EA00000000000000000000000010025
:020000040030CA
:0100000024DB
:010001000EF0
:010002003FBE
:010003001EDE
:010005008179
:010006008178
:010008000FE8
:01000900C036
:01000A000FE6
:01000B00E014
:01000C000FE4
:01000D0040B2
:00000001FF
