:020000040000FA
:06000000ACEF0AF0120053
:020006001200E6
:060008000EEF00F01200F3
:02000E000100EF
:0C001000821500008000000023000000AA
:04001C00DACFE4FF54
:10002000E2CFDAFFE9CFE4FFEACFE4FFE6529D92A8
:100030009EA20FD00001A251140807E2A15102E0D4
:10004000000E01D0010EA16FA26BA22B010E806FDA
:100050009E929EA649D0C650006E060E0016005C09
:1000600041E1C7B424D0C7BA05D0C950016E076AB0
:10007000086A1CD0C7A01AD0C950026E020E075CD5
:1000800015E20750EA6A030FE96E000EEA2202C089
:10009000EFFFC6AC02D0C69C09D0072A020E075C4F
:1000A00002E0000E01D0010E00019F6F1BD0C7BA05
:1000B00005D0C950016E076A086A12D0C950026E95
:1000C000020E085C0DE20850EA6A050FE96E000EA8
:1000D000EA22EF50C96EC6AE02D0C69E01D0082AF1
:1000E000C69EC69C9E96C6889D82E552E5CFEAFFD5
:1000F000E5CFE9FFE5CFDAFF1100FBEC05F00001E9
:100100009F5108E0F29ECEEC05F0DAEC04F000011D
:100110009F6BF28E800501E082D09EB680D091C0A8
:100120006EF092C06FF07AEC06F06DC054F06EC0C5
:1001300055F06FC056F070C057F0CD0E726ECC0EF9
:10014000736E4C0E746E3F0E756E54C06DF055C0DC
:100150006EF056C06FF057C070F077EC07F06DC0CE
:1001600050F06EC051F06FC052F070C053F08FC0AD
:100170006EF090C06FF07AEC06F06DC05CF06EC06F
:100180005DF06FC05EF070C05FF0CD0E726ECC0E91
:10019000736E4C0E746E3E0E756E5CC06DF05DC07D
:1001A0006EF05EC06FF05FC070F077EC07F06DC06E
:1001B00058F06EC059F06FC05AF070C05BF058C074
:1001C00072F059C073F05AC074F05BC075F050C043
:1001D0006DF051C06EF052C06FF053C070F08EECF5
:1001E00006F06DC093F06EC094F06FC095F070C0D3
:1001F00096F093C06DF094C06EF095C06FF096C00D
:1002000070F0E4EC07F06EC091F06FC092F0000166
:10021000010EA06F29D91DEC05F00001806B6FD78E
:100220001200D9CFE6FFE1CFD9FF020EE126DF0EA3
:10023000E66E85EC0AF0E552BFEC0AF0BAEC0AF083
:10024000000901E0FBD7C450DE6EDD6ADECF50F05E
:10025000DDCF51F050C051F0506A50C0DEFF51C0A8
:10026000DDFFC350E76E000EDFCF50F0010EDBCF95
:1002700051F0E7505026000E512250C0DEFF51C011
:10028000DDFFDFCF6EF0010EDBCF6FF078EC06F014
:100290006DC050F06EC051F06FC052F070C053F09E
:1002A000586A800E596E5E0E5A6E440E5B6E99C08F
:1002B0006EF09AC06FF078EC06F06DC060F06EC022
:1002C00061F06FC062F070C063F0290E726E5C0E58
:1002D000736E8F0E746E3D0E756E60C06DF061C0F2
:1002E0006EF062C06FF063C070F077EC07F06DC025
:1002F0005CF06EC05DF06FC05EF070C05FF05CC01F
:1003000072F05DC073F05EC074F05FC075F058C0ED
:100310006DF059C06EF05AC06FF05BC070F08EEC9B
:1003200006F06DC054F06EC055F06FC056F070C04E
:1003300057F054C072F055C073F056C074F057C0F7
:1003400075F050C06DF051C06EF052C06FF053C0E8
:1003500070F013EC08F0010A30E1726A736A800EE3
:10036000746E3F0E756E47C06DF048C06EF049C0A8
:100370006FF04AC070F08EEC06F06DC050F06EC0A9
:1003800051F06FC052F070C053F0726A736A746AB1
:10039000400E756E50C06DF051C06EF052C06FF0DF
:1003A00053C070F024EC07F06DC047F06EC048F009
:1003B0006FC049F070C04AF033D07B0E726E140EDD
:1003C000736E6E0E746E3F0E756E47C06DF048C052
:1003D0006EF049C06FF04AC070F077EC07F06DC066
:1003E00047F06EC048F06FC049F070C04AF0726AC2
:1003F000736A746A3F0E756E47C06DF048C06EF048
:1004000049C06FF04AC070F01CEC08F0010A08E126
:1004100000019E6B0001476B486B496B3F0E4A6FB2
:10042000020EE15C02E2E16AE552E16EE552E7CFDD
:10043000D9FF1200870EE66E85EC0AF0E552BFEC9C
:100440000AF0BAEC0AF0000901E0FBD7C450000141
:10045000996F9A6B99C09AF0996BC3509925996FCF
:10046000000E9A219A6F12004FC0E6FF85EC0AF049
:10047000E552BFEC0AF0BAEC0AF0000901E0FBD744
:10048000C4500001976F986B97C098F0976BC3505A
:100490009725976F000E9821986FCD0E726ECC0E37
:1004A000736E746E3E0E756E4BC06DF04CC06EF088
:1004B0004DC06FF04EC070F077EC07F06DC050F09B
:1004C0006EC051F06FC052F070C053F097C06EF024
:1004D00098C06FF07AEC06F06DC058F06EC059F01D
:1004E0006FC05AF070C05BF09A0E726E990E736E08
:1004F000190E746E3F0E756E58C06DF059C06EF0D7
:100500005AC06FF05BC070F077EC07F06DC054F02C
:100510006EC055F06FC056F070C057F054C072F006
:1005200055C073F056C074F057C075F050C06DF0F0
:1005300051C06EF052C06FF053C070F08EEC06F0F8
:100540006DC04BF06EC04CF06FC04DF070C04EF0FF
:100550004BC06DF04CC06EF04DC06FF04EC070F0EF
:10056000E4EC07F06EC097F06FC098F0000197516F
:10057000915D506E92519855516E50C06EF051C0C1
:100580006FF07AEC06F06DC015F06EC016F06FC01B
:1005900017F070C018F00DC072F00EC073F00FC0ED
:1005A00074F010C075F019C06DF01AC06EF01BC069
:1005B0006FF01CC070F08EEC06F06DC019F06EC0CC
:1005C0001AF06FC01BF070C01CF039C072F03AC056
:1005D00073F03BC074F03CC075F019C06DF01AC0E8
:1005E0006EF01BC06FF01CC070F077EC07F06DC0B0
:1005F00019F06EC01AF06FC01BF070C01CF015C06F
:10060000E6FF16C0E6FF17C0E6FF18C0E6FFC1EC24
:1006100009F0E552E552E552E5526CC050F06DC06C
:1006200051F06EC052F06FC053F0010E0001596AD4
:100630003D25586E3E51592258C06EF059C06FF09A
:100640007AEC06F06DC054F06EC055F06FC056F0F5
:1006500070C057F054C072F055C073F056C074F0BB
:1006600057C075F050C06DF051C06EF052C06FF0C1
:1006700053C070F01CEC08F0010A05E10001196B91
:100680001A6B1B6B1C6B726AC00E736E7F0E746EDE
:10069000440E756E19C06DF01AC06EF01BC06FF07D
:1006A0001CC070F013EC08F0010A08E10001196B9E
:1006B000C00E1A6F7F0E1B6F440E1C6F726AC00E45
:1006C000736E7F0E746EC40E756E19C06DF01AC015
:1006D0006EF01BC06FF01CC070F01CEC08F0010A3B
:1006E00008E10001196BC00E1A6F7F0E1B6FC40E5C
:1006F0001C6F15C072F016C073F017C074F018C0EC
:1007000075F00DC06DF00EC06EF00FC06FF010C030
:1007100070F08DEC06F06DC054F06EC055F06FC0F7
:1007200056F070C057F035C072F036C073F037C065
:1007300074F038C075F054C06DF055C06EF056C0FE
:100740006FF057C070F077EC07F06DC050F06EC0DE
:1007500051F06FC052F070C053F031C072F032C02F
:1007600073F033C074F034C075F050C06DF051C0F8
:100770006EF052C06FF053C070F024EC07F06DC003
:100780001DF06EC01EF06FC01FF070C020F015C0CD
:1007900072F016C073F017C074F018C075F021C065
:1007A0006DF022C06EF023C06FF024C070F077ECC3
:1007B00007F06DC05CF06EC05DF06FC05EF070C0A1
:1007C0005FF019C072F01AC073F01BC074F01CC047
:1007D00075F025C06DF026C06EF027C06FF028C000
:1007E00070F077EC07F06DC060F06EC061F06FC024
:1007F00062F070C063F060C072F061C073F062C0FC
:1008000074F063C075F05CC06DF05DC06EF05EC0EA
:100810006FF05FC070F08EEC06F06DC058F06EC0E7
:1008200059F06FC05AF070C05BF01DC072F01EC06E
:1008300073F01FC074F020C075F029C06DF02AC09D
:100840006EF02BC06FF02CC070F077EC07F06DC02D
:1008500064F06EC065F06FC066F070C067F064C091
:1008600072F065C073F066C074F067C075F058C070
:100870006DF059C06EF05AC06FF05BC070F08EEC36
:1008800006F06DC054F06EC055F06FC056F070C0E9
:1008900057F02DC072F02EC073F02FC074F030C02E
:1008A00075F054C06DF055C06EF056C06FF057C073
:1008B00070F077EC07F06DC050F06EC051F06FC073
:1008C00052F070C053F050C072F051C073F052C07B
:1008D00074F053C075F043C06DF044C06EF045C075
:1008E0006FF046C070F08EEC06F06DC043F06EC045
:1008F00044F06FC045F070C046F0726A736A746A63
:10090000400E756E43C06DF044C06EF045C06FF090
:1009100046C070F024EC07F06DC043F06EC044F0A8
:100920006FC045F070C046F015C00DF016C00EF057
:1009300017C00FF018C010F043C0E6FF44C0E6FF38
:1009400045C0E6FF46C0E6FFC1EC09F0E552E552BE
:10095000E552E5526CC050F06DC051F06EC052F0DF
:100960006FC053F050C06DF051C06EF052C06FF0C8
:1009700053C070F0E4EC07F06EC041F06FC042F07D
:100980000001FF0ED8804155030E425503E2416934
:10099000030E426F41C009F042C00AF0120000018C
:1009A0009D6B82BC02D0080E9D6F100E9E03F3500B
:1009B0009D27120000010C5100018315835D02E1A7
:1009C000000E01D0010EE8B08A80E8A08A900001F4
:1009D0000C5100018415845D02E1000E01D0010E6E
:1009E000E8B08A82E8A08A9200010C5100018515C6
:1009F000855D02E1000E01D0010EE8B08A84E8A016
:100A00008A9400010C5100018615865D02E1000EFA
:100A100001D0010EE8B08A86E8A08A969E5105E0D2
:100A2000A151E8B08A84E8A08A949E5105E0A151C2
:100A3000E8B08A80E8A08A901200D9CFE6FFE1CF23
:100A4000D9FF020EE126F29E09C0DEFF0AC0DDFFDB
:100A5000F28E00019151975D586E98519255596EE2
:100A600058C06EF059C06FF07AEC06F06DC054F0CB
:100A70006EC055F06FC056F070C057F054C0E6FF1E
:100A800055C0E6FF56C0E6FF57C0E6FFC1EC09F0CF
:100A9000E552E552E552E5526CC050F06DC051F0A0
:100AA0006EC052F06FC053F03DC06EF03EC06FF0AC
:100AB0007AEC06F06DC05AF06EC05BF06FC05CF06F
:100AC00070C05DF05AC072F05BC073F05CC074F02F
:100AD0005DC075F050C06DF051C06EF052C06FF047
:100AE00053C070F013EC08F0010A3EE1DECF50F085
:100AF000DDCF51F000013F51505C4051515802E2AE
:100B0000DE6ADD6A726A736A746A756A43C06DF080
:100B100044C06EF045C06FF046C070F013EC08F0B2
:100B2000010A11E1DECFE6FFDDCFE6FF23EC0AF09C
:100B3000E552E552000EE66EE66AF4EC09F0E55285
:100B4000E5528B8010D0DECFE6FFDDCFE6FFF4EC80
:100B500009F0E552E552000EE66EE66A23EC0AF073
:100B6000E552E5528B800FD0000EE66EE66AF4EC9B
:100B700009F0E552E552000EE66EE66A23EC0AF053
:100B8000E552E5528B90020EE15C02E2E16AE55229
:100B9000E16EE552E7CFD9FF120012000001885143
:100BA0000414895D1FE103C00BF004C00CF0030EB8
:100BB00000010C1500018F6F906B8FC090F08F6B50
:100BC00000010B5100018F258F6F000E9021906F57
:100BD00000010C5100018715875D02E0000E01D075
:100BE000010EA06F9951056E9AC050F0516A9D5147
:100BF0005024066E12009B809B829B849B869B8860
:100C0000D388D38AD38C9B8C086A076A9268F00ECB
:100C1000936EF80E946E94929494360EC66EE00E17
:100C20008014E00BE838E84000019B6FE00EC86ECE
:100C3000F28CF28E9D869D820F0EE66E670EE66E3A
:100C4000A30EE66E8AEC09F0E552E552E5520C0E71
:100C5000C16EBE0EE66E52EC0AF0E55200018F0E38
:100C60004F6F010E3D6F3E6B2D6B2E6B2F6B3F0E4A
:100C7000306F216B226BC80E236F410E246F256BE2
:100C8000266BE00E276F400E286F9A0E296F990E83
:100C90002A6F2B6F3F0E2C6F396B3A6B800E3B6FB8
:100CA0003F0E3C6F356B366B376BC00E386FA60E40
:100CB000316F9B0E326FC40E336F3A0E346F3F6B41
:100CC000406BE6686DEC0AF0E552000EE66EE66AEF
:100CD00023EC0AF0E552E552E6684FEC09F0E552E4
:100CE000000EE66EE66AF4EC09F0E552E5521200F9
:100CF000779E08D0779E6FAE05D06E6C6F1EE86A47
:100D00006F22778E6FC069F06EC068F07B6A7A6A76
:100D10008E0E6A6E6B6A96EF08F0757E776AD2EC7B
:100D200008F0EAEC08F077B67AEF08F077A20AD07C
:100D300077AA03D077BE7AEF08F077A486EF08F0A1
:100D400083EF08F077AA05D077AC86EF08F083EF41
:100D500008F077A00AD077A808D077BE04D077A48F
:100D600002D08FEF08F093EF08F07A6A6B6A755043
:100D7000705C796E10E36DC07BF06EC068F06FC080
:100D800069F070C078F072C06DF073C06EF074C01E
:100D90006FF0773A09D072C07BF073C068F074C00E
:100DA00069F075C078F0796C779E77BC778E78C0E3
:100DB0006AF077B0C2EF08F01A0E7960C2EF08F05F
:100DC0006A6A706A77A408D06D6C6E1E6F1E701E02
:100DD000E86A6E226F22702277AC08D07B6C681EA6
:100DE000691E6A1EE86A682269226A226C6A795260
:100DF00007E070346F326E326D326C32792EF9D773
:100E00006D507B266E5068226F50692270506A22A6
:100E10006CC07AF0779E6AAE0BD07A6C7B1E681E2F
:100E2000691E6A1EE86A7B22682269226A22778E1E
:100E30006AA006D0D880693268327B327A32782A4A
:100E400078C06AF096EF08F0776AD2EC08F0EAEC26
:100E500008F077B67AEF08F077A205D077BA7AEF84
:100E600008F081EF08F077BA8DEF08F077A005D091
:100E700077B87AEF08F08DEF08F077B881EF08F0D7
:100E80006B6A7F0E70246A6EE86A6B2275506A5E28
:100E9000E86A6B5A1A0E786E706A7A6A7B6A686AB8
:100EA000696A72506D5E73506E5A74506F5A000EBC
:100EB000705A09E772506D2673506E2274506F227B
:100EC000000E702201D07A8AD8906D366E366F3659
:100ED0007036D8907A367B3668366936782EE1D708
:100EE0006F506E106D10D8A47A8A96EF08F0776A6A
:100EF000D2EC08F0EAEC08F077B67AEF08F077A2C7
:100F000005D077B87AEF08F081EF08F077AA05D01E
:100F100077B07AEF08F081EF08F077B002D077A8C9
:100F200002D08DEF08F06B6A755070246A6EE86A23
:100F30006B227E0E6A5EE86A6B5A7A6A7B6A686A1E
:100F4000696A74506F02F4CF69F0F3CF68F07350A0
:100F50006F02F3507B26F4506822000E6922745011
:100F60006E02F3507B26F4506822000E6922725004
:100F70006F02F3507A26F4507B22000E6822692219
:100F800073506E02F3507A26F4507B22000E6822D2
:100F9000692274506D02F3507A26F4507B22000EC1
:100FA0006822692272506E02F4507A26000E7B226B
:100FB0006822692273506D02F4507A26000E7B225B
:100FC0006822692296EF08F0776AD2EC08F077B6CB
:100FD000EEEF07F077A20ED077B405D07F0E6F6EDC
:100FE000FF0E6E6E1FD0800E6F6E6E6A1BD06F6A22
:100FF0006E6A18D077B0FBD78F0E7060EDD77E0E7B
:101000007064F5D78E0E705C05E0D8906F326E324A
:10101000702AF8D777A406D06E6C6F1EE86A6F222C
:101020006FAEE5D7120025EC08F077B6000C77B06C
:10103000000C77B4000C010C25EC08F077B6000C1E
:1010400077B0000C77A4000C010C776AD2EC08F0A2
:10105000EAEC08F077B6120077AE08D077A004D09B
:1010600077A802D077801200779012007550705CDC
:101070000BE174506F5C08E173506E5C05E17250D7
:101080006D5C02E177801200D8A002D0778E10D07C
:10109000705075C070F0756E6F5074C06FF0746EE4
:1010A0006E5073C06EF0736E6D5072C06DF0726EE4
:1010B0007550705C10E0FF0F09E0779077B403D0B3
:1010C00077AE7784120077AE77941200752AD890A5
:1010D00074327332723272506D5E73506E5A745045
:1010E0006F5A6FBEEAD7D8906D366E366F36702E57
:1010F000F8D7C8D77F0E706EFF0E6F6E6E6E6D6E76
:1011000012007F0E77BEFF0E706E02D07F0E706EE3
:10111000800E6F6E6E6A6D6AF3D777AE04D0800E64
:10112000706E6F6AF7D7706A6F6AF4D7695068108B
:101130007B107A10F8E06BBEF0D769BE0CD06A5015
:101140006B10EBE0D8907A367B36683669366A06E3
:10115000D8A06B06F2D76B50D4E16A28D2E07AAE01
:1011600011D07F0E7A1402E17BA00CD07B2AE86AB2
:101170006822692207E3D880693268327B326A2AA2
:101180006A28BFE06A50C9E07BC06DF068C06EF0AD
:1011900069346F6E6A30706E6F32709E77BE708E7B
:1011A00080EF08F06F36703602E37784777E06E1D1
:1011B0007780706A6F6A6E6A6D6A1200702803E049
:1011C000D8806F321200D8906F3202E1778212001D
:1011D000778612007436753602E3778C777E06E1E7
:1011E0007788756A746A736A726A1200752803E0F8
:1011F000D88074321200D8907432EAE1778A1200F3
:101200000E0EF66E000EF76E000EF86E000109006D
:10121000F550A86F0900F550A96F03E1A86701D048
:101220003DD00900F550A36F0900F550A46F0900E7
:10123000F550A56F09000900F550E96E0900F55059
:10124000EA6E090009000900F550A66F0900F55083
:10125000A76F09000900F6CFAAF0F7CFABF0F8CFDF
:10126000ACF0A3C0F6FFA4C0F7FFA5C0F8FF0001D3
:10127000A65302E1A75307E00900F550EE6EA6075A
:10128000F8E2A707F9D7AAC0F6FFABC0F7FFACC0DA
:0E129000F8FF0001A807000EA95BBFD71200EF
:02129E00D9CFA6
:1012A000E6FFDACFE6FFE1CFD9FFE2CFDAFFE65281
:1012B000E652E652E652F8CF02F0F6CF03F00C0EFB
:1012C000BA6E050EF66EF76A300EF86E0800F5502D
:1012D000010B03E0010EDB6802D0010EDB6A010E98
:1012E000DB5002E0949201D09396CA94FD0EDB503D
:1012F000CB6ECA8402C0F8FF03C0F6FF040EE15CA7
:1013000002E2E16AE552E16EE552E5CFDAFFE7CFAE
:04131000D9FF1200EF
:0C131400D9CFE6FFDACFE6FFE1CFD9FF2A
:10132000E2CFDAFFC26AC06AFC0EDB407F0B3C0BE7
:10133000C26EFC0EDB38F00B300B506EFB0EDB5038
:101340000F0B5010C16EFD0EDB50040DF350380B27
:10135000516EFD0EDB380F0B070B506EFD0EDB5090
:10136000800B50105110C06EFC0EDBAE03D09E9C63
:101370009D8CF28CC280E552E5CFDAFFE7CFD9FF32
:02138000120059
:0E138200D9CFE6FFDACFE6FFE1CFD9FFE2CF09
:10139000DAFFE652E652D950FD0F506EFF0EDA200A
:1013A00050C0DEFFDD6EDECFE9FFDDCFEAFFEF9E4E
:1013B000FA0EDBCF50F0FB0EDBCF51F0FC0EDBCF93
:1013C00052F0FD0EDBCF53F050C06CF051C06DF009
:1013D00052C06EF053C06FF0E552E552E552E5CFD2
:0813E000DAFFE7CFD9FF12008C
:0813E800D9CFE6FFDACFE6FFE2
:1013F000E1CFD9FFE2CFDAFFE652E652FC0EDBCFB7
:1014000050F0FD0EDBCF51F0060ED890503651361D
:10141000E804FBE150C0DEFF51C0DDFF010EDB50F0
:10142000BB6EDF50E840E8403F0B300B506ECF0EF4
:10143000BA145010BA6EE552E552E552E5CFDAFF24
:06144000E7CFD9FF120006
:0A144600D9CFE6FFDACFE6FFE1CFD1
:10145000D9FFE2CFDAFFE652E652FC0EDBCF50F0C6
:10146000FD0EDBCF51F0060ED89050365136E80411
:10147000FBE150C0DEFF51C0DDFF010EDB50BE6E50
:10148000DF50E840E8403F0B300B506ECF0EBD14EC
:101490005010BD6EE552E552E552E5CFDAFFE7CFD9
:0414A000D9FF12005E
:0C14A400D9CFE6FFDACFE6FFE1CFD9FF99
:1014B000E2CFDAFFFD0EDB50FB0BCA6ECC6A9E92C8
:1014C000FD0EDBAE02D09D8201D09D92CA84E55212
:0A14D000E5CFDAFFE7CFD9FF1200E5
:0614DA00D9CFE6FFDACFD6
:1014E000E6FFE1CFD9FFE2CFDAFF0C0EBD129494F4
:1014F000CA94FD0EDB50CB6ECA84E552E5CFDAFF0D
:0A150000E7CFD9FF12009494120007
:06150A00D9CFE6FFDACFA5
:10151000E6FFE1CFD9FFE2CFDAFFC30EC214506E6F
:10152000FD0EDB407F0B3C0B5010C26EE552E5CF49
:08153000DAFFE7CFD9FF12003A
:08153800000EF36E00EE00F05E
:10154000060E01D81200EA6002D0EE6AFCD7F35012
:08155000E9601200EE6AFCD70D
:0815580015EE00F025EE00F095
:10156000F86A779C00EC09F003EC00F07DEC00F0E9
:04157000FBD7120093
:0A157400C250020B01E0010E12004C
:02157E00C28227
:02158000120057
:0E15820000000004080C801060400C00000007
:10159000000000000000000000000000000000004B
:0515A000000000000046
:00000001FF
