:020000040000FA
:0600000082EF02F0120085
:0A0006000300370500009000000021
:100010000200000036050000920000000100000010
:0C002000300500008A000000060000000F
:04002C00D9CFE6FF43
:10003000E1CFD9FF020EE1262D0EC714E76E010EA7
:10004000E7CFDBFFDB50090806E10001906BC950E8
:10005000DF6E010E43D0010EDB50290810E10001D4
:100060009051EA6A000FE96E000EEA22C9CFEFFF55
:10007000902B9051020801E2906B020E2FD0010EDE
:10008000DB502C0B0C080CE10001906B010EE66EAE
:10009000E66A30D8E552E5520001902B030E1ED0DF
:1000A000010EDB502C0811E1C6B80FD000019051B1
:1000B000020801E2906B020EE66EE66A1BD8E5527A
:1000C000E5520001902B040E09D0010EDB50280BE5
:1000D000280802E1050E02D0FF0E00D0066E020EC7
:1000E000E15C02E2E16AE552E16E0650E552E7CFDB
:1000F000D9FF1200D9CFE6FFE1CFD9FFC69EFD0E92
:10010000DB50C96EC6BEFAD7E552E7CFD9FF120061
:10011000D9CFE6FFE1CFD9FFFE0EDB50EA6A000F30
:10012000E96E000EEA22EF5000D0E552E7CFD9FF8A
:100130001200D9CFE6FFE1CFD9FFFE0EDB50026EF1
:10014000E552E7CFD9FF1200D9CFE6FFE1CFD9FFC3
:0E015000FE0EDB50036EE552E7CFD9FF120022
:02015E00D9CFF7
:10016000E6FFE1CFD9FF040EE126DF6A030EDB6A6A
:10017000010EDB6A020EDB6AD950030FE96EDACF9B
:10018000EAFF8250200B02E0EF9001D0EF80D950BF
:10019000030FE96EDACFEAFF8250400B02E0EF92E4
:1001A00001D0EF82D950030FE96EDACFEAFF825017
:1001B000800B02E0EF9401D0EF84D950030FE96E79
:1001C000DACFEAFF8050100B02E0EF9601D0EF8605
:1001D000F30E03140009036E030EDB500001925D61
:1001E00035E0030EDB509219DF6E030EDB50DF1497
:1001F000E76E010EE7CFDBFFDF509215E76E020ED0
:10020000E7CFDBFFD950010FE96EDACFEAFFEF50FD
:10021000010B04E0F30E03140409036ED950010F1F
:10022000E96EDACFEAFFEF50020B04E0F30E03149D
:100230000809036ED950010FE96EDACFEAFFEF50DB
:10024000040B04E0F30E03140C09036E030EDBCF62
:1002500092F0040EE15C02E2E16AE552E16EE552E1
:06026000E7CFD9FF1200F8
:0A026600DACFE4FFE2CFDAFFE65240
:10027000D9CFE6FFE1CFD9FF030EE126DF6A9EA2C8
:100280000ED08D7000018A2B000E8B23040ED880B7
:100290008A55000E8B5502E28A6B8B6B9E92030E81
:1002A000E15C02E2E16AE552E16EE552E7CFD9FF97
:1002B000E552E5CFDAFF1100D9CFE6FFE1CFD9FF54
:1002C000020EE126DE6ADD6A1BD8DE6ADD6ADECF59
:1002D00006F0DDCF07F0010E065C000E075805E2C0
:1002E000DF2A010E01E3DB2AF2D7EFD7020EE15C31
:1002F00002E2E16AE552E16EE552E7CFD9FF120072
:100300009B809B829B849B869B88D388D38AD38C3B
:100310009B8C9B9E9268F00E936EF80E946E956A7D
:10032000FC0E966E94869488F28CF28E9C0EE66E8D
:080330002EEC02F0E552120070
:08033800060EF66E000EF76ED2
:10034000000EF86E00010900F550856F0900F550A8
:10035000866F03E1856701D03DD00900F550806FBD
:100360000900F550816F0900F550826F09000900FE
:10037000F550E96E0900F550EA6E09000900090020
:10038000F550836F0900F550846F09000900F6CF1E
:1003900087F0F7CF88F0F8CF89F080C0F6FF81C0F2
:1003A000F7FF82C0F8FF0001835302E1845307E0A6
:1003B0000900F550EE6E8307F8E28407F9D787C08D
:1003C000F6FF88C0F7FF89C0F8FF00018507000E1F
:0603D000865BBFD712009E
:0A03D600870EE66E49EC02F0E552D6
:1003E00095EF02F0D9CFE6FFE1CFD9FF020EE1266B
:1003F00090EC02F0000901E0FBD7C450DE6EDD6A2C
:10040000DECF06F0DDCF07F006C007F0066A06C0B3
:10041000DEFF07C0DDFFC350E76E000EDFCF06F042
:10042000010EDBCF07F0E7500626000E072206C0BC
:10043000DEFF07C0DDFFDECF06F0DDCF07F006C030
:10044000F3FF07C0F4FF020EE15C03E200D0E16AB3
:0C045000E552E16EE552E7CFD9FF120043
:04045C00D9CFE6FF0F
:10046000DACFE6FFE1CFD9FFE2CFDAFFFD0EDB50B6
:10047000FB0BCA6ECC6A9E92FD0EDBAE02D09D8253
:1004800001D09D92CA84E552E5CFDAFFE7CFD9FFCC
:02049000120058
:0E049200D9CFE6FFDACFE6FFE1CFD9FFE2CF08
:1004A000DAFFC30EC214066EFD0EDB407F0B3C0B61
:1004B0000610C26EE552E5CFDAFFE7CFD9FF120092
:1004C000D9CFE6FFE1CFD9FF0C0EBD129494CA94A8
:1004D000FE0EDB50CB6ECA84E552E7CFD9FF120087
:0404E00094941200DE
:0C04E400000EF36E00EE00F0060E01D8D2
:1004F0001200EA6002D0EE6AFCD7F350E960120005
:04050000EE6AFCD7CC
:0C05040015EE00F025EE00F0F86A059CF2
:100510009CEC01F097EC02F05CEC01F0FBD71200D0
:0A052000C250020B01E0010E1200B0
:04052A00C282120077
:02052E001200B9
:06053000000000000000C5
:0105360000C4
:020537000000C2
:00000001FF
