:020000040000FA
:060000001CEF02F01200EB
:020006001200E6
:060008000FEF00F01200F2
:02000E00C58AA1
:04001000C58812008D
:04001400C580120091
:08001800A1EF00F01200DACFA5
:10002000E4FFE2CFDAFFE9CFE4FFEACFE4FFE652F4
:10003000D9CFE6FFE1CFD9FF050EE126020EDB6A3C
:10004000030EDB6A040EDB6AF2A264D00001896B46
:100050008A6B8B6B8C6B956A32505BE122508C6E95
:10006000040E0001895D000E8A59000E8B59000EA6
:100070008C5915E281A2FED70001892B000E8A233C
:100080008B238C23220E8925E96E000E8A21EA6ECD
:10009000EF508C6E81B2FED781B001D0E1D7956868
:1000A000080E0001895D000E8A59000E8B59000E62
:1000B0008C5923E281A2FED789C033F08AC034F084
:1000C0008BC035F08CC036F0040E335E000E345A0F
:1000D000355A365A120E3324E96E000E3420EA6E79
:1000E00083CFEFFF0001892B000E8A238B238C2303
:1000F00081B2FED781B001D0D3D7080E0001891993
:1001000005E18A5103E18B5101E18C5102E1010EBD
:10011000326EF2929EB69E96F0B2F092F2B4F294E3
:10012000050EE15C02E2E16AE552E16EE552E7CFDD
:10013000D9FFE552E5CFEAFFE5CFE9FFE5CFDAFFEA
:100140001100D8CFE4FFE0CFE4FFE46EDACFE4FFA4
:10015000E2CFDAFFE652E552E5CFDAFFE550E5CF30
:08016000E0FFE5CFD8FF10001D
:08016800010082040000AA005E
:0601700000001400000075
:0A017600D9CFE6FFE1CFD9FFE65232
:100180006BD895688A880001916B926B936B946B26
:10019000300E915D750E9259000E9359000E9459D0
:1001A00006E2912B000E922393239423F1D70001B2
:1001B000000ED880B655000EB75504E2B607000E03
:1001C000B75B01D08A88325041E0DF6A040EDF5C01
:1001D0001CE2EA6ADF34FE0BEA36E96E120EE9260B
:1001E000000EEA22EECF39F0EFCF3AF0EA6ADF34C0
:1001F000FE0BEA36E96E020EE926000EEA2239C04D
:10020000EEFF3AC0EDFFDF2AE1D78A980001300EF9
:10021000B66F750EB76F38EC02F0C580C5B0FED76B
:1002200038EC02F0E00EE66E46EC01F0E552000913
:1002300000E138EC02F00250E66E7FEC01F0E5528E
:1002400038EC02F0C584C5B4FED7326AB0D7E552A7
:10025000E552E7CFD9FF12000F0E926E070E936E94
:10026000946A9568966AB46EF28EF28CF28CF28E75
:10027000F19CF288E66A080EE66EF1EC01F0E552B8
:0C028000E552180EC86E9D8695681200AD
:04028C00D9CFE6FFE1
:10029000E1CFD9FFFE0EDB50C96EC6AE03D0FF0E14
:1002A0002AD029D00F0EC614080812E00F0EC6146B
:1002B0000B080EE0C6889EA6FED7C750040B06E1C9
:1002C000C750010B03E1FE0E16D015D0000E13D05F
:1002D0000F0EC614080804E00F0EC6140B080BE13D
:1002E000C7B0FED738EC02F0C5AC03D0FE0E03D089
:1002F00002D0000E00D0E552E7CFD9FF1200D9CFCF
:10030000E6FFE1CFD9FFFE0EDB50C96EC6AE03D0CB
:10031000FF0E14D013D00F0EC614080804E00F0E01
:10032000C6140B080BE1C7B0FED738EC02F0C5AC21
:1003300003D0FE0E03D002D0000E00D0E552E7CF6E
:04034000D9FF1200CF
:0C034400680EF66E010EF76E000EF86EEB
:1003500000010900F550C36F0900F550C46F03E1B7
:10036000C36701D03DD00900F550BE6F0900F550BC
:10037000BF6F0900F550C06F09000900F550E96E24
:100380000900F550EA6E090009000900F550C16F37
:100390000900F550C26F09000900F6CFC5F0F7CF8C
:1003A000C6F0F8CFC7F0BEC0F6FFBFC0F7FFC0C0B1
:1003B000F8FF0001C15302E1C25307E00900F55004
:1003C000EE6EC107F8E2C207F9D7C5C0F6FFC6C096
:1003D000F7FFC7C0F8FF0001C307000EC45BBFD71B
:0203E000120009
:0E03E200D9CFE6FFDACFE6FFE1CFD9FFE2CFB9
:1003F000DAFF3F0EC716C66AC56AFD0EDB50C6128D
:10040000FC0EDB50C71294869488C68AE552E5CF6D
:08041000DAFFE7CFD9FF12006B
:08041800000EF36E00EE00F08F
:10042000060E01D81200EA6002D0EE6AFCD7F35043
:08043000E9601200EE6AFCD73E
:0804380015EE00F025EE00F0C6
:10044000F86A389CA2EC01F003EC00F0BBEC00F081
:04045000FBD71200C4
:0C0454000F0EC614080804E00F0EC614BA
:100460000B0801E1C586C7A0FED7C95000D0120015
:100470001F0EC51403E1C750040B02E0F9D7F8D7EB
:02048000120068
:0E04820000000000000000000100000000006B
:0604900000000000000165
:00000001FF
