:020000040000FA
:060000005BEF13F012009B
:0A0006000100E22600008000000067
:040010005F0000008D
:0C001400DACFE4FFE2CFDAFFE9CFE4FF2F
:10002000EACFE4FFF6CFE4FFF7CFE4FFF5CFE4FF3C
:10003000F3CFE4FFF4CFE4FFFACFE4FF00EE30F0BB
:10004000140EE80403E3EECFE4FFFBD700EE00F06C
:100050001C0EE80403E3EECFE4FFFBD7E6529EA6B6
:100060000FD0EEEC04F0F3CF44F0F4CF45F0050EE2
:10007000441801E1455003E10001010E8E6F9E9688
:100080009EA223D00001912B902B200ED880D55515
:10009000030ED65516E289510CE08A2B000E8B23F5
:1000A000320ED8808A55000E8B5503E2896B8A6B1D
:1000B0008B6BD45102E0000E01D0010ED46FD56BD2
:1000C000D66BD52B000ED6239E92E55200EE1BF088
:1000D0001C0EE80403E3E5CFEDFFFBD700EE43F091
:1000E000140EE80403E3E5CFEDFFFBD7E5CFFAFFFD
:1000F000E5CFF4FFE5CFF3FFE5CFF5FFE5CFF7FF61
:10010000E5CFF6FFE5CFEAFFE5CFE9FFE5CFDAFF80
:100110001100D9CFE6FFE1CFD9FF0E0EE1260C0E7C
:10012000DB6A0D0EDB6A27EC0AF0580EE66EE66A13
:10013000A5EC06F0E552E55200018E5101E1E2D056
:100140008E6BDA5151E1030E1F14E66ED950020F87
:10015000E96EDACFEAFFE552E750EE6EED6A020E85
:10016000DBCF02F0030EDBCF03F002C003F0026A24
:100170001E5000010224006E000E0320016E020ECC
:1001800000C0DBFF030E01C0DBFF24C026F025C04A
:1001900027F000018C6B020EDBCF00F0030EDBCFEB
:1001A00001F000012851001802E12951011803E073
:1001B0000001010E8C6F020EDBCF28F0030EDBCFA7
:1001C00029F0020EDBCF38F0030EDBCF39F000014F
:1001D0008051385C006E81513958016E040E00C0A8
:1001E000DBFF050E01C0DBFFF20E205C53E1030EC6
:1001F0001F14E66ED950020FE96EDACFEAFFE5521E
:10020000E750EE6EED6A020EDBCF02F0030EDBCF9D
:1002100003F002C003F0026A1E5000010224006EC7
:10022000000E0320016E020E00C0DBFF030E01C0B2
:10023000DBFF24C026F025C027F000018C6B020EE6
:10024000DBCF00F0030EDBCF01F0000128510018D6
:1002500002E12951011803E00001010E8C6F020E2A
:10026000DBCF28F0030EDBCF29F0020EDBCF38F016
:10027000030EDBCF39F000018051385C006E8151F4
:100280003958016E040E00C0DBFF050E01C0DBFF14
:10029000010EDA6FF30E205C02E1010E896FF40E9D
:1002A000205C05E11E2801013F6F0001896BF00E03
:1002B0002014E0080AE10F0E2014080DF35001018C
:1002C0004025010F3F6F0001896B1F50400B01E07B
:1002D000010E886F8251216E83C000F0016A0050C8
:1002E000226EF10E236E8451821902E18551831929
:1002F00007E08651871104E082C084F083C085F056
:10030000010EDB6FAA51D880905501E3D4D0F29E44
:100310008D70E6DB0C0EF3CFDBFF0D0EF4CFDBFFB1
:100320000C0EDBCF80F00D0EDBCF81F01E0E000136
:10033000D880DB55026E036A02C038F003C039F082
:1003400026C03DF027C03EF0E1EC0FF036C000F0D3
:1003500037C001F00001DB51046E056A04C038F0BB
:1003600005C039F0020EDBCF3DF0030EDBCF3EF0CF
:10037000B4EC0FF000503624246E01503720256E67
:100380001E0E3D6E3E6A24C038F025C039F035ECB3
:1003900013F038C024F039C025F00001A351245CCB
:1003A000A451255804E2A3C024F0A4C025F0245091
:1003B000A55D2550A65904E2A5C024F0A6C025F0ED
:1003C00024C0E6FF25C0E6FF8BD8E552E552CAD926
:1003D000F28E1D0E0001DB5D01E2DB2BCC511F0B09
:1003E00045C104F046C105F047C106F048C107F019
:1003F00007E0D8900732063205320432E806F9E108
:1004000004500101455D006E05504659016E0650CD
:100410004759026E07504859036E0C0EDBCF08F0A7
:100420000D0EDBCF09F00A6A0B6A00500824456FF5
:1004300001500920466F02500A20476F03500B20DD
:10044000486F0001CC511F0B45C100F046C101F0BF
:1004500047C102F048C103F007E0D89003320232EE
:1004600001320032E806F9E100C082F001C083F0F9
:100470000001906B10DB0001865187110FE0DBEC6F
:1004800007F0F3CF00F0F4CF01F000C0E6FF01C0A9
:10049000E6FF62EC06F0E552E55208D001013F515B
:1004A000E66EE66AA5EC06F0E552E5521F50E66EF0
:1004B00068EC07F0E5520001A951D880915505E29A
:1004C00082DB0001866F876B916B36D60E0EE15C86
:1004D00002E2E16AE552E16EE552E7CFD9FF120090
:1004E000D9CFE6FFE1CFD9FF020EE126FD0EDBCF2B
:1004F00038F0FE0EDBCF39F000018051385C01018D
:10050000046F0001815139580101056F066B076BBB
:1005100005AF02D0066907690451051106110711DC
:1005200001E1FCD004C136F005C137F006C138F056
:1005300007C139F0BEC03BF0BFC03CF0C0C03DF0C9
:10054000C1C03EF0ACEC11F032500101082733502D
:100550000923C4C0DEFFC5C0DDFFDECF00F0DDCF64
:1005600001F001500919E8AE02D0093504D0085154
:10057000005C0951015804E2DECF08F1DDCF09F13A
:10058000DECF00F0DDCF01F0000E006C011E012275
:1005900009510118E8AE02D0013404D00050085DC2
:1005A0000150095908E2DECF08F1DDCF09F1086DED
:1005B000091F000E0923530EE96E010EEA6EEE507C
:1005C000045D006EEE500559016EEE500659026E44
:1005D000EE500759036E00C00AF101C00BF104C1CF
:1005E00053F105C154F106C155F107C156F1650E2D
:1005F000186E196A1A6A1B6A0001BA51185C146EE7
:10060000BB511958156EBC511A58166EBD511B5866
:10061000176EAEC036F0AFC037F0B0C038F0B1C022
:1006200039F004C13BF005C13CF006C13DF007C103
:100630003EF0ACEC11F032C008F033C009F034C029
:100640000AF035C00BF008C10CF009C10DF00E6ABC
:100650000F6A0DAE02D00E680F68B2C036F0B3C09C
:1006600037F0B4C038F0B5C039F00CC03BF00DC065
:100670003CF00EC03DF00FC03EF0ACEC11F0085065
:100680003224046E09503320056E0A503420066E61
:100690000B503520076E0AC110F00BC111F0126A21
:1006A000136A11AE02D012681368B6C036F0B7C034
:1006B00037F0B8C038F0B9C039F010C03BF011C005
:1006C0003CF012C03DF013C03EF0ACEC11F0045011
:1006D0003224006E05503320016E06503420026E25
:1006E00007503520036E00C036F001C037F002C05D
:1006F00038F003C039F014C03BF015C03CF016C010
:100700003DF017C03EF080EC0FF036C02AF037C045
:100710002BF038C02CF039C02DF01AD0A7C00CF146
:10072000A8C00DF1086B096B046B056B066B076BBA
:100730000A6B0B6B4F6B506B536B546B556B566B5B
:1007400000012A6B2B6B2C6B2D6B0001886BDA6B15
:10075000020EE15C02E2E16AE552E16EE552E7CFAA
:10076000D9FF1200D9CFE6FFE1CFD9FF040EE12671
:100770000001010E886F885103E09551961117E032
:10078000000EE66EE66A4EEC12F0E552E552000EFF
:10079000E66EE66A7DEC12F0E552E5528B900101BF
:1007A000086B096B0A6B0B6B006B016BE8D0D88090
:1007B00000012D51FF0A08E6FF0E2A5DFF0E2B599E
:1007C000FF0E2C59FF0E2D595CE22AC036F02BC0CB
:1007D00037F02CC038F02DC039F063EC0EF037C084
:1007E00004F038C005F039C006F03AC007F004C084
:1007F000E6FF05C0E6FF06C0E6FF07C0E6FF1BEC0C
:1008000012F0E552E552E552E55236C000F037C02D
:1008100001F038C002F039C003F000C037F001C069
:1008200038F002C039F003C03AF0FFEC0FF038C0E6
:10083000DEFF39C0DDFFDECF00F0DDCF01F00001CB
:100840000050AC5D0150AD5904E2ACC0DEFFADC05C
:10085000DDFF020EDB6A030EDB6A8B80DECFE6FF74
:10086000DDCFE6FF7DEC12F0E552E552020EDBCF64
:10087000E6FF030EDBCFE6FF4EEC12F0E552E55249
:100880007ED02D35000E2D1909E6D880010E2A558F
:10089000000E2B55000E2C55000E2D5560E22AC07F
:1008A00036F02BC037F02CC038F02DC039F063EC97
:1008B0000EF037C004F038C005F039C006F03AC079
:1008C00007F004C0E6FF05C0E6FF06C0E6FF07C06C
:1008D000E6FF1BEC12F0E552E552E552E55236C058
:1008E00000F037C001F038C002F039C003F000C09A
:1008F00037F001C038F002C039F003C03AF0FFEC25
:100900000FF0020E38C0DBFF030E39C0DBFF020E12
:10091000DBCF00F0030EDBCF01F000010050AC5D37
:100920000150AD5906E2020EACC0DBFF030EADC0B4
:10093000DBFFDE6ADD6A8B80DECFE6FFDDCFE6FF20
:100940007DEC12F0E552E552020EDBCFE6FF030E1E
:10095000DBCFE6FF4EEC12F0E552E55210D0000E70
:10096000E66EE66A4EEC12F0E552E552000EE66ED7
:10097000E66A7DEC12F0E552E5528B9000D0040E51
:10098000E15C02E2E16AE552E16EE552E7CFD9FFB0
:100990001200D9CFE6FFE1CFD9FF030EE126FE0E0C
:1009A000DB50550BDF6EFD0EDB50AA0BE76E010E20
:1009B000E7CFDBFFDB50DF24E76E020EE7CFDBFF84
:1009C000DB1C006E030EE15C03E200D0E16AE5523D
:1009D000E16E0050E552E7CFD9FF12002D0EC7148B
:1009E0001C6E090E1C5C09E100012E6BC9CF2FF0B3
:1009F000C688010EF36EF46A3FD0290E1C5C13E129
:100A000000012E51EA6A1E0FE96E000EEA22C9CFDC
:100A1000EFFFC6882E2B2E51030801E22E6B020E2B
:100A2000F36EF46A29D02C0E1C140C0809E10001A5
:100A30002E6B23D800012E2B030EF36EF46A1CD00C
:100A40002C0E1C5C0EE1C6B80CD000012E51030820
:100A500001E22E6B12D800012E2B040EF36EF46A05
:100A60000BD0280E1C14280804E1050EF36EF46A5E
:100A700003D0F368F46800D01200C69E00012E5126
:100A8000EA6A210FE96E000EEA22EF50C96EC6BE77
:100A9000F4D7C6881200D9CFE6FFE1CFD9FF040E04
:100AA000E126DF6A010EDB6A020EDB6A030EDB6AF7
:100AB00022168250200B200A01E0010E030BF36E78
:100AC000F346F346F30E2214F310226E040EE15C9B
:100AD00002E2E16AE552E16EE552E7CFD9FF12008A
:100AE000D9CFE6FFE1CFD9FF060EE126020EDB6A81
:100AF000030EDB6A870EE66E1EEC13F0E552040E61
:100B0000DB6A050EDB6A040EDBCF00F0050EDBCFDF
:100B100001F0040E005C000E015838E26EEC13F098
:100B200069EC13F0000901E0FBD7C450DE6EDD6A0A
:100B3000DECF00F0DDCF01F000C001F0006A00C0A0
:100B4000DEFF01C0DDFFC350E76E000EDFCF00F017
:100B5000010EDBCF01F0E7500026000E012200C09D
:100B6000DEFF01C0DDFFDECF00F0DDCF01F0D950A8
:100B7000020FE96EDACFEAFF0050EE260150ED22B7
:100B8000040EDB2A050E01E3DB2ABDD7020EDBCF04
:100B900000F0030EDBCF01F0020E0F0B05E0D89042
:100BA00001320032E806FBE100C0F3FF01C0F4FFB0
:100BB000060EE15C03E200D0E16AE552E16EE55227
:100BC000E7CFD9FF1200D9CFE6FFE1CFD9FF020E60
:100BD000E126929289828F0EE66E1EEC13F0E552AA
:100BE00096948D949684BF0EE66E1EEC13F0E5523B
:100BF0006EEC13F069EC13F0000901E0FBD7C45070
:100C0000DE6EDD6ADECF00F0DDCF01F000C001F066
:100C1000006A00C0DEFF01C0DDFFC350E76E000EBA
:100C2000DFCF00F0010EDBCF01F0E7500026000E11
:100C3000012200C0DEFF01C0DDFFDECF00F0DDCF0E
:100C400001F0D20E005C000E015817E20101000E07
:100C5000D8801055000E115508E2010E0001956F65
:100C6000966B01010E6B0F6B07D0102B000E11233A
:100C70000001D46BD56BD66B16D00101100ED88055
:100C80000E55000E0F5502E2106B116B5A0ED880F4
:100C90000E55000E0F5504E20001956B966B03D0C4
:100CA0000E2B000E0F2300019551006E020EE15C29
:100CB00003E200D0E16AE552E16E0050E552E7CF71
:100CC000D9FF1200D9CFE6FFE1CFD9FF020EE1260E
:100CD000DE6ADD6ADECF00F0DDCF01F0100E005CD1
:100CE000000E015826E2010EE76EFD0EDBCF00F08C
:100CF000FE0EDBCF01F0E7500016016A0050E8B0AD
:100D00008C80E8A08C90FD0EDBCF00F0FE0EDBCFD8
:100D100001F0D89001320032FD0E00C0DBFFFE0E64
:100D200001C0DBFF8C828C92DF2A010E01E3DB2AFB
:100D3000D1D78C848C94020EE15C02E2E16AE55228
:100D4000E16EE552E7CFD9FF1200D9CFE6FFE1CF40
:100D5000D9FF040EE126DE6ADD6AFD0EDBCF00F06E
:100D6000FE0EDBCF01F00A0E005C000E015815E20A
:100D7000FD0EDBCFE9FFFE0EDBCFEAFF010ED890C0
:100D8000E936EA36E806FBE1280EE926010EEA22FA
:100D9000EECFDEFFEDCFDDFF48D0FD0EDBCFE9FF6C
:100DA000FE0EDBCFEAFF0A0E3D6E3E6AE9CF38F059
:100DB000EACF39F035EC13F038C0E9FF39C0EAFF6B
:100DC000010ED890E936EA36E806FBE1140EE92672
:100DD000010EEA22EECF02F0EFCF03F0FD0EDBCFE3
:100DE000E9FFFE0EDBCFEAFF0A0E3D6E3E6AE9CF59
:100DF00038F0EACF39F035EC13F034C0E9FF35C0F4
:100E0000EAFF010ED890E936EA36E806FBE1280E43
:100E1000E926010EEA220250EE24006E0350EE2075
:100E2000016E00C0DEFF01C0DDFF020EDB6A030EB3
:100E3000DB6A020EDBCF00F0030EDBCF01F0100EF9
:100E4000005C000E01581DE2DECF00F0DDCF01F0A6
:100E5000010E0014E8B08C80E8A08C90DECF00F08A
:100E6000DDCF01F0D8900132003200C0DEFF01C0BA
:100E7000DDFF8C828C92020EDB2A030E01E3DB2A5B
:100E8000D8D78C848C94040EE15C02E2E16AE552CE
:100E9000E16EE552E7CFD9FF12000001996B825055
:100EA000200B200A01E0010E9B03F350992782508A
:100EB000400B400A01E0010E9C03F3509927825039
:100EC000800B800A01E0010E9D03F3509927120068
:100ED000D9CFE6FFE1CFD9FFE652FE0EDB500C0B77
:100EE000DF6E01015751DF5C02E00C6B0D6BDFCF51
:100EF00057F11F50800B02E08A9601D08A860001CC
:100F0000895106E0D451E8B08C86E8A08C9601D0D7
:100F10008C96DF500C0A3DE0040A29E00C0A15E02B
:100F2000040A01E043D08A808A82D4518615006E7B
:100F3000016A0050011002E0000E01D0010E010B09
:100F4000E8B08A84E8A08A9431D08A908A82D45109
:100F50008615006E016A0050011002E0000E01D0FB
:100F6000010E010BE8B08A84E8A08A941FD08A9011
:100F70008A92D4518615006E016A0050011002E079
:100F8000000E01D0010E010BE8B08A84E8A08A941B
:100F90000DD08A908A82D4518615006E016A010EA6
:100FA0000014E8B08A84E8A08A9400D0E552E552A3
:100FB000E7CFD9FF1200D9CFE6FFE1CFD9FF060E68
:100FC000E12682C038F083C039F04EEC0EF037C015
:100FD000DEFF38C0DEFF39C0DEFF3AC0DDFFDD5284
:100FE000DD52D9CFE9FFDACFEAFFEECF04F0EECF42
:100FF00005F0EECF06F0EFCF07F028C038F029C09B
:1010000039F04CEC0EF037C008F038C009F039C0A8
:101010000AF03AC00BF008C03CF009C03DF00AC02D
:101020003EF00BC03FF004C037F005C038F006C0FA
:1010300039F007C03AF0E9EC0EF037C000F038C0E4
:1010400001F039C002F03AC003F0CD0E3C6ECC0E78
:101050003D6E4C0E3E6E3D0E3F6E00C037F001C03F
:1010600038F002C039F003C03AF07CEC0EF037C023
:10107000DEFF38C0DEFF39C0DEFF3AC0DDFFDD52E3
:10108000DD52DECF37F0DECF38F0DECF39F0DDCF06
:101090003AF0DD52DD523C6A3D6A3E6A3F6A2EEC10
:1010A00010F0010A14E10001D451026E036A026CCF
:1010B000031E000E0322010128510214006E295163
:1010C0000314016E00C0F3FF01C0F4FFB6D1D9CF05
:1010D000E9FFDACFEAFFEECF00F0EECF01F0EECF7E
:1010E00002F0EFCF03F03C6A3D6A3E6A3F6A00C0FF
:1010F00037F001C038F002C039F003C03AF035ECE7
:1011000010F0010A01E0AAD0D9CFE9FFDACFEAFF57
:10111000EECF00F0EECF01F0EECF02F0EFCF03F014
:101120003C6A3D6A200E3E6E410E3F6E00C037F0B5
:1011300001C038F002C039F003C03AF03EEC10F0C4
:10114000010A06E0400EF36E080EF46E76D185D0EB
:10115000D9CFE9FFDACFEAFFEECF00F0EECF01F012
:10116000EECF02F0EFCF03F03C6A3D6A800E3E6E98
:101170003F0E3F6E00C037F001C038F002C039F0BA
:1011800003C03AF03EEC10F0010A29E0DECF37F060
:10119000DECF38F0DECF39F0DDCF3AF0DD52DD5270
:1011A000FFEC0FF0040E38C0DBFF050E39C0DBFF8B
:1011B000040EDBCFE9FF050EDBCFEAFFD890E9365E
:1011C000EA36280EE926010EEA22EECF00F0EFCF34
:1011D00001F000C0F3FF01C0F4FF2FD13ED0D9CF02
:1011E000E9FFDACFEAFFEECF00F0EECF01F0EECF6D
:1011F00002F0EFCF03F03C6A3D6A200E3E6E410ED6
:101200003F6E00C037F001C038F002C039F003C0B3
:101210003AF07CEC0EF0FFEC0FF0040E38C0DBFF70
:10122000050E39C0DBFF040EDBCFE9FF050EDBCF77
:10123000EAFFD890E936EA36280EE926010EEA22BE
:10124000EECF00F0EFCF01F0000E0026400E01229D
:1012500000C0F3FF01C0F4FFF0D0EFD0D9CFE9FF19
:10126000DACFEAFFEECF00F0EECF01F0EECF02F0E2
:10127000EFCF03F03C6A3D6A200E3E6EC10E3F6E1A
:1012800000C037F001C038F002C039F003C03AF0B6
:1012900035EC10F0010A06E0080EF36E100EF46E45
:1012A000CCD0CBD0D9CFE9FFDACFEAFFEECF00F038
:1012B000EECF01F0EECF02F0EFCF03F03C6A3D6AD3
:1012C000800E3E6EBF0E3F6E00C037F001C038F09A
:1012D00002C039F003C03AF035EC10F0010A45E0E5
:1012E000D9CFE9FFDACFEAFFEECFE6FFEECFE6FF98
:1012F000EECFE6FFEFCFE6FF1BEC12F0E552E55232
:10130000E552E55236C000F037C001F038C002F0B7
:1013100039C003F000C037F001C038F002C039F026
:1013200003C03AF0FFEC0FF0040E38C0DBFF050EEF
:1013300039C0DBFF040EDBCFE9FF050EDBCFEAFF90
:10134000D890E936EA36280EE926010EEA22EECFD9
:1013500000F0EFCF01F0010E0026000E012200C0C8
:10136000F3FF01C0F4FF69D068D0D9CFE9FFDACF2D
:10137000EAFFEECF08F0EECF09F0EECF0AF0EFCFA4
:101380000BF03C6A3D6A200E3E6E410E3F6E08C077
:1013900037F009C038F00AC039F00BC03AF07CECE5
:1013A0000EF037C004F038C005F039C006F03AC07E
:1013B00007F004C0E6FF05C0E6FF06C0E6FF07C071
:1013C000E6FF1BEC12F0E552E552E552E55236C05D
:1013D00000F037C001F038C002F039C003F000C09F
:1013E00037F001C038F002C039F003C03AF0FFEC2A
:1013F0000FF0040E38C0DBFF050E39C0DBFF040E12
:10140000DBCFE9FF050EDBCFEAFFD890E936EA36FD
:10141000280EE926010EEA22EECF00F0EFCF01F010
:10142000000E0026400E0122010E0026000E0122B1
:1014300000C0F3FF01C0F4FF00D0060EE15C02E241
:10144000E16AE552E16EE552E7CFD9FF1200D9CF4C
:10145000E6FFE1CFD9FF100EE1269B809B829B84A3
:101460009B869B88D388D38AD38C9B8C9B9E9268C7
:10147000F00E936EF80E946E956AFC0E966E94863E
:101480009488E66A060EE66EEBEC12F0E552E55241
:10149000C580DE6A080EDD6E020EDB6A200EF36E7A
:1014A000030EF3CFDBFF200EF36E040EF3CFDBFF52
:1014B000050EDB6A080EF36E060EF3CFDBFF070E98
:1014C000DB6A040EF36E080EF3CFDBFF090EDB6A56
:1014D0000A0EDB6A020EF36E0B0EF3CFDBFF010E7A
:1014E000F36E0C0EF3CFDBFF0D0EDB6A0E0EDB6A24
:1014F000400EF36E0F0EF3CFDBFF020EDBCF08F0D2
:10150000030EDBCF09F0DE500824066EDD50092003
:10151000076E040EDB500624046E050EDB50072018
:10152000056E060EDB500424026E070EDB5005200C
:10153000036E080EDB500224006E090EDB50032000
:10154000016E0A0EDB50000100240101146F0B0E26
:10155000DB50000101200101156F040EDBCF00F00C
:10156000050EDBCF01F0020EDB500001002401016B
:10157000166F030EDB50000101200101176F020EF0
:10158000DBCF06F0030EDBCF07F0DE500624046E3F
:10159000DD500720056E060EDB500424026E070E98
:1015A000DB500520036E080EDB500224006E090E8E
:1015B000DB500320016E0C0EDB5000010024010102
:1015C000186F0D0EDB50000101200101196F020E92
:1015D000DBCF06F0030EDBCF07F0DE500624046EEF
:1015E000DD500720056E040EDB500424026E050E4C
:1015F000DB500520036E060EDB500224006E070E42
:10160000DB500320016E0C0EDB50000100240101B1
:101610001A6F0D0EDB500001012001011B6F040E3B
:10162000DBCF04F0050EDBCF05F0020EDB50042407
:10163000026E030EDB500520036E0A0EDB500224FF
:10164000006E0B0EDB500320016E0C0EDB50000110
:10165000002401011C6F0D0EDB500001012001016F
:101660001D6F040EDBCF06F0050EDBCF07F0DE505A
:101670000624046EDD500720056E060EDB500424A0
:10168000026E070EDB500520036E0A0EDB500224AB
:10169000006E0B0EDB500320016E0C0EDB500001C0
:1016A000002401011E6F0D0EDB500001012001011D
:1016B0001F6F040EDBCF08F0050EDBCF09F0DE5004
:1016C0000824066EDD500920076E060EDB50062446
:1016D000046E070EDB500720056E080EDB50042455
:1016E000026E090EDB500520036E0A0EDB50022449
:1016F000006E0B0EDB500320016E0C0EDB50000160
:1017000000240101206F0D0EDB50000101200101BA
:10171000216F020EDBCF02F0030EDBCF03F0DE50B1
:101720000224006EDD500320016E040EDB50000128
:1017300000240101226F050EDB5000010120010190
:10174000236F020EDBCF0AF0030EDBCF0BF0DE506F
:101750000A24086EDD500B20096E040EDB500824AD
:10176000066E050EDB500920076E060EDB500624C0
:10177000046E070EDB500720056E080EDB500424B4
:10178000026E090EDB500520036E0A0EDB500224A8
:10179000006E0B0EDB500320016E0C0EDB500001BF
:1017A00000240101246F0D0EDB5000010120010116
:1017B000256F020EDBCF08F0030EDBCF09F0DE5001
:1017C0000824066EDD500920076E040EDB50062447
:1017D000046E050EDB500720056E060EDB50042458
:1017E000026E070EDB500520036E0A0EDB5002244A
:1017F000006E0B0EDB500320016E0C0EDB5000015F
:1018000000240101266F0D0EDB50000101200101B3
:10181000276F0E0EDBCF28F10F0EDBCF29F1DECFC5
:1018200000F0DDCF01F0DE500001002401012A6F3D
:10183000DD500001012001012B6F0C0EDBCF2CF1DC
:101840000D0EDBCF2DF1400EDE6EDD6A800EF36EE5
:10185000020EF3CFDBFF030EDB6A040EDB6AF36ECE
:10186000050EF3CFDBFF060EDB6A100EF36E070EDC
:10187000F3CFDBFF080EDB6A800EF36E090EF3CFA9
:10188000DBFF100EF36E0A0EF3CFDBFF0B0EDB6AED
:10189000020EF36E0C0EF3CFDBFF0D0EDB6A0E0EA5
:1018A000DB6A010EF36E0F0EF3CFDBFF020EDBCF10
:1018B00008F0030EDBCF09F0DE500824066EDD5081
:1018C0000920076E040EDB500624046E050EDB5063
:1018D0000720056E060EDB500424026E070EDB5057
:1018E0000520036E080EDB500224006E090EDB504B
:1018F0000320016E0A0EDB50000100240101286F55
:101900000B0EDB50000101200101296F040EDBCF1B
:1019100000F0050EDBCF01F0020EDB5000010024C9
:1019200001012A6F030EDB500001012001012B6F22
:10193000020EDBCF06F0030EDBCF07F0DE500624ED
:10194000046EDD500720056E060EDB500424026E87
:10195000070EDB500520036E080EDB500224006EDC
:10196000090EDB500320016E0C0EDB500001002439
:1019700001012C6F0D0EDB500001012001012D6FC4
:10198000020EDBCF06F0030EDBCF07F0DE5006249D
:10199000046EDD500720056E040EDB500424026E39
:1019A000050EDB500520036E060EDB500224006E90
:1019B000070EDB500320016E0C0EDB5000010024EB
:1019C00001012E6F0D0EDB500001012001012F6F70
:1019D000040EDBCF04F0050EDBCF05F0020EDB506A
:1019E0000424026E030EDB500520036E0A0EDB504A
:1019F0000224006E0B0EDB500320016E0C0EDB5038
:101A0000000100240101306F0D0EDB5000010120A8
:101A10000101316F040EDBCF06F0050EDBCF07F0BE
:101A2000DE500624046EDD500720056E060EDB50E6
:101A30000424026E070EDB500520036E0A0EDB50F5
:101A40000224006E0B0EDB500320016E0C0EDB50E7
:101A5000000100240101326F0D0EDB500001012056
:101A60000101336F040EDBCF08F0050EDBCF09F068
:101A7000DE500824066EDD500920076E060EDB508E
:101A80000624046E070EDB500720056E080EDB509F
:101A90000424026E090EDB500520036E0A0EDB5093
:101AA0000224006E0B0EDB500320016E0C0EDB5087
:101AB000000100240101346F0D0EDB5000010120F4
:101AC0000101356F020EDBCF02F0030EDBCF03F016
:101AD000DE500224006EDD500320016E040EDB5048
:101AE000000100240101366F050EDB5000010120CA
:101AF0000101376F020EDBCF0AF0030EDBCF0BF0D4
:101B0000DE500A24086EDD500B20096E040EDB50F7
:101B10000824066E050EDB500920076E060EDB500A
:101B20000624046E070EDB500720056E080EDB50FE
:101B30000424026E090EDB500520036E0A0EDB50F2
:101B40000224006E0B0EDB500320016E0C0EDB50E6
:101B5000000100240101386F0D0EDB50000101204F
:101B60000101396F020EDBCF08F0030EDBCF09F065
:101B7000DE500824066EDD500920076E040EDB508F
:101B80000624046E050EDB500720056E060EDB50A2
:101B90000424026E070EDB500520036E0A0EDB5094
:101BA0000224006E0B0EDB500320016E0C0EDB5086
:101BB0000001002401013A6F0D0EDB5000010120ED
:101BC00001013B6F0E0EDBCF3CF10F0EDBCF3DF181
:101BD000060EDBCF00F0070EDBCF01F0060EDB5068
:101BE0000001002401013E6F070EDB5000010120BF
:101BF00001013F6F0C0EDBCF40F10D0EDBCF41F149
:101C0000F28CF28E9D860F0EE66E670EE66EA30EC8
:101C1000E66EE4EC11F0E552E552E5520C0EC16EB1
:101C20000101870E3E6F9C0EE66ED0EC12F0E5527D
:101C3000E66806EC13F0E552000EE66EE66A7DEC0F
:101C400012F0E552E552E66871EC11F0E552000E33
:101C5000E66EE66A4EEC12F0E552E552C6C000F0C0
:101C6000C7C001F00006000E015A00C040F101019A
:101C70004051E8240001986FC6C03FF1E00E98255E
:101C8000C86E8C96100EE15C02E2E16AE552E16EEC
:081C9000E552E7CFD9FF120075
:081C9800319E08D0319E39AEE7
:101CA00005D0386C391EE86A3922318E39C033F0DC
:101CB00038C032F0436A426A8E0E346E356AB8EF2D
:101CC00010F0319E0CD0319E39AE09D0366C371EE3
:101CD000381E391EE86A372238223922318E39C03F
:101CE00033F038C032F037C043F036C042F09E0EB9
:101CF000346E356AB8EF10F0316AF4EC10F00CEC89
:101D000011F031B69CEF10F031A205D031B89CEF44
:101D100010F0A3EF10F031AA05D031B09CEF10F015
:101D2000A3EF10F031B002D031A802D0AFEF10F025
:101D3000356A3F503A24346EE86A35227E0E345EAE
:101D4000E86A355A426A436A326A336A3E50390257
:101D5000F4CF33F0F3CF32F03D503902F350432645
:101D6000F4503222000E33223E503802F350432604
:101D7000F4503222000E33223C503902F3504226F6
:101D8000F4504322000E322233223D503802F350E9
:101D90004226F4504322000E322233223E503702B4
:101DA000F3504226F4504322000E322233223C509C
:101DB0003802F4504226000E4322322233223D5094
:101DC0003702F4504226000E432232223322B8EF6B
:101DD00010F03F7E316AF4EC10F00CEC11F031B6EB
:101DE0009CEF10F031A20AD031AA03D031BE9CEF93
:101DF00010F031A4A8EF10F0A5EF10F031AA05D033
:101E000031ACA8EF10F0A5EF10F031A00AD031A846
:101E100008D031BE04D031A402D0B1EF10F0B5EF3C
:101E200010F0426A356A3F503A5C416E10E337C0A9
:101E300043F038C032F039C033F03AC040F03CC013
:101E400037F03DC038F03EC039F0313A09D03CC0DF
:101E500043F03DC032F03EC033F03FC040F0416C33
:101E6000319E31BC318E40C034F031B0E4EF10F01F
:101E70001A0E4160E4EF10F0346A3A6A31A408D0D7
:101E8000376C381E391E3A1EE86A382239223A2247
:101E900031AC08D0436C321E331E341EE86A322245
:101EA00033223422366A415207E03A34393238322A
:101EB00037323632412EF9D7375043263850322246
:101EC000395033223A50342236C042F0319E34AE7B
:101ED0000BD0426C431E321E331E341EE86A43226E
:101EE000322233223422318E34A006D0D8803332CD
:101EF000323243324232402A40C034F0B8EF10F060
:101F0000306AE86A3EAE8DEF0FF03B6C3C1E3D1E22
:101F10003E1E3C223D223E22301E39AE98EF0FF08D
:101F2000366C371E381E391E372238223922301EB1
:101F3000ACEC12F039BEAFEF0FF030AE000C366CE7
:101F4000371E381E391EE86A372238223922326C91
:101F5000331E341E351E332234223522000C30BE8F
:101F60009FEF0FF03188FF0C39C043F038C042F0CA
:101F700038503D02F4CF37F0F3CF36F039503E02FF
:101F8000F4CF39F0F3CF38F03D02F3503726F45058
:101F90003822E86A392242503E02F3503726F45084
:101FA0003822E86A39223EAEDAEF0FF04250385E4E
:101FB0004350395A43AE000C3D50385E3E50395ABA
:101FC000000C38C042F038503D02F4CF37F0F3CF68
:101FD00036F039503E02F4CF39F0F3CF38F03D02FD
:101FE000F3503726F4503822E86A392242503E0234
:101FF000F3503726F4503822E86A3922000C316A4F
:10200000F4EC10F031B609EF10F031A20ED031B47B
:1020100005D07F0E396EFF0E386E1FD0800E396EE0
:10202000386A1BD0396A386A18D031B0FBD78F0EA6
:102030003A60EDD77E0E3A64F5D78E0E3A5C05E035
:10204000D890393238323A2AF8D731A406D0386CD1
:10205000391EE86A392239AEE5D7120047EC10F094
:1020600031B6000C31B0010C000C47EC10F031B669
:10207000000C31B0000C31B4000C010C47EC10F036
:1020800031B6000C31B0000C31A4000C010C316AE7
:10209000F4EC10F00CEC11F031B6120031AE08D0B7
:1020A00031A004D031A802D031801200319012004A
:1020B0003F503A5C0BE13E50395C08E13D50385CE2
:1020C00005E13C50375C02E131801200D8A002D01B
:1020D000318E10D03A503FC03AF03F6E39503EC07A
:1020E00039F03E6E38503DC038F03D6E37503CC040
:1020F00037F03C6E3F503A5C10E0FF0F09E0319042
:1021000031B403D031AE3184120031AE31941200BB
:102110003F2AD8903E323D323C323C50375E3D50F3
:10212000385A3E50395A39BEEAD7D8903736383601
:1021300039363A2EF8D7C8D77F0E3A6EFF0E396E71
:10214000386E376E12007F0E31BEFF0E3A6E02D02F
:102150007F0E3A6E800E396E386A376AF3D731AE29
:1021600004D0800E3A6E396AF7D73A6A396AF4D7E2
:102170003350321043104210F8E035BEF0D733BE72
:102180000CD034503510EBE0D8904236433632361E
:1021900033363406D8A03506F2D73550D4E134288A
:1021A000D2E042AE11D07F0E421402E143A00CD027
:1021B000432AE86A3222332207E3D88033323232AC
:1021C0004332342A3428BFE03450C9E043C037F0EA
:1021D00032C038F03334396E34303A6E39323A9E88
:1021E00031BE3A8EA2EF10F039363A3602E331842E
:1021F000317E06E131803A6A396A386A376A1200FC
:102200003A2803E0D88039321200D890393202E1FE
:1022100031821200318612003E363F3602E3318CA5
:10222000317E06E131883F6A3E6A3D6A3C6A1200AF
:102230003F2803E0D8803E321200D8903E32EAE1D7
:04224000318A1200CD
:0C224400060EF66E000EF76E000EF86E2F
:1022500000010900F550E46F0900F550E56F03E156
:10226000E46701D03DD00900F550DF6F0900F5505B
:10227000E06F0900F550E16F09000900F550E96EC3
:102280000900F550EA6E090009000900F550E26FF7
:102290000900F550E36F09000900F6CFE6F0F7CF2B
:1022A000E7F0F8CFE8F0DFC0F6FFE0C0F7FFE1C0ED
:1022B000F8FF0001E25302E1E35307E00900F550A3
:1022C000EE6EE207F8E2E307F9D7E6C0F6FFE7C0F3
:1022D000F7FFE8C0F8FF0001E407000EE55BBFD799
:0222E0001200EA
:0E22E200D9CFE6FFDACFE6FFE1CFD9FFE2CF9A
:1022F000DAFFE652E652E652E652F8CF02F0F6CFA7
:1023000003F00C0EBA6E050EF66EF76A300EF86E1C
:102310000800F550010B03E0010EDB6802D0010E4E
:10232000DB6A010EDB5002E0949201D09396CA94CE
:10233000FD0EDB50CB6ECA8402C0F8FF03C0F6FF6F
:10234000040EE15C02E2E16AE552E16EE552E5CF9E
:08235000DAFFE7CFD9FF12000C
:0823580036503B02F3CF32F0D6
:10236000F4CF33F03C02F3503326000EF420346EE9
:1023700036503D02F3503426000EF420356E3650B0
:102380003E02F350352637503B02F3503326F450CB
:102390003422000E352237503C02F3503426F450DC
:1023A000352237503D02F350352638503B02F3506A
:1023B0003426F450352238503C02F350352639503B
:0823C0003B02F3503526120028
:0823C800D9CFE6FFDACFE6FFF2
:1023D000E1CFD9FFE2CFDAFFC26AC06AFC0EDB4070
:1023E0007F0B3C0BC26EFC0EDB38F00B300B006E2B
:1023F000FB0EDB500F0B0010C16EFD0EDB50040D09
:10240000F350380B016EFD0EDB380F0B070B006E1F
:10241000FD0EDB50800B00100110C06EFC0EDBAE19
:1024200003D09E9C9D8CF28CC280E552E5CFDAFFF2
:06243000E7CFD9FF120006
:0A243600D9CFE6FFDACFE6FFE1CFD1
:10244000D9FFE2CFDAFFE652E652D950FD0F006E17
:10245000FF0EDA2000C0DEFFDD6EDECFE9FFDDCF4C
:10246000EAFFEF9EFA0EDBCF00F0FB0EDBCF01F0B0
:10247000FC0EDBCF02F0FD0EDBCF03F000C036F028
:1024800001C037F002C038F003C039F0E552E55220
:0C249000E552E5CFDAFFE7CFD9FF1200DC
:04249C00D9CFE6FFAF
:1024A000DACFE6FFE1CFD9FFE2CFDAFFE652E6521C
:1024B000FC0EDBCF00F0FD0EDBCF01F0060ED89056
:1024C00000360136E804FBE100C0DEFF01C0DDFF9D
:1024D000010EDB50BB6EDF50E840E8403F0B300B95
:1024E000006ECF0EBA140010BA6EE552E552E552F6
:0A24F000E5CFDAFFE7CFD9FF1200B5
:0624FA00D9CFE6FFDACFA6
:10250000E6FFE1CFD9FFE2CFDAFFE652E652FC0E5A
:10251000DBCF00F0FD0EDBCF01F0060ED8900036C9
:102520000136E804FBE100C0DEFF01C0DDFF010E63
:10253000DB50BE6EDF50E840E8403F0B300B006ED2
:10254000CF0EBD140010BD6EE552E552E552E5CF49
:08255000DAFFE7CFD9FF12000A
:08255800356A346A336A326A05
:10256000200EE76ED8903636373638363936323662
:102570003336343635363B50325C3C5033583D5060
:1025800034583E50355809E33B50325E3C50335A84
:102590003D50345A3E50355A362AE72EE4D71200C1
:1025A000D9CFE6FFDACFE6FFE1CFD9FFE2CFDAFFFE
:1025B000FD0EDB50FB0BCA6ECC6A9E92FD0EDBAEAD
:1025C00002D09D8201D09D92CA84E552E5CFDAFF08
:0625D000E7CFD9FF120065
:0A25D600D9CFE6FFDACFE6FFE1CF30
:1025E000D9FFE2CFDAFF3F0EC716C66AC56AFD0EF5
:1025F000DB50C612FC0EDB50C71294869488C68A44
:0C260000E552E5CFDAFFE7CFD9FF12006A
:04260C00D9CFE6FF3D
:10261000DACFE6FFE1CFD9FFE2CFDAFF0C0EBD1231
:102620009494CA94FD0EDB50CB6ECA84E552E5CF7C
:0C263000DAFFE7CFD9FF120094941200EB
:04263C00D9CFE6FF0D
:10264000DACFE6FFE1CFD9FFE2CFDAFFC30EC21443
:10265000006EFD0EDB407F0B3C0B0010C26EE5529E
:0A266000E5CFDAFFE7CFD9FF120043
:06266A00356A346A100E0F
:10267000E76ED89038363936343635363D50345CCE
:102680003E50355805E33D50345E3E50355A382AA9
:06269000E72EF0D7120056
:0A269600000EF36E00EE00F0060ED9
:1026A00001D81200EA6002D0EE6AFCD7F350E9606C
:0626B0001200EE6AFCD7E7
:0A26B60015EE00F025EE00F0F86AC2
:1026C000319C22EC11F070EC13F089EC00F0FBD798
:0226D0001200F6
:0A26D200C250020B01E0010E1200DD
:0426DC00C2821200A4
:0226E0001200E6
:0E26E2000000000000000000000000000000EA
:1026F0000000000000000000000000000004080CC2
:10270000801060400C2300DE03B80B050818FF039F
:102710002003000006000000A00F00005A00000087
:10272000010000000000E8030100010000000200B9
:10273000040000000000000000010000000104008F
:012740000098
:00000001FF
